{"abi":[{"inputs":[{"internalType":"uint256","name":"minimum","type":"uint256"},{"internalType":"address","name":"creator","type":"address"}],"stateMutability":"nonpayable","type":"constructor"},{"inputs":[{"internalType":"uint256","name":"requestIndex","type":"uint256"},{"internalType":"bool","name":"approve","type":"bool"}],"name":"approveRequest","outputs":[],"stateMutability":"nonpayable","type":"function"},{"inputs":[{"internalType":"address","name":"","type":"address"}],"name":"approvers","outputs":[{"internalType":"bool","name":"","type":"bool"}],"stateMutability":"view","type":"function"},{"inputs":[],"name":"approversCount","outputs":[{"internalType":"uint256","name":"","type":"uint256"}],"stateMutability":"view","type":"function"},{"inputs":[],"name":"contribute","outputs":[],"stateMutability":"payable","type":"function"},{"inputs":[{"internalType":"string","name":"description","type":"string"},{"internalType":"uint256","name":"value","type":"uint256"},{"internalType":"address payable","name":"recipient","type":"address"}],"name":"createRequest","outputs":[],"stateMutability":"nonpayable","type":"function"},{"inputs":[{"internalType":"uint256","name":"requestIndex","type":"uint256"}],"name":"finalizeRequest","outputs":[],"stateMutability":"nonpayable","type":"function"},{"inputs":[],"name":"getBalance","outputs":[{"internalType":"uint256","name":"","type":"uint256"}],"stateMutability":"view","type":"function"},{"inputs":[],"name":"getRequestCount","outputs":[{"internalType":"uint256","name":"","type":"uint256"}],"stateMutability":"view","type":"function"},{"inputs":[],"name":"getSummary","outputs":[{"components":[{"internalType":"uint256","name":"minimumContribution","type":"uint256"},{"internalType":"uint256","name":"balance","type":"uint256"},{"internalType":"uint256","name":"requestLength","type":"uint256"},{"internalType":"uint256","name":"approversCount","type":"uint256"},{"internalType":"address","name":"manager","type":"address"}],"internalType":"struct Campaign.Summary","name":"","type":"tuple"}],"stateMutability":"view","type":"function"},{"inputs":[],"name":"manager","outputs":[{"internalType":"address","name":"","type":"address"}],"stateMutability":"view","type":"function"},{"inputs":[],"name":"minimumContribution","outputs":[{"internalType":"uint256","name":"","type":"uint256"}],"stateMutability":"view","type":"function"},{"inputs":[{"internalType":"uint256","name":"","type":"uint256"}],"name":"requests","outputs":[{"internalType":"string","name":"description","type":"string"},{"internalType":"uint256","name":"value","type":"uint256"},{"internalType":"address payable","name":"recipient","type":"address"},{"internalType":"bool","name":"isCompleted","type":"bool"},{"internalType":"uint256","name":"approvals","type":"uint256"}],"stateMutability":"view","type":"function"}],"devdoc":{"kind":"dev","methods":{},"version":1},"evm":{"assembly":"    /* \"Campaign.sol\":488:3835  contract Campaign {... */\n  mstore(0x40, 0x80)\n    /* \"Campaign.sol\":1082:1201  constructor(uint minimum, address creator) {... */\n  callvalue\n  dup1\n  iszero\n  tag_1\n  jumpi\n  0x00\n  dup1\n  revert\ntag_1:\n  pop\n  mload(0x40)\n  sub(codesize, bytecodeSize)\n  dup1\n  bytecodeSize\n  dup4\n  codecopy\n  dup2\n  dup2\n  add\n  0x40\n  mstore\n  dup2\n  add\n  swap1\n  tag_2\n  swap2\n  swap1\n  tag_3\n  jump\t// in\ntag_2:\n    /* \"Campaign.sol\":1146:1153  creator */\n  dup1\n    /* \"Campaign.sol\":1136:1143  manager */\n  0x01\n  0x00\n    /* \"Campaign.sol\":1136:1153  manager = creator */\n  0x0100\n  exp\n  dup2\n  sload\n  dup2\n  0xffffffffffffffffffffffffffffffffffffffff\n  mul\n  not\n  and\n  swap1\n  dup4\n  0xffffffffffffffffffffffffffffffffffffffff\n  and\n  mul\n  or\n  swap1\n  sstore\n  pop\n    /* \"Campaign.sol\":1186:1193  minimum */\n  dup2\n    /* \"Campaign.sol\":1164:1183  minimumContribution */\n  0x02\n    /* \"Campaign.sol\":1164:1193  minimumContribution = minimum */\n  dup2\n  swap1\n  sstore\n  pop\n    /* \"Campaign.sol\":1082:1201  constructor(uint minimum, address creator) {... */\n  pop\n  pop\n    /* \"Campaign.sol\":488:3835  contract Campaign {... */\n  jump(tag_6)\n    /* \"#utility.yul\":88:205   */\ntag_8:\n    /* \"#utility.yul\":197:198   */\n  0x00\n    /* \"#utility.yul\":194:195   */\n  dup1\n    /* \"#utility.yul\":187:199   */\n  revert\n    /* \"#utility.yul\":334:411   */\ntag_10:\n    /* \"#utility.yul\":371:378   */\n  0x00\n    /* \"#utility.yul\":400:405   */\n  dup2\n    /* \"#utility.yul\":389:405   */\n  swap1\n  pop\n    /* \"#utility.yul\":334:411   */\n  swap2\n  swap1\n  pop\n  jump\t// out\n    /* \"#utility.yul\":417:539   */\ntag_11:\n    /* \"#utility.yul\":490:514   */\n  tag_23\n    /* \"#utility.yul\":508:513   */\n  dup2\n    /* \"#utility.yul\":490:514   */\n  tag_10\n  jump\t// in\ntag_23:\n    /* \"#utility.yul\":483:488   */\n  dup2\n    /* \"#utility.yul\":480:515   */\n  eq\n    /* \"#utility.yul\":470:533   */\n  tag_24\n  jumpi\n    /* \"#utility.yul\":529:530   */\n  0x00\n    /* \"#utility.yul\":526:527   */\n  dup1\n    /* \"#utility.yul\":519:531   */\n  revert\n    /* \"#utility.yul\":470:533   */\ntag_24:\n    /* \"#utility.yul\":417:539   */\n  pop\n  jump\t// out\n    /* \"#utility.yul\":545:688   */\ntag_12:\n    /* \"#utility.yul\":602:607   */\n  0x00\n    /* \"#utility.yul\":633:639   */\n  dup2\n    /* \"#utility.yul\":627:640   */\n  mload\n    /* \"#utility.yul\":618:640   */\n  swap1\n  pop\n    /* \"#utility.yul\":649:682   */\n  tag_26\n    /* \"#utility.yul\":676:681   */\n  dup2\n    /* \"#utility.yul\":649:682   */\n  tag_11\n  jump\t// in\ntag_26:\n    /* \"#utility.yul\":545:688   */\n  swap3\n  swap2\n  pop\n  pop\n  jump\t// out\n    /* \"#utility.yul\":694:820   */\ntag_13:\n    /* \"#utility.yul\":731:738   */\n  0x00\n    /* \"#utility.yul\":771:813   */\n  0xffffffffffffffffffffffffffffffffffffffff\n    /* \"#utility.yul\":764:769   */\n  dup3\n    /* \"#utility.yul\":760:814   */\n  and\n    /* \"#utility.yul\":749:814   */\n  swap1\n  pop\n    /* \"#utility.yul\":694:820   */\n  swap2\n  swap1\n  pop\n  jump\t// out\n    /* \"#utility.yul\":826:922   */\ntag_14:\n    /* \"#utility.yul\":863:870   */\n  0x00\n    /* \"#utility.yul\":892:916   */\n  tag_29\n    /* \"#utility.yul\":910:915   */\n  dup3\n    /* \"#utility.yul\":892:916   */\n  tag_13\n  jump\t// in\ntag_29:\n    /* \"#utility.yul\":881:916   */\n  swap1\n  pop\n    /* \"#utility.yul\":826:922   */\n  swap2\n  swap1\n  pop\n  jump\t// out\n    /* \"#utility.yul\":928:1050   */\ntag_15:\n    /* \"#utility.yul\":1001:1025   */\n  tag_31\n    /* \"#utility.yul\":1019:1024   */\n  dup2\n    /* \"#utility.yul\":1001:1025   */\n  tag_14\n  jump\t// in\ntag_31:\n    /* \"#utility.yul\":994:999   */\n  dup2\n    /* \"#utility.yul\":991:1026   */\n  eq\n    /* \"#utility.yul\":981:1044   */\n  tag_32\n  jumpi\n    /* \"#utility.yul\":1040:1041   */\n  0x00\n    /* \"#utility.yul\":1037:1038   */\n  dup1\n    /* \"#utility.yul\":1030:1042   */\n  revert\n    /* \"#utility.yul\":981:1044   */\ntag_32:\n    /* \"#utility.yul\":928:1050   */\n  pop\n  jump\t// out\n    /* \"#utility.yul\":1056:1199   */\ntag_16:\n    /* \"#utility.yul\":1113:1118   */\n  0x00\n    /* \"#utility.yul\":1144:1150   */\n  dup2\n    /* \"#utility.yul\":1138:1151   */\n  mload\n    /* \"#utility.yul\":1129:1151   */\n  swap1\n  pop\n    /* \"#utility.yul\":1160:1193   */\n  tag_34\n    /* \"#utility.yul\":1187:1192   */\n  dup2\n    /* \"#utility.yul\":1160:1193   */\n  tag_15\n  jump\t// in\ntag_34:\n    /* \"#utility.yul\":1056:1199   */\n  swap3\n  swap2\n  pop\n  pop\n  jump\t// out\n    /* \"#utility.yul\":1205:1712   */\ntag_3:\n    /* \"#utility.yul\":1284:1290   */\n  0x00\n    /* \"#utility.yul\":1292:1298   */\n  dup1\n    /* \"#utility.yul\":1341:1343   */\n  0x40\n    /* \"#utility.yul\":1329:1338   */\n  dup4\n    /* \"#utility.yul\":1320:1327   */\n  dup6\n    /* \"#utility.yul\":1316:1339   */\n  sub\n    /* \"#utility.yul\":1312:1344   */\n  slt\n    /* \"#utility.yul\":1309:1428   */\n  iszero\n  tag_36\n  jumpi\n    /* \"#utility.yul\":1347:1426   */\n  tag_37\n  tag_8\n  jump\t// in\ntag_37:\n    /* \"#utility.yul\":1309:1428   */\ntag_36:\n    /* \"#utility.yul\":1467:1468   */\n  0x00\n    /* \"#utility.yul\":1492:1556   */\n  tag_38\n    /* \"#utility.yul\":1548:1555   */\n  dup6\n    /* \"#utility.yul\":1539:1545   */\n  dup3\n    /* \"#utility.yul\":1528:1537   */\n  dup7\n    /* \"#utility.yul\":1524:1546   */\n  add\n    /* \"#utility.yul\":1492:1556   */\n  tag_12\n  jump\t// in\ntag_38:\n    /* \"#utility.yul\":1482:1556   */\n  swap3\n  pop\n    /* \"#utility.yul\":1438:1566   */\n  pop\n    /* \"#utility.yul\":1605:1607   */\n  0x20\n    /* \"#utility.yul\":1631:1695   */\n  tag_39\n    /* \"#utility.yul\":1687:1694   */\n  dup6\n    /* \"#utility.yul\":1678:1684   */\n  dup3\n    /* \"#utility.yul\":1667:1676   */\n  dup7\n    /* \"#utility.yul\":1663:1685   */\n  add\n    /* \"#utility.yul\":1631:1695   */\n  tag_16\n  jump\t// in\ntag_39:\n    /* \"#utility.yul\":1621:1695   */\n  swap2\n  pop\n    /* \"#utility.yul\":1576:1705   */\n  pop\n    /* \"#utility.yul\":1205:1712   */\n  swap3\n  pop\n  swap3\n  swap1\n  pop\n  jump\t// out\n    /* \"Campaign.sol\":488:3835  contract Campaign {... */\ntag_6:\n  dataSize(sub_0)\n  dup1\n  dataOffset(sub_0)\n  0x00\n  codecopy\n  0x00\n  return\nstop\n\nsub_0: assembly {\n        /* \"Campaign.sol\":488:3835  contract Campaign {... */\n      mstore(0x40, 0x80)\n      jumpi(tag_1, lt(calldatasize, 0x04))\n      shr(0xe0, calldataload(0x00))\n      dup1\n      0x767e0b9c\n      gt\n      tag_14\n      jumpi\n      dup1\n      0x767e0b9c\n      eq\n      tag_8\n      jumpi\n      dup1\n      0x81d12c58\n      eq\n      tag_9\n      jumpi\n      dup1\n      0x82fde093\n      eq\n      tag_10\n      jumpi\n      dup1\n      0x8a9cfd55\n      eq\n      tag_11\n      jumpi\n      dup1\n      0x937e09b1\n      eq\n      tag_12\n      jumpi\n      dup1\n      0xd7bb99ba\n      eq\n      tag_13\n      jumpi\n      jump(tag_1)\n    tag_14:\n      dup1\n      0x03441006\n      eq\n      tag_2\n      jumpi\n      dup1\n      0x0a144391\n      eq\n      tag_3\n      jumpi\n      dup1\n      0x12065fe0\n      eq\n      tag_4\n      jumpi\n      dup1\n      0x3fad1834\n      eq\n      tag_5\n      jumpi\n      dup1\n      0x4051ddac\n      eq\n      tag_6\n      jumpi\n      dup1\n      0x481c6a75\n      eq\n      tag_7\n      jumpi\n    tag_1:\n      0x00\n      dup1\n      revert\n        /* \"Campaign.sol\":2765:3359  function finalizeRequest(uint requestIndex) public restricted {... */\n    tag_2:\n      callvalue\n      dup1\n      iszero\n      tag_15\n      jumpi\n      0x00\n      dup1\n      revert\n    tag_15:\n      pop\n      tag_16\n      0x04\n      dup1\n      calldatasize\n      sub\n      dup2\n      add\n      swap1\n      tag_17\n      swap2\n      swap1\n      tag_18\n      jump\t// in\n    tag_17:\n      tag_19\n      jump\t// in\n    tag_16:\n      stop\n        /* \"Campaign.sol\":999:1040  mapping(address => bool) public approvers */\n    tag_3:\n      callvalue\n      dup1\n      iszero\n      tag_20\n      jumpi\n      0x00\n      dup1\n      revert\n    tag_20:\n      pop\n      tag_21\n      0x04\n      dup1\n      calldatasize\n      sub\n      dup2\n      add\n      swap1\n      tag_22\n      swap2\n      swap1\n      tag_23\n      jump\t// in\n    tag_22:\n      tag_24\n      jump\t// in\n    tag_21:\n      mload(0x40)\n      tag_25\n      swap2\n      swap1\n      tag_26\n      jump\t// in\n    tag_25:\n      mload(0x40)\n      dup1\n      swap2\n      sub\n      swap1\n      return\n        /* \"Campaign.sol\":1339:1435  function getBalance() public view returns (uint) {... */\n    tag_4:\n      callvalue\n      dup1\n      iszero\n      tag_27\n      jumpi\n      0x00\n      dup1\n      revert\n    tag_27:\n      pop\n      tag_28\n      tag_29\n      jump\t// in\n    tag_28:\n      mload(0x40)\n      tag_30\n      swap2\n      swap1\n      tag_31\n      jump\t// in\n    tag_30:\n      mload(0x40)\n      dup1\n      swap2\n      sub\n      swap1\n      return\n        /* \"Campaign.sol\":3737:3832  function getRequestCount() public view returns (uint) {... */\n    tag_5:\n      callvalue\n      dup1\n      iszero\n      tag_32\n      jumpi\n      0x00\n      dup1\n      revert\n    tag_32:\n      pop\n      tag_33\n      tag_34\n      jump\t// in\n    tag_33:\n      mload(0x40)\n      tag_35\n      swap2\n      swap1\n      tag_31\n      jump\t// in\n    tag_35:\n      mload(0x40)\n      dup1\n      swap2\n      sub\n      swap1\n      return\n        /* \"Campaign.sol\":3367:3729  function getSummary() public view returns (Summary memory) {... */\n    tag_6:\n      callvalue\n      dup1\n      iszero\n      tag_36\n      jumpi\n      0x00\n      dup1\n      revert\n    tag_36:\n      pop\n      tag_37\n      tag_38\n      jump\t// in\n    tag_37:\n      mload(0x40)\n      tag_39\n      swap2\n      swap1\n      tag_40\n      jump\t// in\n    tag_39:\n      mload(0x40)\n      dup1\n      swap2\n      sub\n      swap1\n      return\n        /* \"Campaign.sol\":932:954  address public manager */\n    tag_7:\n      callvalue\n      dup1\n      iszero\n      tag_41\n      jumpi\n      0x00\n      dup1\n      revert\n    tag_41:\n      pop\n      tag_42\n      tag_43\n      jump\t// in\n    tag_42:\n      mload(0x40)\n      tag_44\n      swap2\n      swap1\n      tag_45\n      jump\t// in\n    tag_44:\n      mload(0x40)\n      dup1\n      swap2\n      sub\n      swap1\n      return\n        /* \"Campaign.sol\":2361:2757  function approveRequest(uint requestIndex, bool approve) public {... */\n    tag_8:\n      callvalue\n      dup1\n      iszero\n      tag_46\n      jumpi\n      0x00\n      dup1\n      revert\n    tag_46:\n      pop\n      tag_47\n      0x04\n      dup1\n      calldatasize\n      sub\n      dup2\n      add\n      swap1\n      tag_48\n      swap2\n      swap1\n      tag_49\n      jump\t// in\n    tag_48:\n      tag_50\n      jump\t// in\n    tag_47:\n      stop\n        /* \"Campaign.sol\":900:925  Request[] public requests */\n    tag_9:\n      callvalue\n      dup1\n      iszero\n      tag_51\n      jumpi\n      0x00\n      dup1\n      revert\n    tag_51:\n      pop\n      tag_52\n      0x04\n      dup1\n      calldatasize\n      sub\n      dup2\n      add\n      swap1\n      tag_53\n      swap2\n      swap1\n      tag_18\n      jump\t// in\n    tag_53:\n      tag_54\n      jump\t// in\n    tag_52:\n      mload(0x40)\n      tag_55\n      swap6\n      swap5\n      swap4\n      swap3\n      swap2\n      swap1\n      tag_56\n      jump\t// in\n    tag_55:\n      mload(0x40)\n      dup1\n      swap2\n      sub\n      swap1\n      return\n        /* \"Campaign.sol\":1047:1073  uint public approversCount */\n    tag_10:\n      callvalue\n      dup1\n      iszero\n      tag_57\n      jumpi\n      0x00\n      dup1\n      revert\n    tag_57:\n      pop\n      tag_58\n      tag_59\n      jump\t// in\n    tag_58:\n      mload(0x40)\n      tag_60\n      swap2\n      swap1\n      tag_31\n      jump\t// in\n    tag_60:\n      mload(0x40)\n      dup1\n      swap2\n      sub\n      swap1\n      return\n        /* \"Campaign.sol\":1825:2353  function createRequest(... */\n    tag_11:\n      callvalue\n      dup1\n      iszero\n      tag_61\n      jumpi\n      0x00\n      dup1\n      revert\n    tag_61:\n      pop\n      tag_62\n      0x04\n      dup1\n      calldatasize\n      sub\n      dup2\n      add\n      swap1\n      tag_63\n      swap2\n      swap1\n      tag_64\n      jump\t// in\n    tag_63:\n      tag_65\n      jump\t// in\n    tag_62:\n      stop\n        /* \"Campaign.sol\":961:992  uint public minimumContribution */\n    tag_12:\n      callvalue\n      dup1\n      iszero\n      tag_66\n      jumpi\n      0x00\n      dup1\n      revert\n    tag_66:\n      pop\n      tag_67\n      tag_68\n      jump\t// in\n    tag_67:\n      mload(0x40)\n      tag_69\n      swap2\n      swap1\n      tag_31\n      jump\t// in\n    tag_69:\n      mload(0x40)\n      dup1\n      swap2\n      sub\n      swap1\n      return\n        /* \"Campaign.sol\":1443:1817  function contribute() public payable {... */\n    tag_13:\n      tag_70\n      tag_71\n      jump\t// in\n    tag_70:\n      stop\n        /* \"Campaign.sol\":2765:3359  function finalizeRequest(uint requestIndex) public restricted {... */\n    tag_19:\n        /* \"Campaign.sol\":1264:1271  manager */\n      0x01\n      0x00\n      swap1\n      sload\n      swap1\n      0x0100\n      exp\n      swap1\n      div\n      0xffffffffffffffffffffffffffffffffffffffff\n      and\n        /* \"Campaign.sol\":1250:1271  msg.sender == manager */\n      0xffffffffffffffffffffffffffffffffffffffff\n      and\n        /* \"Campaign.sol\":1250:1260  msg.sender */\n      caller\n        /* \"Campaign.sol\":1250:1271  msg.sender == manager */\n      0xffffffffffffffffffffffffffffffffffffffff\n      and\n      eq\n        /* \"Campaign.sol\":1242:1311  require(msg.sender == manager, \"Only manager can do this operation.\") */\n      tag_73\n      jumpi\n      mload(0x40)\n      0x08c379a000000000000000000000000000000000000000000000000000000000\n      dup2\n      mstore\n      0x04\n      add\n      tag_74\n      swap1\n      tag_75\n      jump\t// in\n    tag_74:\n      mload(0x40)\n      dup1\n      swap2\n      sub\n      swap1\n      revert\n    tag_73:\n        /* \"Campaign.sol\":2838:2861  Request storage request */\n      0x00\n        /* \"Campaign.sol\":2864:2872  requests */\n      dup1\n        /* \"Campaign.sol\":2873:2885  requestIndex */\n      dup3\n        /* \"Campaign.sol\":2864:2886  requests[requestIndex] */\n      dup2\n      sload\n      dup2\n      lt\n      tag_77\n      jumpi\n      tag_78\n      tag_79\n      jump\t// in\n    tag_78:\n    tag_77:\n      swap1\n      0x00\n      mstore\n      keccak256(0x00, 0x20)\n      swap1\n      0x05\n      mul\n      add\n        /* \"Campaign.sol\":2838:2886  Request storage request = requests[requestIndex] */\n      swap1\n      pop\n        /* \"Campaign.sol\":2958:2959  2 */\n      0x02\n        /* \"Campaign.sol\":2941:2955  approversCount */\n      sload(0x04)\n        /* \"Campaign.sol\":2941:2959  approversCount / 2 */\n      tag_81\n      swap2\n      swap1\n      tag_82\n      jump\t// in\n    tag_81:\n        /* \"Campaign.sol\":2921:2928  request */\n      dup2\n        /* \"Campaign.sol\":2921:2938  request.approvals */\n      0x04\n      add\n      sload\n        /* \"Campaign.sol\":2921:2959  request.approvals > approversCount / 2 */\n      gt\n        /* \"Campaign.sol\":2899:3103  require(... */\n      tag_83\n      jumpi\n      mload(0x40)\n      0x08c379a000000000000000000000000000000000000000000000000000000000\n      dup2\n      mstore\n      0x04\n      add\n      tag_84\n      swap1\n      tag_85\n      jump\t// in\n    tag_84:\n      mload(0x40)\n      dup1\n      swap2\n      sub\n      swap1\n      revert\n    tag_83:\n        /* \"Campaign.sol\":3137:3144  request */\n      dup1\n        /* \"Campaign.sol\":3137:3156  request.isCompleted */\n      0x02\n      add\n      0x14\n      swap1\n      sload\n      swap1\n      0x0100\n      exp\n      swap1\n      div\n      0xff\n      and\n        /* \"Campaign.sol\":3136:3156  !request.isCompleted */\n      iszero\n        /* \"Campaign.sol\":3114:3260  require(... */\n      tag_86\n      jumpi\n      mload(0x40)\n      0x08c379a000000000000000000000000000000000000000000000000000000000\n      dup2\n      mstore\n      0x04\n      add\n      tag_87\n      swap1\n      tag_88\n      jump\t// in\n    tag_87:\n      mload(0x40)\n      dup1\n      swap2\n      sub\n      swap1\n      revert\n    tag_86:\n        /* \"Campaign.sol\":3273:3280  request */\n      dup1\n        /* \"Campaign.sol\":3273:3290  request.recipient */\n      0x02\n      add\n      0x00\n      swap1\n      sload\n      swap1\n      0x0100\n      exp\n      swap1\n      div\n      0xffffffffffffffffffffffffffffffffffffffff\n      and\n        /* \"Campaign.sol\":3273:3299  request.recipient.transfer */\n      0xffffffffffffffffffffffffffffffffffffffff\n      and\n        /* \"Campaign.sol\":3273:3314  request.recipient.transfer(request.value) */\n      0x08fc\n        /* \"Campaign.sol\":3300:3307  request */\n      dup3\n        /* \"Campaign.sol\":3300:3313  request.value */\n      0x01\n      add\n      sload\n        /* \"Campaign.sol\":3273:3314  request.recipient.transfer(request.value) */\n      swap1\n      dup2\n      iszero\n      mul\n      swap1\n      mload(0x40)\n      0x00\n      mload(0x40)\n      dup1\n      dup4\n      sub\n      dup2\n      dup6\n      dup9\n      dup9\n      call\n      swap4\n      pop\n      pop\n      pop\n      pop\n      iszero\n      dup1\n      iszero\n      tag_90\n      jumpi\n      returndatasize\n      0x00\n      dup1\n      returndatacopy\n      revert(0x00, returndatasize)\n    tag_90:\n      pop\n        /* \"Campaign.sol\":3347:3351  true */\n      0x01\n        /* \"Campaign.sol\":3325:3332  request */\n      dup2\n        /* \"Campaign.sol\":3325:3344  request.isCompleted */\n      0x02\n      add\n      0x14\n        /* \"Campaign.sol\":3325:3351  request.isCompleted = true */\n      0x0100\n      exp\n      dup2\n      sload\n      dup2\n      0xff\n      mul\n      not\n      and\n      swap1\n      dup4\n      iszero\n      iszero\n      mul\n      or\n      swap1\n      sstore\n      pop\n        /* \"Campaign.sol\":2827:3359  {... */\n      pop\n        /* \"Campaign.sol\":2765:3359  function finalizeRequest(uint requestIndex) public restricted {... */\n      pop\n      jump\t// out\n        /* \"Campaign.sol\":999:1040  mapping(address => bool) public approvers */\n    tag_24:\n      mstore(0x20, 0x03)\n      dup1\n      0x00\n      mstore\n      keccak256(0x00, 0x40)\n      0x00\n      swap2\n      pop\n      sload\n      swap1\n      0x0100\n      exp\n      swap1\n      div\n      0xff\n      and\n      dup2\n      jump\t// out\n        /* \"Campaign.sol\":1339:1435  function getBalance() public view returns (uint) {... */\n    tag_29:\n        /* \"Campaign.sol\":1382:1386  uint */\n      0x00\n        /* \"Campaign.sol\":1406:1427  address(this).balance */\n      selfbalance\n        /* \"Campaign.sol\":1399:1427  return address(this).balance */\n      swap1\n      pop\n        /* \"Campaign.sol\":1339:1435  function getBalance() public view returns (uint) {... */\n      swap1\n      jump\t// out\n        /* \"Campaign.sol\":3737:3832  function getRequestCount() public view returns (uint) {... */\n    tag_34:\n        /* \"Campaign.sol\":3785:3789  uint */\n      0x00\n        /* \"Campaign.sol\":3809:3817  requests */\n      dup1\n        /* \"Campaign.sol\":3809:3824  requests.length */\n      dup1\n      sload\n      swap1\n      pop\n        /* \"Campaign.sol\":3802:3824  return requests.length */\n      swap1\n      pop\n        /* \"Campaign.sol\":3737:3832  function getRequestCount() public view returns (uint) {... */\n      swap1\n      jump\t// out\n        /* \"Campaign.sol\":3367:3729  function getSummary() public view returns (Summary memory) {... */\n    tag_38:\n        /* \"Campaign.sol\":3410:3424  Summary memory */\n      tag_93\n      tag_94\n      jump\t// in\n    tag_93:\n        /* \"Campaign.sol\":3437:3459  Summary memory summary */\n      0x00\n        /* \"Campaign.sol\":3462:3694  Summary({... */\n      mload(0x40)\n      dup1\n      0xa0\n      add\n      0x40\n      mstore\n      dup1\n        /* \"Campaign.sol\":3506:3525  minimumContribution */\n      sload(0x02)\n        /* \"Campaign.sol\":3462:3694  Summary({... */\n      dup2\n      mstore\n      0x20\n      add\n        /* \"Campaign.sol\":3549:3561  getBalance() */\n      tag_96\n        /* \"Campaign.sol\":3549:3559  getBalance */\n      tag_29\n        /* \"Campaign.sol\":3549:3561  getBalance() */\n      jump\t// in\n    tag_96:\n        /* \"Campaign.sol\":3462:3694  Summary({... */\n      dup2\n      mstore\n      0x20\n      add\n        /* \"Campaign.sol\":3591:3599  requests */\n      0x00\n        /* \"Campaign.sol\":3591:3606  requests.length */\n      dup1\n      sload\n      swap1\n      pop\n        /* \"Campaign.sol\":3462:3694  Summary({... */\n      dup2\n      mstore\n      0x20\n      add\n        /* \"Campaign.sol\":3637:3651  approversCount */\n      sload(0x04)\n        /* \"Campaign.sol\":3462:3694  Summary({... */\n      dup2\n      mstore\n      0x20\n      add\n        /* \"Campaign.sol\":3675:3682  manager */\n      0x01\n      0x00\n      swap1\n      sload\n      swap1\n      0x0100\n      exp\n      swap1\n      div\n      0xffffffffffffffffffffffffffffffffffffffff\n      and\n        /* \"Campaign.sol\":3462:3694  Summary({... */\n      0xffffffffffffffffffffffffffffffffffffffff\n      and\n      dup2\n      mstore\n      pop\n        /* \"Campaign.sol\":3437:3694  Summary memory summary = Summary({... */\n      swap1\n      pop\n        /* \"Campaign.sol\":3714:3721  summary */\n      dup1\n        /* \"Campaign.sol\":3707:3721  return summary */\n      swap2\n      pop\n      pop\n        /* \"Campaign.sol\":3367:3729  function getSummary() public view returns (Summary memory) {... */\n      swap1\n      jump\t// out\n        /* \"Campaign.sol\":932:954  address public manager */\n    tag_43:\n      0x01\n      0x00\n      swap1\n      sload\n      swap1\n      0x0100\n      exp\n      swap1\n      div\n      0xffffffffffffffffffffffffffffffffffffffff\n      and\n      dup2\n      jump\t// out\n        /* \"Campaign.sol\":2361:2757  function approveRequest(uint requestIndex, bool approve) public {... */\n    tag_50:\n        /* \"Campaign.sol\":2436:2459  Request storage request */\n      0x00\n        /* \"Campaign.sol\":2462:2470  requests */\n      dup1\n        /* \"Campaign.sol\":2471:2483  requestIndex */\n      dup4\n        /* \"Campaign.sol\":2462:2484  requests[requestIndex] */\n      dup2\n      sload\n      dup2\n      lt\n      tag_98\n      jumpi\n      tag_99\n      tag_79\n      jump\t// in\n    tag_99:\n    tag_98:\n      swap1\n      0x00\n      mstore\n      keccak256(0x00, 0x20)\n      swap1\n      0x05\n      mul\n      add\n        /* \"Campaign.sol\":2436:2484  Request storage request = requests[requestIndex] */\n      swap1\n      pop\n        /* \"Campaign.sol\":2505:2514  approvers */\n      0x03\n        /* \"Campaign.sol\":2505:2526  approvers[msg.sender] */\n      0x00\n        /* \"Campaign.sol\":2515:2525  msg.sender */\n      caller\n        /* \"Campaign.sol\":2505:2526  approvers[msg.sender] */\n      0xffffffffffffffffffffffffffffffffffffffff\n      and\n      0xffffffffffffffffffffffffffffffffffffffff\n      and\n      dup2\n      mstore\n      0x20\n      add\n      swap1\n      dup2\n      mstore\n      0x20\n      add\n      0x00\n      keccak256\n      0x00\n      swap1\n      sload\n      swap1\n      0x0100\n      exp\n      swap1\n      div\n      0xff\n      and\n        /* \"Campaign.sol\":2497:2557  require(approvers[msg.sender], \"Only contributers can vote\") */\n      tag_101\n      jumpi\n      mload(0x40)\n      0x08c379a000000000000000000000000000000000000000000000000000000000\n      dup2\n      mstore\n      0x04\n      add\n      tag_102\n      swap1\n      tag_103\n      jump\t// in\n    tag_102:\n      mload(0x40)\n      dup1\n      swap2\n      sub\n      swap1\n      revert\n    tag_101:\n        /* \"Campaign.sol\":2577:2584  request */\n      dup1\n        /* \"Campaign.sol\":2577:2593  request.hasVoted */\n      0x03\n      add\n        /* \"Campaign.sol\":2577:2605  request.hasVoted[msg.sender] */\n      0x00\n        /* \"Campaign.sol\":2594:2604  msg.sender */\n      caller\n        /* \"Campaign.sol\":2577:2605  request.hasVoted[msg.sender] */\n      0xffffffffffffffffffffffffffffffffffffffff\n      and\n      0xffffffffffffffffffffffffffffffffffffffff\n      and\n      dup2\n      mstore\n      0x20\n      add\n      swap1\n      dup2\n      mstore\n      0x20\n      add\n      0x00\n      keccak256\n      0x00\n      swap1\n      sload\n      swap1\n      0x0100\n      exp\n      swap1\n      div\n      0xff\n      and\n        /* \"Campaign.sol\":2576:2605  !request.hasVoted[msg.sender] */\n      iszero\n        /* \"Campaign.sol\":2568:2632  require(!request.hasVoted[msg.sender], \"You have already voted\") */\n      tag_104\n      jumpi\n      mload(0x40)\n      0x08c379a000000000000000000000000000000000000000000000000000000000\n      dup2\n      mstore\n      0x04\n      add\n      tag_105\n      swap1\n      tag_106\n      jump\t// in\n    tag_105:\n      mload(0x40)\n      dup1\n      swap2\n      sub\n      swap1\n      revert\n    tag_104:\n        /* \"Campaign.sol\":2676:2680  true */\n      0x01\n        /* \"Campaign.sol\":2645:2652  request */\n      dup2\n        /* \"Campaign.sol\":2645:2661  request.hasVoted */\n      0x03\n      add\n        /* \"Campaign.sol\":2645:2673  request.hasVoted[msg.sender] */\n      0x00\n        /* \"Campaign.sol\":2662:2672  msg.sender */\n      caller\n        /* \"Campaign.sol\":2645:2673  request.hasVoted[msg.sender] */\n      0xffffffffffffffffffffffffffffffffffffffff\n      and\n      0xffffffffffffffffffffffffffffffffffffffff\n      and\n      dup2\n      mstore\n      0x20\n      add\n      swap1\n      dup2\n      mstore\n      0x20\n      add\n      0x00\n      keccak256\n      0x00\n        /* \"Campaign.sol\":2645:2680  request.hasVoted[msg.sender] = true */\n      0x0100\n      exp\n      dup2\n      sload\n      dup2\n      0xff\n      mul\n      not\n      and\n      swap1\n      dup4\n      iszero\n      iszero\n      mul\n      or\n      swap1\n      sstore\n      pop\n        /* \"Campaign.sol\":2695:2702  approve */\n      dup2\n        /* \"Campaign.sol\":2691:2750  if (approve) {... */\n      iszero\n      tag_107\n      jumpi\n        /* \"Campaign.sol\":2719:2726  request */\n      dup1\n        /* \"Campaign.sol\":2719:2736  request.approvals */\n      0x04\n      add\n      0x00\n        /* \"Campaign.sol\":2719:2738  request.approvals++ */\n      dup2\n      sload\n      dup1\n      swap3\n      swap2\n      swap1\n      tag_108\n      swap1\n      tag_109\n      jump\t// in\n    tag_108:\n      swap2\n      swap1\n      pop\n      sstore\n      pop\n        /* \"Campaign.sol\":2691:2750  if (approve) {... */\n    tag_107:\n        /* \"Campaign.sol\":2425:2757  {... */\n      pop\n        /* \"Campaign.sol\":2361:2757  function approveRequest(uint requestIndex, bool approve) public {... */\n      pop\n      pop\n      jump\t// out\n        /* \"Campaign.sol\":900:925  Request[] public requests */\n    tag_54:\n      0x00\n      dup2\n      dup2\n      sload\n      dup2\n      lt\n      tag_110\n      jumpi\n      0x00\n      dup1\n      revert\n    tag_110:\n      swap1\n      0x00\n      mstore\n      keccak256(0x00, 0x20)\n      swap1\n      0x05\n      mul\n      add\n      0x00\n      swap2\n      pop\n      swap1\n      pop\n      dup1\n      0x00\n      add\n      dup1\n      sload\n      tag_112\n      swap1\n      tag_113\n      jump\t// in\n    tag_112:\n      dup1\n      0x1f\n      add\n      0x20\n      dup1\n      swap2\n      div\n      mul\n      0x20\n      add\n      mload(0x40)\n      swap1\n      dup2\n      add\n      0x40\n      mstore\n      dup1\n      swap3\n      swap2\n      swap1\n      dup2\n      dup2\n      mstore\n      0x20\n      add\n      dup3\n      dup1\n      sload\n      tag_114\n      swap1\n      tag_113\n      jump\t// in\n    tag_114:\n      dup1\n      iszero\n      tag_115\n      jumpi\n      dup1\n      0x1f\n      lt\n      tag_116\n      jumpi\n      0x0100\n      dup1\n      dup4\n      sload\n      div\n      mul\n      dup4\n      mstore\n      swap2\n      0x20\n      add\n      swap2\n      jump(tag_115)\n    tag_116:\n      dup3\n      add\n      swap2\n      swap1\n      0x00\n      mstore\n      keccak256(0x00, 0x20)\n      swap1\n    tag_117:\n      dup2\n      sload\n      dup2\n      mstore\n      swap1\n      0x01\n      add\n      swap1\n      0x20\n      add\n      dup1\n      dup4\n      gt\n      tag_117\n      jumpi\n      dup3\n      swap1\n      sub\n      0x1f\n      and\n      dup3\n      add\n      swap2\n    tag_115:\n      pop\n      pop\n      pop\n      pop\n      pop\n      swap1\n      dup1\n      0x01\n      add\n      sload\n      swap1\n      dup1\n      0x02\n      add\n      0x00\n      swap1\n      sload\n      swap1\n      0x0100\n      exp\n      swap1\n      div\n      0xffffffffffffffffffffffffffffffffffffffff\n      and\n      swap1\n      dup1\n      0x02\n      add\n      0x14\n      swap1\n      sload\n      swap1\n      0x0100\n      exp\n      swap1\n      div\n      0xff\n      and\n      swap1\n      dup1\n      0x04\n      add\n      sload\n      swap1\n      pop\n      dup6\n      jump\t// out\n        /* \"Campaign.sol\":1047:1073  uint public approversCount */\n    tag_59:\n      sload(0x04)\n      dup2\n      jump\t// out\n        /* \"Campaign.sol\":1825:2353  function createRequest(... */\n    tag_65:\n        /* \"Campaign.sol\":1264:1271  manager */\n      0x01\n      0x00\n      swap1\n      sload\n      swap1\n      0x0100\n      exp\n      swap1\n      div\n      0xffffffffffffffffffffffffffffffffffffffff\n      and\n        /* \"Campaign.sol\":1250:1271  msg.sender == manager */\n      0xffffffffffffffffffffffffffffffffffffffff\n      and\n        /* \"Campaign.sol\":1250:1260  msg.sender */\n      caller\n        /* \"Campaign.sol\":1250:1271  msg.sender == manager */\n      0xffffffffffffffffffffffffffffffffffffffff\n      and\n      eq\n        /* \"Campaign.sol\":1242:1311  require(msg.sender == manager, \"Only manager can do this operation.\") */\n      tag_119\n      jumpi\n      mload(0x40)\n      0x08c379a000000000000000000000000000000000000000000000000000000000\n      dup2\n      mstore\n      0x04\n      add\n      tag_120\n      swap1\n      tag_75\n      jump\t// in\n    tag_120:\n      mload(0x40)\n      dup1\n      swap2\n      sub\n      swap1\n      revert\n    tag_119:\n        /* \"Campaign.sol\":1977:2000  Request storage request */\n      0x00\n        /* \"Campaign.sol\":2003:2011  requests */\n      dup1\n        /* \"Campaign.sol\":2003:2018  requests.push() */\n      0x01\n      dup2\n      0x01\n      dup2\n      sload\n      add\n      dup1\n      dup3\n      sstore\n      dup1\n      swap2\n      pop\n      pop\n      sub\n      swap1\n      0x00\n      mstore\n      keccak256(0x00, 0x20)\n      swap1\n      0x05\n      mul\n      add\n        /* \"Campaign.sol\":1977:2018  Request storage request = requests.push() */\n      swap1\n      pop\n        /* \"Campaign.sol\":2062:2083  address(this).balance */\n      selfbalance\n        /* \"Campaign.sol\":2053:2058  value */\n      dup4\n        /* \"Campaign.sol\":2053:2083  value <= address(this).balance */\n      gt\n      iszero\n        /* \"Campaign.sol\":2031:2157  require(... */\n      tag_123\n      jumpi\n      mload(0x40)\n      0x08c379a000000000000000000000000000000000000000000000000000000000\n      dup2\n      mstore\n      0x04\n      add\n      tag_124\n      swap1\n      tag_125\n      jump\t// in\n    tag_124:\n      mload(0x40)\n      dup1\n      swap2\n      sub\n      swap1\n      revert\n    tag_123:\n        /* \"Campaign.sol\":2192:2203  description */\n      dup4\n        /* \"Campaign.sol\":2170:2177  request */\n      dup2\n        /* \"Campaign.sol\":2170:2189  request.description */\n      0x00\n      add\n        /* \"Campaign.sol\":2170:2203  request.description = description */\n      swap1\n      dup2\n      tag_126\n      swap2\n      swap1\n      tag_127\n      jump\t// in\n    tag_126:\n      pop\n        /* \"Campaign.sol\":2230:2235  value */\n      dup3\n        /* \"Campaign.sol\":2214:2221  request */\n      dup2\n        /* \"Campaign.sol\":2214:2227  request.value */\n      0x01\n      add\n        /* \"Campaign.sol\":2214:2235  request.value = value */\n      dup2\n      swap1\n      sstore\n      pop\n        /* \"Campaign.sol\":2266:2275  recipient */\n      dup2\n        /* \"Campaign.sol\":2246:2253  request */\n      dup2\n        /* \"Campaign.sol\":2246:2263  request.recipient */\n      0x02\n      add\n      0x00\n        /* \"Campaign.sol\":2246:2275  request.recipient = recipient */\n      0x0100\n      exp\n      dup2\n      sload\n      dup2\n      0xffffffffffffffffffffffffffffffffffffffff\n      mul\n      not\n      and\n      swap1\n      dup4\n      0xffffffffffffffffffffffffffffffffffffffff\n      and\n      mul\n      or\n      swap1\n      sstore\n      pop\n        /* \"Campaign.sol\":2308:2313  false */\n      0x00\n        /* \"Campaign.sol\":2286:2293  request */\n      dup2\n        /* \"Campaign.sol\":2286:2305  request.isCompleted */\n      0x02\n      add\n      0x14\n        /* \"Campaign.sol\":2286:2313  request.isCompleted = false */\n      0x0100\n      exp\n      dup2\n      sload\n      dup2\n      0xff\n      mul\n      not\n      and\n      swap1\n      dup4\n      iszero\n      iszero\n      mul\n      or\n      swap1\n      sstore\n      pop\n        /* \"Campaign.sol\":2344:2345  0 */\n      0x00\n        /* \"Campaign.sol\":2324:2331  request */\n      dup2\n        /* \"Campaign.sol\":2324:2341  request.approvals */\n      0x04\n      add\n        /* \"Campaign.sol\":2324:2345  request.approvals = 0 */\n      dup2\n      swap1\n      sstore\n      pop\n        /* \"Campaign.sol\":1966:2353  {... */\n      pop\n        /* \"Campaign.sol\":1825:2353  function createRequest(... */\n      pop\n      pop\n      pop\n      jump\t// out\n        /* \"Campaign.sol\":961:992  uint public minimumContribution */\n    tag_68:\n      sload(0x02)\n      dup2\n      jump\t// out\n        /* \"Campaign.sol\":1443:1817  function contribute() public payable {... */\n    tag_71:\n        /* \"Campaign.sol\":1526:1545  minimumContribution */\n      sload(0x02)\n        /* \"Campaign.sol\":1513:1522  msg.value */\n      callvalue\n        /* \"Campaign.sol\":1513:1545  msg.value >= minimumContribution */\n      lt\n      iszero\n        /* \"Campaign.sol\":1491:1615  require(... */\n      tag_129\n      jumpi\n      mload(0x40)\n      0x08c379a000000000000000000000000000000000000000000000000000000000\n      dup2\n      mstore\n      0x04\n      add\n      tag_130\n      swap1\n      tag_131\n      jump\t// in\n    tag_130:\n      mload(0x40)\n      dup1\n      swap2\n      sub\n      swap1\n      revert\n    tag_129:\n        /* \"Campaign.sol\":1649:1658  approvers */\n      0x03\n        /* \"Campaign.sol\":1649:1670  approvers[msg.sender] */\n      0x00\n        /* \"Campaign.sol\":1659:1669  msg.sender */\n      caller\n        /* \"Campaign.sol\":1649:1670  approvers[msg.sender] */\n      0xffffffffffffffffffffffffffffffffffffffff\n      and\n      0xffffffffffffffffffffffffffffffffffffffff\n      and\n      dup2\n      mstore\n      0x20\n      add\n      swap1\n      dup2\n      mstore\n      0x20\n      add\n      0x00\n      keccak256\n      0x00\n      swap1\n      sload\n      swap1\n      0x0100\n      exp\n      swap1\n      div\n      0xff\n      and\n        /* \"Campaign.sol\":1648:1670  !approvers[msg.sender] */\n      iszero\n        /* \"Campaign.sol\":1626:1741  require(... */\n      tag_132\n      jumpi\n      mload(0x40)\n      0x08c379a000000000000000000000000000000000000000000000000000000000\n      dup2\n      mstore\n      0x04\n      add\n      tag_133\n      swap1\n      tag_134\n      jump\t// in\n    tag_133:\n      mload(0x40)\n      dup1\n      swap2\n      sub\n      swap1\n      revert\n    tag_132:\n        /* \"Campaign.sol\":1778:1782  true */\n      0x01\n        /* \"Campaign.sol\":1754:1763  approvers */\n      0x03\n        /* \"Campaign.sol\":1754:1775  approvers[msg.sender] */\n      0x00\n        /* \"Campaign.sol\":1764:1774  msg.sender */\n      caller\n        /* \"Campaign.sol\":1754:1775  approvers[msg.sender] */\n      0xffffffffffffffffffffffffffffffffffffffff\n      and\n      0xffffffffffffffffffffffffffffffffffffffff\n      and\n      dup2\n      mstore\n      0x20\n      add\n      swap1\n      dup2\n      mstore\n      0x20\n      add\n      0x00\n      keccak256\n      0x00\n        /* \"Campaign.sol\":1754:1782  approvers[msg.sender] = true */\n      0x0100\n      exp\n      dup2\n      sload\n      dup2\n      0xff\n      mul\n      not\n      and\n      swap1\n      dup4\n      iszero\n      iszero\n      mul\n      or\n      swap1\n      sstore\n      pop\n        /* \"Campaign.sol\":1793:1807  approversCount */\n      0x04\n      0x00\n        /* \"Campaign.sol\":1793:1809  approversCount++ */\n      dup2\n      sload\n      dup1\n      swap3\n      swap2\n      swap1\n      tag_135\n      swap1\n      tag_109\n      jump\t// in\n    tag_135:\n      swap2\n      swap1\n      pop\n      sstore\n      pop\n        /* \"Campaign.sol\":1443:1817  function contribute() public payable {... */\n      jump\t// out\n    tag_94:\n      mload(0x40)\n      dup1\n      0xa0\n      add\n      0x40\n      mstore\n      dup1\n      0x00\n      dup2\n      mstore\n      0x20\n      add\n      0x00\n      dup2\n      mstore\n      0x20\n      add\n      0x00\n      dup2\n      mstore\n      0x20\n      add\n      0x00\n      dup2\n      mstore\n      0x20\n      add\n      and(0xffffffffffffffffffffffffffffffffffffffff, 0x00)\n      dup2\n      mstore\n      pop\n      swap1\n      jump\t// out\n        /* \"#utility.yul\":7:82   */\n    tag_136:\n        /* \"#utility.yul\":40:46   */\n      0x00\n        /* \"#utility.yul\":73:75   */\n      0x40\n        /* \"#utility.yul\":67:76   */\n      mload\n        /* \"#utility.yul\":57:76   */\n      swap1\n      pop\n        /* \"#utility.yul\":7:82   */\n      swap1\n      jump\t// out\n        /* \"#utility.yul\":88:205   */\n    tag_137:\n        /* \"#utility.yul\":197:198   */\n      0x00\n        /* \"#utility.yul\":194:195   */\n      dup1\n        /* \"#utility.yul\":187:199   */\n      revert\n        /* \"#utility.yul\":211:328   */\n    tag_138:\n        /* \"#utility.yul\":320:321   */\n      0x00\n        /* \"#utility.yul\":317:318   */\n      dup1\n        /* \"#utility.yul\":310:322   */\n      revert\n        /* \"#utility.yul\":334:411   */\n    tag_139:\n        /* \"#utility.yul\":371:378   */\n      0x00\n        /* \"#utility.yul\":400:405   */\n      dup2\n        /* \"#utility.yul\":389:405   */\n      swap1\n      pop\n        /* \"#utility.yul\":334:411   */\n      swap2\n      swap1\n      pop\n      jump\t// out\n        /* \"#utility.yul\":417:539   */\n    tag_140:\n        /* \"#utility.yul\":490:514   */\n      tag_213\n        /* \"#utility.yul\":508:513   */\n      dup2\n        /* \"#utility.yul\":490:514   */\n      tag_139\n      jump\t// in\n    tag_213:\n        /* \"#utility.yul\":483:488   */\n      dup2\n        /* \"#utility.yul\":480:515   */\n      eq\n        /* \"#utility.yul\":470:533   */\n      tag_214\n      jumpi\n        /* \"#utility.yul\":529:530   */\n      0x00\n        /* \"#utility.yul\":526:527   */\n      dup1\n        /* \"#utility.yul\":519:531   */\n      revert\n        /* \"#utility.yul\":470:533   */\n    tag_214:\n        /* \"#utility.yul\":417:539   */\n      pop\n      jump\t// out\n        /* \"#utility.yul\":545:684   */\n    tag_141:\n        /* \"#utility.yul\":591:596   */\n      0x00\n        /* \"#utility.yul\":629:635   */\n      dup2\n        /* \"#utility.yul\":616:636   */\n      calldataload\n        /* \"#utility.yul\":607:636   */\n      swap1\n      pop\n        /* \"#utility.yul\":645:678   */\n      tag_216\n        /* \"#utility.yul\":672:677   */\n      dup2\n        /* \"#utility.yul\":645:678   */\n      tag_140\n      jump\t// in\n    tag_216:\n        /* \"#utility.yul\":545:684   */\n      swap3\n      swap2\n      pop\n      pop\n      jump\t// out\n        /* \"#utility.yul\":690:1019   */\n    tag_18:\n        /* \"#utility.yul\":749:755   */\n      0x00\n        /* \"#utility.yul\":798:800   */\n      0x20\n        /* \"#utility.yul\":786:795   */\n      dup3\n        /* \"#utility.yul\":777:784   */\n      dup5\n        /* \"#utility.yul\":773:796   */\n      sub\n        /* \"#utility.yul\":769:801   */\n      slt\n        /* \"#utility.yul\":766:885   */\n      iszero\n      tag_218\n      jumpi\n        /* \"#utility.yul\":804:883   */\n      tag_219\n      tag_137\n      jump\t// in\n    tag_219:\n        /* \"#utility.yul\":766:885   */\n    tag_218:\n        /* \"#utility.yul\":924:925   */\n      0x00\n        /* \"#utility.yul\":949:1002   */\n      tag_220\n        /* \"#utility.yul\":994:1001   */\n      dup5\n        /* \"#utility.yul\":985:991   */\n      dup3\n        /* \"#utility.yul\":974:983   */\n      dup6\n        /* \"#utility.yul\":970:992   */\n      add\n        /* \"#utility.yul\":949:1002   */\n      tag_141\n      jump\t// in\n    tag_220:\n        /* \"#utility.yul\":939:1002   */\n      swap2\n      pop\n        /* \"#utility.yul\":895:1012   */\n      pop\n        /* \"#utility.yul\":690:1019   */\n      swap3\n      swap2\n      pop\n      pop\n      jump\t// out\n        /* \"#utility.yul\":1025:1151   */\n    tag_142:\n        /* \"#utility.yul\":1062:1069   */\n      0x00\n        /* \"#utility.yul\":1102:1144   */\n      0xffffffffffffffffffffffffffffffffffffffff\n        /* \"#utility.yul\":1095:1100   */\n      dup3\n        /* \"#utility.yul\":1091:1145   */\n      and\n        /* \"#utility.yul\":1080:1145   */\n      swap1\n      pop\n        /* \"#utility.yul\":1025:1151   */\n      swap2\n      swap1\n      pop\n      jump\t// out\n        /* \"#utility.yul\":1157:1253   */\n    tag_143:\n        /* \"#utility.yul\":1194:1201   */\n      0x00\n        /* \"#utility.yul\":1223:1247   */\n      tag_223\n        /* \"#utility.yul\":1241:1246   */\n      dup3\n        /* \"#utility.yul\":1223:1247   */\n      tag_142\n      jump\t// in\n    tag_223:\n        /* \"#utility.yul\":1212:1247   */\n      swap1\n      pop\n        /* \"#utility.yul\":1157:1253   */\n      swap2\n      swap1\n      pop\n      jump\t// out\n        /* \"#utility.yul\":1259:1381   */\n    tag_144:\n        /* \"#utility.yul\":1332:1356   */\n      tag_225\n        /* \"#utility.yul\":1350:1355   */\n      dup2\n        /* \"#utility.yul\":1332:1356   */\n      tag_143\n      jump\t// in\n    tag_225:\n        /* \"#utility.yul\":1325:1330   */\n      dup2\n        /* \"#utility.yul\":1322:1357   */\n      eq\n        /* \"#utility.yul\":1312:1375   */\n      tag_226\n      jumpi\n        /* \"#utility.yul\":1371:1372   */\n      0x00\n        /* \"#utility.yul\":1368:1369   */\n      dup1\n        /* \"#utility.yul\":1361:1373   */\n      revert\n        /* \"#utility.yul\":1312:1375   */\n    tag_226:\n        /* \"#utility.yul\":1259:1381   */\n      pop\n      jump\t// out\n        /* \"#utility.yul\":1387:1526   */\n    tag_145:\n        /* \"#utility.yul\":1433:1438   */\n      0x00\n        /* \"#utility.yul\":1471:1477   */\n      dup2\n        /* \"#utility.yul\":1458:1478   */\n      calldataload\n        /* \"#utility.yul\":1449:1478   */\n      swap1\n      pop\n        /* \"#utility.yul\":1487:1520   */\n      tag_228\n        /* \"#utility.yul\":1514:1519   */\n      dup2\n        /* \"#utility.yul\":1487:1520   */\n      tag_144\n      jump\t// in\n    tag_228:\n        /* \"#utility.yul\":1387:1526   */\n      swap3\n      swap2\n      pop\n      pop\n      jump\t// out\n        /* \"#utility.yul\":1532:1861   */\n    tag_23:\n        /* \"#utility.yul\":1591:1597   */\n      0x00\n        /* \"#utility.yul\":1640:1642   */\n      0x20\n        /* \"#utility.yul\":1628:1637   */\n      dup3\n        /* \"#utility.yul\":1619:1626   */\n      dup5\n        /* \"#utility.yul\":1615:1638   */\n      sub\n        /* \"#utility.yul\":1611:1643   */\n      slt\n        /* \"#utility.yul\":1608:1727   */\n      iszero\n      tag_230\n      jumpi\n        /* \"#utility.yul\":1646:1725   */\n      tag_231\n      tag_137\n      jump\t// in\n    tag_231:\n        /* \"#utility.yul\":1608:1727   */\n    tag_230:\n        /* \"#utility.yul\":1766:1767   */\n      0x00\n        /* \"#utility.yul\":1791:1844   */\n      tag_232\n        /* \"#utility.yul\":1836:1843   */\n      dup5\n        /* \"#utility.yul\":1827:1833   */\n      dup3\n        /* \"#utility.yul\":1816:1825   */\n      dup6\n        /* \"#utility.yul\":1812:1834   */\n      add\n        /* \"#utility.yul\":1791:1844   */\n      tag_145\n      jump\t// in\n    tag_232:\n        /* \"#utility.yul\":1781:1844   */\n      swap2\n      pop\n        /* \"#utility.yul\":1737:1854   */\n      pop\n        /* \"#utility.yul\":1532:1861   */\n      swap3\n      swap2\n      pop\n      pop\n      jump\t// out\n        /* \"#utility.yul\":1867:1957   */\n    tag_146:\n        /* \"#utility.yul\":1901:1908   */\n      0x00\n        /* \"#utility.yul\":1944:1949   */\n      dup2\n        /* \"#utility.yul\":1937:1950   */\n      iszero\n        /* \"#utility.yul\":1930:1951   */\n      iszero\n        /* \"#utility.yul\":1919:1951   */\n      swap1\n      pop\n        /* \"#utility.yul\":1867:1957   */\n      swap2\n      swap1\n      pop\n      jump\t// out\n        /* \"#utility.yul\":1963:2072   */\n    tag_147:\n        /* \"#utility.yul\":2044:2065   */\n      tag_235\n        /* \"#utility.yul\":2059:2064   */\n      dup2\n        /* \"#utility.yul\":2044:2065   */\n      tag_146\n      jump\t// in\n    tag_235:\n        /* \"#utility.yul\":2039:2042   */\n      dup3\n        /* \"#utility.yul\":2032:2066   */\n      mstore\n        /* \"#utility.yul\":1963:2072   */\n      pop\n      pop\n      jump\t// out\n        /* \"#utility.yul\":2078:2288   */\n    tag_26:\n        /* \"#utility.yul\":2165:2169   */\n      0x00\n        /* \"#utility.yul\":2203:2205   */\n      0x20\n        /* \"#utility.yul\":2192:2201   */\n      dup3\n        /* \"#utility.yul\":2188:2206   */\n      add\n        /* \"#utility.yul\":2180:2206   */\n      swap1\n      pop\n        /* \"#utility.yul\":2216:2281   */\n      tag_237\n        /* \"#utility.yul\":2278:2279   */\n      0x00\n        /* \"#utility.yul\":2267:2276   */\n      dup4\n        /* \"#utility.yul\":2263:2280   */\n      add\n        /* \"#utility.yul\":2254:2260   */\n      dup5\n        /* \"#utility.yul\":2216:2281   */\n      tag_147\n      jump\t// in\n    tag_237:\n        /* \"#utility.yul\":2078:2288   */\n      swap3\n      swap2\n      pop\n      pop\n      jump\t// out\n        /* \"#utility.yul\":2294:2412   */\n    tag_148:\n        /* \"#utility.yul\":2381:2405   */\n      tag_239\n        /* \"#utility.yul\":2399:2404   */\n      dup2\n        /* \"#utility.yul\":2381:2405   */\n      tag_139\n      jump\t// in\n    tag_239:\n        /* \"#utility.yul\":2376:2379   */\n      dup3\n        /* \"#utility.yul\":2369:2406   */\n      mstore\n        /* \"#utility.yul\":2294:2412   */\n      pop\n      pop\n      jump\t// out\n        /* \"#utility.yul\":2418:2640   */\n    tag_31:\n        /* \"#utility.yul\":2511:2515   */\n      0x00\n        /* \"#utility.yul\":2549:2551   */\n      0x20\n        /* \"#utility.yul\":2538:2547   */\n      dup3\n        /* \"#utility.yul\":2534:2552   */\n      add\n        /* \"#utility.yul\":2526:2552   */\n      swap1\n      pop\n        /* \"#utility.yul\":2562:2633   */\n      tag_241\n        /* \"#utility.yul\":2630:2631   */\n      0x00\n        /* \"#utility.yul\":2619:2628   */\n      dup4\n        /* \"#utility.yul\":2615:2632   */\n      add\n        /* \"#utility.yul\":2606:2612   */\n      dup5\n        /* \"#utility.yul\":2562:2633   */\n      tag_148\n      jump\t// in\n    tag_241:\n        /* \"#utility.yul\":2418:2640   */\n      swap3\n      swap2\n      pop\n      pop\n      jump\t// out\n        /* \"#utility.yul\":2646:2754   */\n    tag_149:\n        /* \"#utility.yul\":2723:2747   */\n      tag_243\n        /* \"#utility.yul\":2741:2746   */\n      dup2\n        /* \"#utility.yul\":2723:2747   */\n      tag_139\n      jump\t// in\n    tag_243:\n        /* \"#utility.yul\":2718:2721   */\n      dup3\n        /* \"#utility.yul\":2711:2748   */\n      mstore\n        /* \"#utility.yul\":2646:2754   */\n      pop\n      pop\n      jump\t// out\n        /* \"#utility.yul\":2760:2868   */\n    tag_150:\n        /* \"#utility.yul\":2837:2861   */\n      tag_245\n        /* \"#utility.yul\":2855:2860   */\n      dup2\n        /* \"#utility.yul\":2837:2861   */\n      tag_143\n      jump\t// in\n    tag_245:\n        /* \"#utility.yul\":2832:2835   */\n      dup3\n        /* \"#utility.yul\":2825:2862   */\n      mstore\n        /* \"#utility.yul\":2760:2868   */\n      pop\n      pop\n      jump\t// out\n        /* \"#utility.yul\":2932:3997   */\n    tag_151:\n        /* \"#utility.yul\":3075:3079   */\n      0xa0\n        /* \"#utility.yul\":3070:3073   */\n      dup3\n        /* \"#utility.yul\":3066:3080   */\n      add\n        /* \"#utility.yul\":3177:3181   */\n      0x00\n        /* \"#utility.yul\":3170:3175   */\n      dup3\n        /* \"#utility.yul\":3166:3182   */\n      add\n        /* \"#utility.yul\":3160:3183   */\n      mload\n        /* \"#utility.yul\":3196:3259   */\n      tag_247\n        /* \"#utility.yul\":3253:3257   */\n      0x00\n        /* \"#utility.yul\":3248:3251   */\n      dup6\n        /* \"#utility.yul\":3244:3258   */\n      add\n        /* \"#utility.yul\":3230:3242   */\n      dup3\n        /* \"#utility.yul\":3196:3259   */\n      tag_149\n      jump\t// in\n    tag_247:\n        /* \"#utility.yul\":3090:3269   */\n      pop\n        /* \"#utility.yul\":3354:3358   */\n      0x20\n        /* \"#utility.yul\":3347:3352   */\n      dup3\n        /* \"#utility.yul\":3343:3359   */\n      add\n        /* \"#utility.yul\":3337:3360   */\n      mload\n        /* \"#utility.yul\":3373:3436   */\n      tag_248\n        /* \"#utility.yul\":3430:3434   */\n      0x20\n        /* \"#utility.yul\":3425:3428   */\n      dup6\n        /* \"#utility.yul\":3421:3435   */\n      add\n        /* \"#utility.yul\":3407:3419   */\n      dup3\n        /* \"#utility.yul\":3373:3436   */\n      tag_149\n      jump\t// in\n    tag_248:\n        /* \"#utility.yul\":3279:3446   */\n      pop\n        /* \"#utility.yul\":3537:3541   */\n      0x40\n        /* \"#utility.yul\":3530:3535   */\n      dup3\n        /* \"#utility.yul\":3526:3542   */\n      add\n        /* \"#utility.yul\":3520:3543   */\n      mload\n        /* \"#utility.yul\":3556:3619   */\n      tag_249\n        /* \"#utility.yul\":3613:3617   */\n      0x40\n        /* \"#utility.yul\":3608:3611   */\n      dup6\n        /* \"#utility.yul\":3604:3618   */\n      add\n        /* \"#utility.yul\":3590:3602   */\n      dup3\n        /* \"#utility.yul\":3556:3619   */\n      tag_149\n      jump\t// in\n    tag_249:\n        /* \"#utility.yul\":3456:3629   */\n      pop\n        /* \"#utility.yul\":3721:3725   */\n      0x60\n        /* \"#utility.yul\":3714:3719   */\n      dup3\n        /* \"#utility.yul\":3710:3726   */\n      add\n        /* \"#utility.yul\":3704:3727   */\n      mload\n        /* \"#utility.yul\":3740:3803   */\n      tag_250\n        /* \"#utility.yul\":3797:3801   */\n      0x60\n        /* \"#utility.yul\":3792:3795   */\n      dup6\n        /* \"#utility.yul\":3788:3802   */\n      add\n        /* \"#utility.yul\":3774:3786   */\n      dup3\n        /* \"#utility.yul\":3740:3803   */\n      tag_149\n      jump\t// in\n    tag_250:\n        /* \"#utility.yul\":3639:3813   */\n      pop\n        /* \"#utility.yul\":3898:3902   */\n      0x80\n        /* \"#utility.yul\":3891:3896   */\n      dup3\n        /* \"#utility.yul\":3887:3903   */\n      add\n        /* \"#utility.yul\":3881:3904   */\n      mload\n        /* \"#utility.yul\":3917:3980   */\n      tag_251\n        /* \"#utility.yul\":3974:3978   */\n      0x80\n        /* \"#utility.yul\":3969:3972   */\n      dup6\n        /* \"#utility.yul\":3965:3979   */\n      add\n        /* \"#utility.yul\":3951:3963   */\n      dup3\n        /* \"#utility.yul\":3917:3980   */\n      tag_150\n      jump\t// in\n    tag_251:\n        /* \"#utility.yul\":3823:3990   */\n      pop\n        /* \"#utility.yul\":3044:3997   */\n      pop\n        /* \"#utility.yul\":2932:3997   */\n      pop\n      pop\n      jump\t// out\n        /* \"#utility.yul\":4003:4318   */\n    tag_40:\n        /* \"#utility.yul\":4142:4146   */\n      0x00\n        /* \"#utility.yul\":4180:4183   */\n      0xa0\n        /* \"#utility.yul\":4169:4178   */\n      dup3\n        /* \"#utility.yul\":4165:4184   */\n      add\n        /* \"#utility.yul\":4157:4184   */\n      swap1\n      pop\n        /* \"#utility.yul\":4194:4311   */\n      tag_253\n        /* \"#utility.yul\":4308:4309   */\n      0x00\n        /* \"#utility.yul\":4297:4306   */\n      dup4\n        /* \"#utility.yul\":4293:4310   */\n      add\n        /* \"#utility.yul\":4284:4290   */\n      dup5\n        /* \"#utility.yul\":4194:4311   */\n      tag_151\n      jump\t// in\n    tag_253:\n        /* \"#utility.yul\":4003:4318   */\n      swap3\n      swap2\n      pop\n      pop\n      jump\t// out\n        /* \"#utility.yul\":4324:4442   */\n    tag_152:\n        /* \"#utility.yul\":4411:4435   */\n      tag_255\n        /* \"#utility.yul\":4429:4434   */\n      dup2\n        /* \"#utility.yul\":4411:4435   */\n      tag_143\n      jump\t// in\n    tag_255:\n        /* \"#utility.yul\":4406:4409   */\n      dup3\n        /* \"#utility.yul\":4399:4436   */\n      mstore\n        /* \"#utility.yul\":4324:4442   */\n      pop\n      pop\n      jump\t// out\n        /* \"#utility.yul\":4448:4670   */\n    tag_45:\n        /* \"#utility.yul\":4541:4545   */\n      0x00\n        /* \"#utility.yul\":4579:4581   */\n      0x20\n        /* \"#utility.yul\":4568:4577   */\n      dup3\n        /* \"#utility.yul\":4564:4582   */\n      add\n        /* \"#utility.yul\":4556:4582   */\n      swap1\n      pop\n        /* \"#utility.yul\":4592:4663   */\n      tag_257\n        /* \"#utility.yul\":4660:4661   */\n      0x00\n        /* \"#utility.yul\":4649:4658   */\n      dup4\n        /* \"#utility.yul\":4645:4662   */\n      add\n        /* \"#utility.yul\":4636:4642   */\n      dup5\n        /* \"#utility.yul\":4592:4663   */\n      tag_152\n      jump\t// in\n    tag_257:\n        /* \"#utility.yul\":4448:4670   */\n      swap3\n      swap2\n      pop\n      pop\n      jump\t// out\n        /* \"#utility.yul\":4676:4792   */\n    tag_153:\n        /* \"#utility.yul\":4746:4767   */\n      tag_259\n        /* \"#utility.yul\":4761:4766   */\n      dup2\n        /* \"#utility.yul\":4746:4767   */\n      tag_146\n      jump\t// in\n    tag_259:\n        /* \"#utility.yul\":4739:4744   */\n      dup2\n        /* \"#utility.yul\":4736:4768   */\n      eq\n        /* \"#utility.yul\":4726:4786   */\n      tag_260\n      jumpi\n        /* \"#utility.yul\":4782:4783   */\n      0x00\n        /* \"#utility.yul\":4779:4780   */\n      dup1\n        /* \"#utility.yul\":4772:4784   */\n      revert\n        /* \"#utility.yul\":4726:4786   */\n    tag_260:\n        /* \"#utility.yul\":4676:4792   */\n      pop\n      jump\t// out\n        /* \"#utility.yul\":4798:4931   */\n    tag_154:\n        /* \"#utility.yul\":4841:4846   */\n      0x00\n        /* \"#utility.yul\":4879:4885   */\n      dup2\n        /* \"#utility.yul\":4866:4886   */\n      calldataload\n        /* \"#utility.yul\":4857:4886   */\n      swap1\n      pop\n        /* \"#utility.yul\":4895:4925   */\n      tag_262\n        /* \"#utility.yul\":4919:4924   */\n      dup2\n        /* \"#utility.yul\":4895:4925   */\n      tag_153\n      jump\t// in\n    tag_262:\n        /* \"#utility.yul\":4798:4931   */\n      swap3\n      swap2\n      pop\n      pop\n      jump\t// out\n        /* \"#utility.yul\":4937:5405   */\n    tag_49:\n        /* \"#utility.yul\":5002:5008   */\n      0x00\n        /* \"#utility.yul\":5010:5016   */\n      dup1\n        /* \"#utility.yul\":5059:5061   */\n      0x40\n        /* \"#utility.yul\":5047:5056   */\n      dup4\n        /* \"#utility.yul\":5038:5045   */\n      dup6\n        /* \"#utility.yul\":5034:5057   */\n      sub\n        /* \"#utility.yul\":5030:5062   */\n      slt\n        /* \"#utility.yul\":5027:5146   */\n      iszero\n      tag_264\n      jumpi\n        /* \"#utility.yul\":5065:5144   */\n      tag_265\n      tag_137\n      jump\t// in\n    tag_265:\n        /* \"#utility.yul\":5027:5146   */\n    tag_264:\n        /* \"#utility.yul\":5185:5186   */\n      0x00\n        /* \"#utility.yul\":5210:5263   */\n      tag_266\n        /* \"#utility.yul\":5255:5262   */\n      dup6\n        /* \"#utility.yul\":5246:5252   */\n      dup3\n        /* \"#utility.yul\":5235:5244   */\n      dup7\n        /* \"#utility.yul\":5231:5253   */\n      add\n        /* \"#utility.yul\":5210:5263   */\n      tag_141\n      jump\t// in\n    tag_266:\n        /* \"#utility.yul\":5200:5263   */\n      swap3\n      pop\n        /* \"#utility.yul\":5156:5273   */\n      pop\n        /* \"#utility.yul\":5312:5314   */\n      0x20\n        /* \"#utility.yul\":5338:5388   */\n      tag_267\n        /* \"#utility.yul\":5380:5387   */\n      dup6\n        /* \"#utility.yul\":5371:5377   */\n      dup3\n        /* \"#utility.yul\":5360:5369   */\n      dup7\n        /* \"#utility.yul\":5356:5378   */\n      add\n        /* \"#utility.yul\":5338:5388   */\n      tag_154\n      jump\t// in\n    tag_267:\n        /* \"#utility.yul\":5328:5388   */\n      swap2\n      pop\n        /* \"#utility.yul\":5283:5398   */\n      pop\n        /* \"#utility.yul\":4937:5405   */\n      swap3\n      pop\n      swap3\n      swap1\n      pop\n      jump\t// out\n        /* \"#utility.yul\":5411:5510   */\n    tag_155:\n        /* \"#utility.yul\":5463:5469   */\n      0x00\n        /* \"#utility.yul\":5497:5502   */\n      dup2\n        /* \"#utility.yul\":5491:5503   */\n      mload\n        /* \"#utility.yul\":5481:5503   */\n      swap1\n      pop\n        /* \"#utility.yul\":5411:5510   */\n      swap2\n      swap1\n      pop\n      jump\t// out\n        /* \"#utility.yul\":5516:5685   */\n    tag_156:\n        /* \"#utility.yul\":5600:5611   */\n      0x00\n        /* \"#utility.yul\":5634:5640   */\n      dup3\n        /* \"#utility.yul\":5629:5632   */\n      dup3\n        /* \"#utility.yul\":5622:5641   */\n      mstore\n        /* \"#utility.yul\":5674:5678   */\n      0x20\n        /* \"#utility.yul\":5669:5672   */\n      dup3\n        /* \"#utility.yul\":5665:5679   */\n      add\n        /* \"#utility.yul\":5650:5679   */\n      swap1\n      pop\n        /* \"#utility.yul\":5516:5685   */\n      swap3\n      swap2\n      pop\n      pop\n      jump\t// out\n        /* \"#utility.yul\":5691:5937   */\n    tag_157:\n        /* \"#utility.yul\":5772:5773   */\n      0x00\n        /* \"#utility.yul\":5782:5895   */\n    tag_271:\n        /* \"#utility.yul\":5796:5802   */\n      dup4\n        /* \"#utility.yul\":5793:5794   */\n      dup2\n        /* \"#utility.yul\":5790:5803   */\n      lt\n        /* \"#utility.yul\":5782:5895   */\n      iszero\n      tag_273\n      jumpi\n        /* \"#utility.yul\":5881:5882   */\n      dup1\n        /* \"#utility.yul\":5876:5879   */\n      dup3\n        /* \"#utility.yul\":5872:5883   */\n      add\n        /* \"#utility.yul\":5866:5884   */\n      mload\n        /* \"#utility.yul\":5862:5863   */\n      dup2\n        /* \"#utility.yul\":5857:5860   */\n      dup5\n        /* \"#utility.yul\":5853:5864   */\n      add\n        /* \"#utility.yul\":5846:5885   */\n      mstore\n        /* \"#utility.yul\":5818:5820   */\n      0x20\n        /* \"#utility.yul\":5815:5816   */\n      dup2\n        /* \"#utility.yul\":5811:5821   */\n      add\n        /* \"#utility.yul\":5806:5821   */\n      swap1\n      pop\n        /* \"#utility.yul\":5782:5895   */\n      jump(tag_271)\n    tag_273:\n        /* \"#utility.yul\":5929:5930   */\n      0x00\n        /* \"#utility.yul\":5920:5926   */\n      dup5\n        /* \"#utility.yul\":5915:5918   */\n      dup5\n        /* \"#utility.yul\":5911:5927   */\n      add\n        /* \"#utility.yul\":5904:5931   */\n      mstore\n        /* \"#utility.yul\":5753:5937   */\n      pop\n        /* \"#utility.yul\":5691:5937   */\n      pop\n      pop\n      pop\n      jump\t// out\n        /* \"#utility.yul\":5943:6045   */\n    tag_158:\n        /* \"#utility.yul\":5984:5990   */\n      0x00\n        /* \"#utility.yul\":6035:6037   */\n      0x1f\n        /* \"#utility.yul\":6031:6038   */\n      not\n        /* \"#utility.yul\":6026:6028   */\n      0x1f\n        /* \"#utility.yul\":6019:6024   */\n      dup4\n        /* \"#utility.yul\":6015:6029   */\n      add\n        /* \"#utility.yul\":6011:6039   */\n      and\n        /* \"#utility.yul\":6001:6039   */\n      swap1\n      pop\n        /* \"#utility.yul\":5943:6045   */\n      swap2\n      swap1\n      pop\n      jump\t// out\n        /* \"#utility.yul\":6051:6428   */\n    tag_159:\n        /* \"#utility.yul\":6139:6142   */\n      0x00\n        /* \"#utility.yul\":6167:6206   */\n      tag_276\n        /* \"#utility.yul\":6200:6205   */\n      dup3\n        /* \"#utility.yul\":6167:6206   */\n      tag_155\n      jump\t// in\n    tag_276:\n        /* \"#utility.yul\":6222:6293   */\n      tag_277\n        /* \"#utility.yul\":6286:6292   */\n      dup2\n        /* \"#utility.yul\":6281:6284   */\n      dup6\n        /* \"#utility.yul\":6222:6293   */\n      tag_156\n      jump\t// in\n    tag_277:\n        /* \"#utility.yul\":6215:6293   */\n      swap4\n      pop\n        /* \"#utility.yul\":6302:6367   */\n      tag_278\n        /* \"#utility.yul\":6360:6366   */\n      dup2\n        /* \"#utility.yul\":6355:6358   */\n      dup6\n        /* \"#utility.yul\":6348:6352   */\n      0x20\n        /* \"#utility.yul\":6341:6346   */\n      dup7\n        /* \"#utility.yul\":6337:6353   */\n      add\n        /* \"#utility.yul\":6302:6367   */\n      tag_157\n      jump\t// in\n    tag_278:\n        /* \"#utility.yul\":6392:6421   */\n      tag_279\n        /* \"#utility.yul\":6414:6420   */\n      dup2\n        /* \"#utility.yul\":6392:6421   */\n      tag_158\n      jump\t// in\n    tag_279:\n        /* \"#utility.yul\":6387:6390   */\n      dup5\n        /* \"#utility.yul\":6383:6422   */\n      add\n        /* \"#utility.yul\":6376:6422   */\n      swap2\n      pop\n        /* \"#utility.yul\":6143:6428   */\n      pop\n        /* \"#utility.yul\":6051:6428   */\n      swap3\n      swap2\n      pop\n      pop\n      jump\t// out\n        /* \"#utility.yul\":6434:6538   */\n    tag_160:\n        /* \"#utility.yul\":6479:6486   */\n      0x00\n        /* \"#utility.yul\":6508:6532   */\n      tag_281\n        /* \"#utility.yul\":6526:6531   */\n      dup3\n        /* \"#utility.yul\":6508:6532   */\n      tag_142\n      jump\t// in\n    tag_281:\n        /* \"#utility.yul\":6497:6532   */\n      swap1\n      pop\n        /* \"#utility.yul\":6434:6538   */\n      swap2\n      swap1\n      pop\n      jump\t// out\n        /* \"#utility.yul\":6544:6686   */\n    tag_161:\n        /* \"#utility.yul\":6647:6679   */\n      tag_283\n        /* \"#utility.yul\":6673:6678   */\n      dup2\n        /* \"#utility.yul\":6647:6679   */\n      tag_160\n      jump\t// in\n    tag_283:\n        /* \"#utility.yul\":6642:6645   */\n      dup3\n        /* \"#utility.yul\":6635:6680   */\n      mstore\n        /* \"#utility.yul\":6544:6686   */\n      pop\n      pop\n      jump\t// out\n        /* \"#utility.yul\":6692:7467   */\n    tag_56:\n        /* \"#utility.yul\":6927:6931   */\n      0x00\n        /* \"#utility.yul\":6965:6968   */\n      0xa0\n        /* \"#utility.yul\":6954:6963   */\n      dup3\n        /* \"#utility.yul\":6950:6969   */\n      add\n        /* \"#utility.yul\":6942:6969   */\n      swap1\n      pop\n        /* \"#utility.yul\":7015:7024   */\n      dup2\n        /* \"#utility.yul\":7009:7013   */\n      dup2\n        /* \"#utility.yul\":7005:7025   */\n      sub\n        /* \"#utility.yul\":7001:7002   */\n      0x00\n        /* \"#utility.yul\":6990:6999   */\n      dup4\n        /* \"#utility.yul\":6986:7003   */\n      add\n        /* \"#utility.yul\":6979:7026   */\n      mstore\n        /* \"#utility.yul\":7043:7121   */\n      tag_285\n        /* \"#utility.yul\":7116:7120   */\n      dup2\n        /* \"#utility.yul\":7107:7113   */\n      dup9\n        /* \"#utility.yul\":7043:7121   */\n      tag_159\n      jump\t// in\n    tag_285:\n        /* \"#utility.yul\":7035:7121   */\n      swap1\n      pop\n        /* \"#utility.yul\":7131:7203   */\n      tag_286\n        /* \"#utility.yul\":7199:7201   */\n      0x20\n        /* \"#utility.yul\":7188:7197   */\n      dup4\n        /* \"#utility.yul\":7184:7202   */\n      add\n        /* \"#utility.yul\":7175:7181   */\n      dup8\n        /* \"#utility.yul\":7131:7203   */\n      tag_148\n      jump\t// in\n    tag_286:\n        /* \"#utility.yul\":7213:7301   */\n      tag_287\n        /* \"#utility.yul\":7297:7299   */\n      0x40\n        /* \"#utility.yul\":7286:7295   */\n      dup4\n        /* \"#utility.yul\":7282:7300   */\n      add\n        /* \"#utility.yul\":7273:7279   */\n      dup7\n        /* \"#utility.yul\":7213:7301   */\n      tag_161\n      jump\t// in\n    tag_287:\n        /* \"#utility.yul\":7311:7377   */\n      tag_288\n        /* \"#utility.yul\":7373:7375   */\n      0x60\n        /* \"#utility.yul\":7362:7371   */\n      dup4\n        /* \"#utility.yul\":7358:7376   */\n      add\n        /* \"#utility.yul\":7349:7355   */\n      dup6\n        /* \"#utility.yul\":7311:7377   */\n      tag_147\n      jump\t// in\n    tag_288:\n        /* \"#utility.yul\":7387:7460   */\n      tag_289\n        /* \"#utility.yul\":7455:7458   */\n      0x80\n        /* \"#utility.yul\":7444:7453   */\n      dup4\n        /* \"#utility.yul\":7440:7459   */\n      add\n        /* \"#utility.yul\":7431:7437   */\n      dup5\n        /* \"#utility.yul\":7387:7460   */\n      tag_148\n      jump\t// in\n    tag_289:\n        /* \"#utility.yul\":6692:7467   */\n      swap7\n      swap6\n      pop\n      pop\n      pop\n      pop\n      pop\n      pop\n      jump\t// out\n        /* \"#utility.yul\":7473:7590   */\n    tag_162:\n        /* \"#utility.yul\":7582:7583   */\n      0x00\n        /* \"#utility.yul\":7579:7580   */\n      dup1\n        /* \"#utility.yul\":7572:7584   */\n      revert\n        /* \"#utility.yul\":7596:7713   */\n    tag_163:\n        /* \"#utility.yul\":7705:7706   */\n      0x00\n        /* \"#utility.yul\":7702:7703   */\n      dup1\n        /* \"#utility.yul\":7695:7707   */\n      revert\n        /* \"#utility.yul\":7719:7899   */\n    tag_164:\n        /* \"#utility.yul\":7767:7844   */\n      0x4e487b7100000000000000000000000000000000000000000000000000000000\n        /* \"#utility.yul\":7764:7765   */\n      0x00\n        /* \"#utility.yul\":7757:7845   */\n      mstore\n        /* \"#utility.yul\":7864:7868   */\n      0x41\n        /* \"#utility.yul\":7861:7862   */\n      0x04\n        /* \"#utility.yul\":7854:7869   */\n      mstore\n        /* \"#utility.yul\":7888:7892   */\n      0x24\n        /* \"#utility.yul\":7885:7886   */\n      0x00\n        /* \"#utility.yul\":7878:7893   */\n      revert\n        /* \"#utility.yul\":7905:8186   */\n    tag_165:\n        /* \"#utility.yul\":7988:8015   */\n      tag_294\n        /* \"#utility.yul\":8010:8014   */\n      dup3\n        /* \"#utility.yul\":7988:8015   */\n      tag_158\n      jump\t// in\n    tag_294:\n        /* \"#utility.yul\":7980:7986   */\n      dup2\n        /* \"#utility.yul\":7976:8016   */\n      add\n        /* \"#utility.yul\":8118:8124   */\n      dup2\n        /* \"#utility.yul\":8106:8116   */\n      dup2\n        /* \"#utility.yul\":8103:8125   */\n      lt\n        /* \"#utility.yul\":8082:8100   */\n      0xffffffffffffffff\n        /* \"#utility.yul\":8070:8080   */\n      dup3\n        /* \"#utility.yul\":8067:8101   */\n      gt\n        /* \"#utility.yul\":8064:8126   */\n      or\n        /* \"#utility.yul\":8061:8149   */\n      iszero\n      tag_295\n      jumpi\n        /* \"#utility.yul\":8129:8147   */\n      tag_296\n      tag_164\n      jump\t// in\n    tag_296:\n        /* \"#utility.yul\":8061:8149   */\n    tag_295:\n        /* \"#utility.yul\":8169:8179   */\n      dup1\n        /* \"#utility.yul\":8165:8167   */\n      0x40\n        /* \"#utility.yul\":8158:8180   */\n      mstore\n        /* \"#utility.yul\":7948:8186   */\n      pop\n        /* \"#utility.yul\":7905:8186   */\n      pop\n      pop\n      jump\t// out\n        /* \"#utility.yul\":8192:8321   */\n    tag_166:\n        /* \"#utility.yul\":8226:8232   */\n      0x00\n        /* \"#utility.yul\":8253:8273   */\n      tag_298\n      tag_136\n      jump\t// in\n    tag_298:\n        /* \"#utility.yul\":8243:8273   */\n      swap1\n      pop\n        /* \"#utility.yul\":8282:8315   */\n      tag_299\n        /* \"#utility.yul\":8310:8314   */\n      dup3\n        /* \"#utility.yul\":8302:8308   */\n      dup3\n        /* \"#utility.yul\":8282:8315   */\n      tag_165\n      jump\t// in\n    tag_299:\n        /* \"#utility.yul\":8192:8321   */\n      swap2\n      swap1\n      pop\n      jump\t// out\n        /* \"#utility.yul\":8327:8635   */\n    tag_167:\n        /* \"#utility.yul\":8389:8393   */\n      0x00\n        /* \"#utility.yul\":8479:8497   */\n      0xffffffffffffffff\n        /* \"#utility.yul\":8471:8477   */\n      dup3\n        /* \"#utility.yul\":8468:8498   */\n      gt\n        /* \"#utility.yul\":8465:8521   */\n      iszero\n      tag_301\n      jumpi\n        /* \"#utility.yul\":8501:8519   */\n      tag_302\n      tag_164\n      jump\t// in\n    tag_302:\n        /* \"#utility.yul\":8465:8521   */\n    tag_301:\n        /* \"#utility.yul\":8539:8568   */\n      tag_303\n        /* \"#utility.yul\":8561:8567   */\n      dup3\n        /* \"#utility.yul\":8539:8568   */\n      tag_158\n      jump\t// in\n    tag_303:\n        /* \"#utility.yul\":8531:8568   */\n      swap1\n      pop\n        /* \"#utility.yul\":8623:8627   */\n      0x20\n        /* \"#utility.yul\":8617:8621   */\n      dup2\n        /* \"#utility.yul\":8613:8628   */\n      add\n        /* \"#utility.yul\":8605:8628   */\n      swap1\n      pop\n        /* \"#utility.yul\":8327:8635   */\n      swap2\n      swap1\n      pop\n      jump\t// out\n        /* \"#utility.yul\":8641:8787   */\n    tag_168:\n        /* \"#utility.yul\":8738:8744   */\n      dup3\n        /* \"#utility.yul\":8733:8736   */\n      dup2\n        /* \"#utility.yul\":8728:8731   */\n      dup4\n        /* \"#utility.yul\":8715:8745   */\n      calldatacopy\n        /* \"#utility.yul\":8779:8780   */\n      0x00\n        /* \"#utility.yul\":8770:8776   */\n      dup4\n        /* \"#utility.yul\":8765:8768   */\n      dup4\n        /* \"#utility.yul\":8761:8777   */\n      add\n        /* \"#utility.yul\":8754:8781   */\n      mstore\n        /* \"#utility.yul\":8641:8787   */\n      pop\n      pop\n      pop\n      jump\t// out\n        /* \"#utility.yul\":8793:9218   */\n    tag_169:\n        /* \"#utility.yul\":8871:8876   */\n      0x00\n        /* \"#utility.yul\":8896:8962   */\n      tag_306\n        /* \"#utility.yul\":8912:8961   */\n      tag_307\n        /* \"#utility.yul\":8954:8960   */\n      dup5\n        /* \"#utility.yul\":8912:8961   */\n      tag_167\n      jump\t// in\n    tag_307:\n        /* \"#utility.yul\":8896:8962   */\n      tag_166\n      jump\t// in\n    tag_306:\n        /* \"#utility.yul\":8887:8962   */\n      swap1\n      pop\n        /* \"#utility.yul\":8985:8991   */\n      dup3\n        /* \"#utility.yul\":8978:8983   */\n      dup2\n        /* \"#utility.yul\":8971:8992   */\n      mstore\n        /* \"#utility.yul\":9023:9027   */\n      0x20\n        /* \"#utility.yul\":9016:9021   */\n      dup2\n        /* \"#utility.yul\":9012:9028   */\n      add\n        /* \"#utility.yul\":9061:9064   */\n      dup5\n        /* \"#utility.yul\":9052:9058   */\n      dup5\n        /* \"#utility.yul\":9047:9050   */\n      dup5\n        /* \"#utility.yul\":9043:9059   */\n      add\n        /* \"#utility.yul\":9040:9065   */\n      gt\n        /* \"#utility.yul\":9037:9149   */\n      iszero\n      tag_308\n      jumpi\n        /* \"#utility.yul\":9068:9147   */\n      tag_309\n      tag_163\n      jump\t// in\n    tag_309:\n        /* \"#utility.yul\":9037:9149   */\n    tag_308:\n        /* \"#utility.yul\":9158:9212   */\n      tag_310\n        /* \"#utility.yul\":9205:9211   */\n      dup5\n        /* \"#utility.yul\":9200:9203   */\n      dup3\n        /* \"#utility.yul\":9195:9198   */\n      dup6\n        /* \"#utility.yul\":9158:9212   */\n      tag_168\n      jump\t// in\n    tag_310:\n        /* \"#utility.yul\":8877:9218   */\n      pop\n        /* \"#utility.yul\":8793:9218   */\n      swap4\n      swap3\n      pop\n      pop\n      pop\n      jump\t// out\n        /* \"#utility.yul\":9238:9578   */\n    tag_170:\n        /* \"#utility.yul\":9294:9299   */\n      0x00\n        /* \"#utility.yul\":9343:9346   */\n      dup3\n        /* \"#utility.yul\":9336:9340   */\n      0x1f\n        /* \"#utility.yul\":9328:9334   */\n      dup4\n        /* \"#utility.yul\":9324:9341   */\n      add\n        /* \"#utility.yul\":9320:9347   */\n      slt\n        /* \"#utility.yul\":9310:9432   */\n      tag_312\n      jumpi\n        /* \"#utility.yul\":9351:9430   */\n      tag_313\n      tag_162\n      jump\t// in\n    tag_313:\n        /* \"#utility.yul\":9310:9432   */\n    tag_312:\n        /* \"#utility.yul\":9468:9474   */\n      dup2\n        /* \"#utility.yul\":9455:9475   */\n      calldataload\n        /* \"#utility.yul\":9493:9572   */\n      tag_314\n        /* \"#utility.yul\":9568:9571   */\n      dup5\n        /* \"#utility.yul\":9560:9566   */\n      dup3\n        /* \"#utility.yul\":9553:9557   */\n      0x20\n        /* \"#utility.yul\":9545:9551   */\n      dup7\n        /* \"#utility.yul\":9541:9558   */\n      add\n        /* \"#utility.yul\":9493:9572   */\n      tag_169\n      jump\t// in\n    tag_314:\n        /* \"#utility.yul\":9484:9572   */\n      swap2\n      pop\n        /* \"#utility.yul\":9300:9578   */\n      pop\n        /* \"#utility.yul\":9238:9578   */\n      swap3\n      swap2\n      pop\n      pop\n      jump\t// out\n        /* \"#utility.yul\":9584:9722   */\n    tag_171:\n        /* \"#utility.yul\":9665:9697   */\n      tag_316\n        /* \"#utility.yul\":9691:9696   */\n      dup2\n        /* \"#utility.yul\":9665:9697   */\n      tag_160\n      jump\t// in\n    tag_316:\n        /* \"#utility.yul\":9658:9663   */\n      dup2\n        /* \"#utility.yul\":9655:9698   */\n      eq\n        /* \"#utility.yul\":9645:9716   */\n      tag_317\n      jumpi\n        /* \"#utility.yul\":9712:9713   */\n      0x00\n        /* \"#utility.yul\":9709:9710   */\n      dup1\n        /* \"#utility.yul\":9702:9714   */\n      revert\n        /* \"#utility.yul\":9645:9716   */\n    tag_317:\n        /* \"#utility.yul\":9584:9722   */\n      pop\n      jump\t// out\n        /* \"#utility.yul\":9728:9883   */\n    tag_172:\n        /* \"#utility.yul\":9782:9787   */\n      0x00\n        /* \"#utility.yul\":9820:9826   */\n      dup2\n        /* \"#utility.yul\":9807:9827   */\n      calldataload\n        /* \"#utility.yul\":9798:9827   */\n      swap1\n      pop\n        /* \"#utility.yul\":9836:9877   */\n      tag_319\n        /* \"#utility.yul\":9871:9876   */\n      dup2\n        /* \"#utility.yul\":9836:9877   */\n      tag_171\n      jump\t// in\n    tag_319:\n        /* \"#utility.yul\":9728:9883   */\n      swap3\n      swap2\n      pop\n      pop\n      jump\t// out\n        /* \"#utility.yul\":9889:10704   */\n    tag_64:\n        /* \"#utility.yul\":9984:9990   */\n      0x00\n        /* \"#utility.yul\":9992:9998   */\n      dup1\n        /* \"#utility.yul\":10000:10006   */\n      0x00\n        /* \"#utility.yul\":10049:10051   */\n      0x60\n        /* \"#utility.yul\":10037:10046   */\n      dup5\n        /* \"#utility.yul\":10028:10035   */\n      dup7\n        /* \"#utility.yul\":10024:10047   */\n      sub\n        /* \"#utility.yul\":10020:10052   */\n      slt\n        /* \"#utility.yul\":10017:10136   */\n      iszero\n      tag_321\n      jumpi\n        /* \"#utility.yul\":10055:10134   */\n      tag_322\n      tag_137\n      jump\t// in\n    tag_322:\n        /* \"#utility.yul\":10017:10136   */\n    tag_321:\n        /* \"#utility.yul\":10203:10204   */\n      0x00\n        /* \"#utility.yul\":10192:10201   */\n      dup5\n        /* \"#utility.yul\":10188:10205   */\n      add\n        /* \"#utility.yul\":10175:10206   */\n      calldataload\n        /* \"#utility.yul\":10233:10251   */\n      0xffffffffffffffff\n        /* \"#utility.yul\":10225:10231   */\n      dup2\n        /* \"#utility.yul\":10222:10252   */\n      gt\n        /* \"#utility.yul\":10219:10336   */\n      iszero\n      tag_323\n      jumpi\n        /* \"#utility.yul\":10255:10334   */\n      tag_324\n      tag_138\n      jump\t// in\n    tag_324:\n        /* \"#utility.yul\":10219:10336   */\n    tag_323:\n        /* \"#utility.yul\":10360:10423   */\n      tag_325\n        /* \"#utility.yul\":10415:10422   */\n      dup7\n        /* \"#utility.yul\":10406:10412   */\n      dup3\n        /* \"#utility.yul\":10395:10404   */\n      dup8\n        /* \"#utility.yul\":10391:10413   */\n      add\n        /* \"#utility.yul\":10360:10423   */\n      tag_170\n      jump\t// in\n    tag_325:\n        /* \"#utility.yul\":10350:10423   */\n      swap4\n      pop\n        /* \"#utility.yul\":10146:10433   */\n      pop\n        /* \"#utility.yul\":10472:10474   */\n      0x20\n        /* \"#utility.yul\":10498:10551   */\n      tag_326\n        /* \"#utility.yul\":10543:10550   */\n      dup7\n        /* \"#utility.yul\":10534:10540   */\n      dup3\n        /* \"#utility.yul\":10523:10532   */\n      dup8\n        /* \"#utility.yul\":10519:10541   */\n      add\n        /* \"#utility.yul\":10498:10551   */\n      tag_141\n      jump\t// in\n    tag_326:\n        /* \"#utility.yul\":10488:10551   */\n      swap3\n      pop\n        /* \"#utility.yul\":10443:10561   */\n      pop\n        /* \"#utility.yul\":10600:10602   */\n      0x40\n        /* \"#utility.yul\":10626:10687   */\n      tag_327\n        /* \"#utility.yul\":10679:10686   */\n      dup7\n        /* \"#utility.yul\":10670:10676   */\n      dup3\n        /* \"#utility.yul\":10659:10668   */\n      dup8\n        /* \"#utility.yul\":10655:10677   */\n      add\n        /* \"#utility.yul\":10626:10687   */\n      tag_172\n      jump\t// in\n    tag_327:\n        /* \"#utility.yul\":10616:10687   */\n      swap2\n      pop\n        /* \"#utility.yul\":10571:10697   */\n      pop\n        /* \"#utility.yul\":9889:10704   */\n      swap3\n      pop\n      swap3\n      pop\n      swap3\n      jump\t// out\n        /* \"#utility.yul\":10710:10932   */\n    tag_173:\n        /* \"#utility.yul\":10850:10884   */\n      0x4f6e6c79206d616e616765722063616e20646f2074686973206f706572617469\n        /* \"#utility.yul\":10846:10847   */\n      0x00\n        /* \"#utility.yul\":10838:10844   */\n      dup3\n        /* \"#utility.yul\":10834:10848   */\n      add\n        /* \"#utility.yul\":10827:10885   */\n      mstore\n        /* \"#utility.yul\":10919:10924   */\n      0x6f6e2e0000000000000000000000000000000000000000000000000000000000\n        /* \"#utility.yul\":10914:10916   */\n      0x20\n        /* \"#utility.yul\":10906:10912   */\n      dup3\n        /* \"#utility.yul\":10902:10917   */\n      add\n        /* \"#utility.yul\":10895:10925   */\n      mstore\n        /* \"#utility.yul\":10710:10932   */\n      pop\n      jump\t// out\n        /* \"#utility.yul\":10938:11304   */\n    tag_174:\n        /* \"#utility.yul\":11080:11083   */\n      0x00\n        /* \"#utility.yul\":11101:11168   */\n      tag_330\n        /* \"#utility.yul\":11165:11167   */\n      0x23\n        /* \"#utility.yul\":11160:11163   */\n      dup4\n        /* \"#utility.yul\":11101:11168   */\n      tag_156\n      jump\t// in\n    tag_330:\n        /* \"#utility.yul\":11094:11168   */\n      swap2\n      pop\n        /* \"#utility.yul\":11177:11270   */\n      tag_331\n        /* \"#utility.yul\":11266:11269   */\n      dup3\n        /* \"#utility.yul\":11177:11270   */\n      tag_173\n      jump\t// in\n    tag_331:\n        /* \"#utility.yul\":11295:11297   */\n      0x40\n        /* \"#utility.yul\":11290:11293   */\n      dup3\n        /* \"#utility.yul\":11286:11298   */\n      add\n        /* \"#utility.yul\":11279:11298   */\n      swap1\n      pop\n        /* \"#utility.yul\":10938:11304   */\n      swap2\n      swap1\n      pop\n      jump\t// out\n        /* \"#utility.yul\":11310:11729   */\n    tag_75:\n        /* \"#utility.yul\":11476:11480   */\n      0x00\n        /* \"#utility.yul\":11514:11516   */\n      0x20\n        /* \"#utility.yul\":11503:11512   */\n      dup3\n        /* \"#utility.yul\":11499:11517   */\n      add\n        /* \"#utility.yul\":11491:11517   */\n      swap1\n      pop\n        /* \"#utility.yul\":11563:11572   */\n      dup2\n        /* \"#utility.yul\":11557:11561   */\n      dup2\n        /* \"#utility.yul\":11553:11573   */\n      sub\n        /* \"#utility.yul\":11549:11550   */\n      0x00\n        /* \"#utility.yul\":11538:11547   */\n      dup4\n        /* \"#utility.yul\":11534:11551   */\n      add\n        /* \"#utility.yul\":11527:11574   */\n      mstore\n        /* \"#utility.yul\":11591:11722   */\n      tag_333\n        /* \"#utility.yul\":11717:11721   */\n      dup2\n        /* \"#utility.yul\":11591:11722   */\n      tag_174\n      jump\t// in\n    tag_333:\n        /* \"#utility.yul\":11583:11722   */\n      swap1\n      pop\n        /* \"#utility.yul\":11310:11729   */\n      swap2\n      swap1\n      pop\n      jump\t// out\n        /* \"#utility.yul\":11735:11915   */\n    tag_79:\n        /* \"#utility.yul\":11783:11860   */\n      0x4e487b7100000000000000000000000000000000000000000000000000000000\n        /* \"#utility.yul\":11780:11781   */\n      0x00\n        /* \"#utility.yul\":11773:11861   */\n      mstore\n        /* \"#utility.yul\":11880:11884   */\n      0x32\n        /* \"#utility.yul\":11877:11878   */\n      0x04\n        /* \"#utility.yul\":11870:11885   */\n      mstore\n        /* \"#utility.yul\":11904:11908   */\n      0x24\n        /* \"#utility.yul\":11901:11902   */\n      0x00\n        /* \"#utility.yul\":11894:11909   */\n      revert\n        /* \"#utility.yul\":11921:12101   */\n    tag_175:\n        /* \"#utility.yul\":11969:12046   */\n      0x4e487b7100000000000000000000000000000000000000000000000000000000\n        /* \"#utility.yul\":11966:11967   */\n      0x00\n        /* \"#utility.yul\":11959:12047   */\n      mstore\n        /* \"#utility.yul\":12066:12070   */\n      0x12\n        /* \"#utility.yul\":12063:12064   */\n      0x04\n        /* \"#utility.yul\":12056:12071   */\n      mstore\n        /* \"#utility.yul\":12090:12094   */\n      0x24\n        /* \"#utility.yul\":12087:12088   */\n      0x00\n        /* \"#utility.yul\":12080:12095   */\n      revert\n        /* \"#utility.yul\":12107:12287   */\n    tag_176:\n        /* \"#utility.yul\":12155:12232   */\n      0x4e487b7100000000000000000000000000000000000000000000000000000000\n        /* \"#utility.yul\":12152:12153   */\n      0x00\n        /* \"#utility.yul\":12145:12233   */\n      mstore\n        /* \"#utility.yul\":12252:12256   */\n      0x11\n        /* \"#utility.yul\":12249:12250   */\n      0x04\n        /* \"#utility.yul\":12242:12257   */\n      mstore\n        /* \"#utility.yul\":12276:12280   */\n      0x24\n        /* \"#utility.yul\":12273:12274   */\n      0x00\n        /* \"#utility.yul\":12266:12281   */\n      revert\n        /* \"#utility.yul\":12293:12478   */\n    tag_82:\n        /* \"#utility.yul\":12333:12334   */\n      0x00\n        /* \"#utility.yul\":12350:12370   */\n      tag_338\n        /* \"#utility.yul\":12368:12369   */\n      dup3\n        /* \"#utility.yul\":12350:12370   */\n      tag_139\n      jump\t// in\n    tag_338:\n        /* \"#utility.yul\":12345:12370   */\n      swap2\n      pop\n        /* \"#utility.yul\":12384:12404   */\n      tag_339\n        /* \"#utility.yul\":12402:12403   */\n      dup4\n        /* \"#utility.yul\":12384:12404   */\n      tag_139\n      jump\t// in\n    tag_339:\n        /* \"#utility.yul\":12379:12404   */\n      swap3\n      pop\n        /* \"#utility.yul\":12423:12424   */\n      dup3\n        /* \"#utility.yul\":12413:12448   */\n      tag_340\n      jumpi\n        /* \"#utility.yul\":12428:12446   */\n      tag_341\n      tag_175\n      jump\t// in\n    tag_341:\n        /* \"#utility.yul\":12413:12448   */\n    tag_340:\n        /* \"#utility.yul\":12470:12471   */\n      dup3\n        /* \"#utility.yul\":12467:12468   */\n      dup3\n        /* \"#utility.yul\":12463:12472   */\n      div\n        /* \"#utility.yul\":12458:12472   */\n      swap1\n      pop\n        /* \"#utility.yul\":12293:12478   */\n      swap3\n      swap2\n      pop\n      pop\n      jump\t// out\n        /* \"#utility.yul\":12484:12861   */\n    tag_177:\n        /* \"#utility.yul\":12624:12658   */\n      0x596f7520646f6e2774206861766520746865207065726d697373696f6e20746f\n        /* \"#utility.yul\":12620:12621   */\n      0x00\n        /* \"#utility.yul\":12612:12618   */\n      dup3\n        /* \"#utility.yul\":12608:12622   */\n      add\n        /* \"#utility.yul\":12601:12659   */\n      mstore\n        /* \"#utility.yul\":12693:12727   */\n      0x2066696e616c697a652074686520726571756573742073696e63652074686572\n        /* \"#utility.yul\":12688:12690   */\n      0x20\n        /* \"#utility.yul\":12680:12686   */\n      dup3\n        /* \"#utility.yul\":12676:12691   */\n      add\n        /* \"#utility.yul\":12669:12728   */\n      mstore\n        /* \"#utility.yul\":12762:12796   */\n      0x6520617265206e6f7420656e6f75676820617070726f76657273206861766520\n        /* \"#utility.yul\":12757:12759   */\n      0x40\n        /* \"#utility.yul\":12749:12755   */\n      dup3\n        /* \"#utility.yul\":12745:12760   */\n      add\n        /* \"#utility.yul\":12738:12797   */\n      mstore\n        /* \"#utility.yul\":12831:12853   */\n      0x616772656564207468697320726571756573742e000000000000000000000000\n        /* \"#utility.yul\":12826:12828   */\n      0x60\n        /* \"#utility.yul\":12818:12824   */\n      dup3\n        /* \"#utility.yul\":12814:12829   */\n      add\n        /* \"#utility.yul\":12807:12854   */\n      mstore\n        /* \"#utility.yul\":12484:12861   */\n      pop\n      jump\t// out\n        /* \"#utility.yul\":12867:13235   */\n    tag_178:\n        /* \"#utility.yul\":13009:13012   */\n      0x00\n        /* \"#utility.yul\":13030:13098   */\n      tag_344\n        /* \"#utility.yul\":13094:13097   */\n      0x74\n        /* \"#utility.yul\":13089:13092   */\n      dup4\n        /* \"#utility.yul\":13030:13098   */\n      tag_156\n      jump\t// in\n    tag_344:\n        /* \"#utility.yul\":13023:13098   */\n      swap2\n      pop\n        /* \"#utility.yul\":13107:13200   */\n      tag_345\n        /* \"#utility.yul\":13196:13199   */\n      dup3\n        /* \"#utility.yul\":13107:13200   */\n      tag_177\n      jump\t// in\n    tag_345:\n        /* \"#utility.yul\":13225:13228   */\n      0x80\n        /* \"#utility.yul\":13220:13223   */\n      dup3\n        /* \"#utility.yul\":13216:13229   */\n      add\n        /* \"#utility.yul\":13209:13229   */\n      swap1\n      pop\n        /* \"#utility.yul\":12867:13235   */\n      swap2\n      swap1\n      pop\n      jump\t// out\n        /* \"#utility.yul\":13241:13660   */\n    tag_85:\n        /* \"#utility.yul\":13407:13411   */\n      0x00\n        /* \"#utility.yul\":13445:13447   */\n      0x20\n        /* \"#utility.yul\":13434:13443   */\n      dup3\n        /* \"#utility.yul\":13430:13448   */\n      add\n        /* \"#utility.yul\":13422:13448   */\n      swap1\n      pop\n        /* \"#utility.yul\":13494:13503   */\n      dup2\n        /* \"#utility.yul\":13488:13492   */\n      dup2\n        /* \"#utility.yul\":13484:13504   */\n      sub\n        /* \"#utility.yul\":13480:13481   */\n      0x00\n        /* \"#utility.yul\":13469:13478   */\n      dup4\n        /* \"#utility.yul\":13465:13482   */\n      add\n        /* \"#utility.yul\":13458:13505   */\n      mstore\n        /* \"#utility.yul\":13522:13653   */\n      tag_347\n        /* \"#utility.yul\":13648:13652   */\n      dup2\n        /* \"#utility.yul\":13522:13653   */\n      tag_178\n      jump\t// in\n    tag_347:\n        /* \"#utility.yul\":13514:13653   */\n      swap1\n      pop\n        /* \"#utility.yul\":13241:13660   */\n      swap2\n      swap1\n      pop\n      jump\t// out\n        /* \"#utility.yul\":13666:13966   */\n    tag_179:\n        /* \"#utility.yul\":13806:13840   */\n      0x596f75206861766520616c72656164792066696e616c697a6564207468697320\n        /* \"#utility.yul\":13802:13803   */\n      0x00\n        /* \"#utility.yul\":13794:13800   */\n      dup3\n        /* \"#utility.yul\":13790:13804   */\n      add\n        /* \"#utility.yul\":13783:13841   */\n      mstore\n        /* \"#utility.yul\":13875:13909   */\n      0x72657175657374206265666f72652e20506c6561736520637265617465206120\n        /* \"#utility.yul\":13870:13872   */\n      0x20\n        /* \"#utility.yul\":13862:13868   */\n      dup3\n        /* \"#utility.yul\":13858:13873   */\n      add\n        /* \"#utility.yul\":13851:13910   */\n      mstore\n        /* \"#utility.yul\":13944:13958   */\n      0x6e657720726571756573742e0000000000000000000000000000000000000000\n        /* \"#utility.yul\":13939:13941   */\n      0x40\n        /* \"#utility.yul\":13931:13937   */\n      dup3\n        /* \"#utility.yul\":13927:13942   */\n      add\n        /* \"#utility.yul\":13920:13959   */\n      mstore\n        /* \"#utility.yul\":13666:13966   */\n      pop\n      jump\t// out\n        /* \"#utility.yul\":13972:14338   */\n    tag_180:\n        /* \"#utility.yul\":14114:14117   */\n      0x00\n        /* \"#utility.yul\":14135:14202   */\n      tag_350\n        /* \"#utility.yul\":14199:14201   */\n      0x4c\n        /* \"#utility.yul\":14194:14197   */\n      dup4\n        /* \"#utility.yul\":14135:14202   */\n      tag_156\n      jump\t// in\n    tag_350:\n        /* \"#utility.yul\":14128:14202   */\n      swap2\n      pop\n        /* \"#utility.yul\":14211:14304   */\n      tag_351\n        /* \"#utility.yul\":14300:14303   */\n      dup3\n        /* \"#utility.yul\":14211:14304   */\n      tag_179\n      jump\t// in\n    tag_351:\n        /* \"#utility.yul\":14329:14331   */\n      0x60\n        /* \"#utility.yul\":14324:14327   */\n      dup3\n        /* \"#utility.yul\":14320:14332   */\n      add\n        /* \"#utility.yul\":14313:14332   */\n      swap1\n      pop\n        /* \"#utility.yul\":13972:14338   */\n      swap2\n      swap1\n      pop\n      jump\t// out\n        /* \"#utility.yul\":14344:14763   */\n    tag_88:\n        /* \"#utility.yul\":14510:14514   */\n      0x00\n        /* \"#utility.yul\":14548:14550   */\n      0x20\n        /* \"#utility.yul\":14537:14546   */\n      dup3\n        /* \"#utility.yul\":14533:14551   */\n      add\n        /* \"#utility.yul\":14525:14551   */\n      swap1\n      pop\n        /* \"#utility.yul\":14597:14606   */\n      dup2\n        /* \"#utility.yul\":14591:14595   */\n      dup2\n        /* \"#utility.yul\":14587:14607   */\n      sub\n        /* \"#utility.yul\":14583:14584   */\n      0x00\n        /* \"#utility.yul\":14572:14581   */\n      dup4\n        /* \"#utility.yul\":14568:14585   */\n      add\n        /* \"#utility.yul\":14561:14608   */\n      mstore\n        /* \"#utility.yul\":14625:14756   */\n      tag_353\n        /* \"#utility.yul\":14751:14755   */\n      dup2\n        /* \"#utility.yul\":14625:14756   */\n      tag_180\n      jump\t// in\n    tag_353:\n        /* \"#utility.yul\":14617:14756   */\n      swap1\n      pop\n        /* \"#utility.yul\":14344:14763   */\n      swap2\n      swap1\n      pop\n      jump\t// out\n        /* \"#utility.yul\":14769:14945   */\n    tag_181:\n        /* \"#utility.yul\":14909:14937   */\n      0x4f6e6c7920636f6e7472696275746572732063616e20766f7465000000000000\n        /* \"#utility.yul\":14905:14906   */\n      0x00\n        /* \"#utility.yul\":14897:14903   */\n      dup3\n        /* \"#utility.yul\":14893:14907   */\n      add\n        /* \"#utility.yul\":14886:14938   */\n      mstore\n        /* \"#utility.yul\":14769:14945   */\n      pop\n      jump\t// out\n        /* \"#utility.yul\":14951:15317   */\n    tag_182:\n        /* \"#utility.yul\":15093:15096   */\n      0x00\n        /* \"#utility.yul\":15114:15181   */\n      tag_356\n        /* \"#utility.yul\":15178:15180   */\n      0x1a\n        /* \"#utility.yul\":15173:15176   */\n      dup4\n        /* \"#utility.yul\":15114:15181   */\n      tag_156\n      jump\t// in\n    tag_356:\n        /* \"#utility.yul\":15107:15181   */\n      swap2\n      pop\n        /* \"#utility.yul\":15190:15283   */\n      tag_357\n        /* \"#utility.yul\":15279:15282   */\n      dup3\n        /* \"#utility.yul\":15190:15283   */\n      tag_181\n      jump\t// in\n    tag_357:\n        /* \"#utility.yul\":15308:15310   */\n      0x20\n        /* \"#utility.yul\":15303:15306   */\n      dup3\n        /* \"#utility.yul\":15299:15311   */\n      add\n        /* \"#utility.yul\":15292:15311   */\n      swap1\n      pop\n        /* \"#utility.yul\":14951:15317   */\n      swap2\n      swap1\n      pop\n      jump\t// out\n        /* \"#utility.yul\":15323:15742   */\n    tag_103:\n        /* \"#utility.yul\":15489:15493   */\n      0x00\n        /* \"#utility.yul\":15527:15529   */\n      0x20\n        /* \"#utility.yul\":15516:15525   */\n      dup3\n        /* \"#utility.yul\":15512:15530   */\n      add\n        /* \"#utility.yul\":15504:15530   */\n      swap1\n      pop\n        /* \"#utility.yul\":15576:15585   */\n      dup2\n        /* \"#utility.yul\":15570:15574   */\n      dup2\n        /* \"#utility.yul\":15566:15586   */\n      sub\n        /* \"#utility.yul\":15562:15563   */\n      0x00\n        /* \"#utility.yul\":15551:15560   */\n      dup4\n        /* \"#utility.yul\":15547:15564   */\n      add\n        /* \"#utility.yul\":15540:15587   */\n      mstore\n        /* \"#utility.yul\":15604:15735   */\n      tag_359\n        /* \"#utility.yul\":15730:15734   */\n      dup2\n        /* \"#utility.yul\":15604:15735   */\n      tag_182\n      jump\t// in\n    tag_359:\n        /* \"#utility.yul\":15596:15735   */\n      swap1\n      pop\n        /* \"#utility.yul\":15323:15742   */\n      swap2\n      swap1\n      pop\n      jump\t// out\n        /* \"#utility.yul\":15748:15920   */\n    tag_183:\n        /* \"#utility.yul\":15888:15912   */\n      0x596f75206861766520616c726561647920766f74656400000000000000000000\n        /* \"#utility.yul\":15884:15885   */\n      0x00\n        /* \"#utility.yul\":15876:15882   */\n      dup3\n        /* \"#utility.yul\":15872:15886   */\n      add\n        /* \"#utility.yul\":15865:15913   */\n      mstore\n        /* \"#utility.yul\":15748:15920   */\n      pop\n      jump\t// out\n        /* \"#utility.yul\":15926:16292   */\n    tag_184:\n        /* \"#utility.yul\":16068:16071   */\n      0x00\n        /* \"#utility.yul\":16089:16156   */\n      tag_362\n        /* \"#utility.yul\":16153:16155   */\n      0x16\n        /* \"#utility.yul\":16148:16151   */\n      dup4\n        /* \"#utility.yul\":16089:16156   */\n      tag_156\n      jump\t// in\n    tag_362:\n        /* \"#utility.yul\":16082:16156   */\n      swap2\n      pop\n        /* \"#utility.yul\":16165:16258   */\n      tag_363\n        /* \"#utility.yul\":16254:16257   */\n      dup3\n        /* \"#utility.yul\":16165:16258   */\n      tag_183\n      jump\t// in\n    tag_363:\n        /* \"#utility.yul\":16283:16285   */\n      0x20\n        /* \"#utility.yul\":16278:16281   */\n      dup3\n        /* \"#utility.yul\":16274:16286   */\n      add\n        /* \"#utility.yul\":16267:16286   */\n      swap1\n      pop\n        /* \"#utility.yul\":15926:16292   */\n      swap2\n      swap1\n      pop\n      jump\t// out\n        /* \"#utility.yul\":16298:16717   */\n    tag_106:\n        /* \"#utility.yul\":16464:16468   */\n      0x00\n        /* \"#utility.yul\":16502:16504   */\n      0x20\n        /* \"#utility.yul\":16491:16500   */\n      dup3\n        /* \"#utility.yul\":16487:16505   */\n      add\n        /* \"#utility.yul\":16479:16505   */\n      swap1\n      pop\n        /* \"#utility.yul\":16551:16560   */\n      dup2\n        /* \"#utility.yul\":16545:16549   */\n      dup2\n        /* \"#utility.yul\":16541:16561   */\n      sub\n        /* \"#utility.yul\":16537:16538   */\n      0x00\n        /* \"#utility.yul\":16526:16535   */\n      dup4\n        /* \"#utility.yul\":16522:16539   */\n      add\n        /* \"#utility.yul\":16515:16562   */\n      mstore\n        /* \"#utility.yul\":16579:16710   */\n      tag_365\n        /* \"#utility.yul\":16705:16709   */\n      dup2\n        /* \"#utility.yul\":16579:16710   */\n      tag_184\n      jump\t// in\n    tag_365:\n        /* \"#utility.yul\":16571:16710   */\n      swap1\n      pop\n        /* \"#utility.yul\":16298:16717   */\n      swap2\n      swap1\n      pop\n      jump\t// out\n        /* \"#utility.yul\":16723:16956   */\n    tag_109:\n        /* \"#utility.yul\":16762:16765   */\n      0x00\n        /* \"#utility.yul\":16785:16809   */\n      tag_367\n        /* \"#utility.yul\":16803:16808   */\n      dup3\n        /* \"#utility.yul\":16785:16809   */\n      tag_139\n      jump\t// in\n    tag_367:\n        /* \"#utility.yul\":16776:16809   */\n      swap2\n      pop\n        /* \"#utility.yul\":16831:16897   */\n      0xffffffffffffffffffffffffffffffffffffffffffffffffffffffffffffffff\n        /* \"#utility.yul\":16824:16829   */\n      dup3\n        /* \"#utility.yul\":16821:16898   */\n      sub\n        /* \"#utility.yul\":16818:16921   */\n      tag_368\n      jumpi\n        /* \"#utility.yul\":16901:16919   */\n      tag_369\n      tag_176\n      jump\t// in\n    tag_369:\n        /* \"#utility.yul\":16818:16921   */\n    tag_368:\n        /* \"#utility.yul\":16948:16949   */\n      0x01\n        /* \"#utility.yul\":16941:16946   */\n      dup3\n        /* \"#utility.yul\":16937:16950   */\n      add\n        /* \"#utility.yul\":16930:16950   */\n      swap1\n      pop\n        /* \"#utility.yul\":16723:16956   */\n      swap2\n      swap1\n      pop\n      jump\t// out\n        /* \"#utility.yul\":16962:17142   */\n    tag_185:\n        /* \"#utility.yul\":17010:17087   */\n      0x4e487b7100000000000000000000000000000000000000000000000000000000\n        /* \"#utility.yul\":17007:17008   */\n      0x00\n        /* \"#utility.yul\":17000:17088   */\n      mstore\n        /* \"#utility.yul\":17107:17111   */\n      0x22\n        /* \"#utility.yul\":17104:17105   */\n      0x04\n        /* \"#utility.yul\":17097:17112   */\n      mstore\n        /* \"#utility.yul\":17131:17135   */\n      0x24\n        /* \"#utility.yul\":17128:17129   */\n      0x00\n        /* \"#utility.yul\":17121:17136   */\n      revert\n        /* \"#utility.yul\":17148:17468   */\n    tag_113:\n        /* \"#utility.yul\":17192:17198   */\n      0x00\n        /* \"#utility.yul\":17229:17230   */\n      0x02\n        /* \"#utility.yul\":17223:17227   */\n      dup3\n        /* \"#utility.yul\":17219:17231   */\n      div\n        /* \"#utility.yul\":17209:17231   */\n      swap1\n      pop\n        /* \"#utility.yul\":17276:17277   */\n      0x01\n        /* \"#utility.yul\":17270:17274   */\n      dup3\n        /* \"#utility.yul\":17266:17278   */\n      and\n        /* \"#utility.yul\":17297:17315   */\n      dup1\n        /* \"#utility.yul\":17287:17368   */\n      tag_372\n      jumpi\n        /* \"#utility.yul\":17353:17357   */\n      0x7f\n        /* \"#utility.yul\":17345:17351   */\n      dup3\n        /* \"#utility.yul\":17341:17358   */\n      and\n        /* \"#utility.yul\":17331:17358   */\n      swap2\n      pop\n        /* \"#utility.yul\":17287:17368   */\n    tag_372:\n        /* \"#utility.yul\":17415:17417   */\n      0x20\n        /* \"#utility.yul\":17407:17413   */\n      dup3\n        /* \"#utility.yul\":17404:17418   */\n      lt\n        /* \"#utility.yul\":17384:17402   */\n      dup2\n        /* \"#utility.yul\":17381:17419   */\n      sub\n        /* \"#utility.yul\":17378:17462   */\n      tag_373\n      jumpi\n        /* \"#utility.yul\":17434:17452   */\n      tag_374\n      tag_185\n      jump\t// in\n    tag_374:\n        /* \"#utility.yul\":17378:17462   */\n    tag_373:\n        /* \"#utility.yul\":17199:17468   */\n      pop\n        /* \"#utility.yul\":17148:17468   */\n      swap2\n      swap1\n      pop\n      jump\t// out\n        /* \"#utility.yul\":17474:17707   */\n    tag_186:\n        /* \"#utility.yul\":17614:17648   */\n      0x5468652072657374206d6f6e6579206973206c657373207468616e2074686520\n        /* \"#utility.yul\":17610:17611   */\n      0x00\n        /* \"#utility.yul\":17602:17608   */\n      dup3\n        /* \"#utility.yul\":17598:17612   */\n      add\n        /* \"#utility.yul\":17591:17649   */\n      mstore\n        /* \"#utility.yul\":17683:17699   */\n      0x726571756573742076616c75652e000000000000000000000000000000000000\n        /* \"#utility.yul\":17678:17680   */\n      0x20\n        /* \"#utility.yul\":17670:17676   */\n      dup3\n        /* \"#utility.yul\":17666:17681   */\n      add\n        /* \"#utility.yul\":17659:17700   */\n      mstore\n        /* \"#utility.yul\":17474:17707   */\n      pop\n      jump\t// out\n        /* \"#utility.yul\":17713:18079   */\n    tag_187:\n        /* \"#utility.yul\":17855:17858   */\n      0x00\n        /* \"#utility.yul\":17876:17943   */\n      tag_377\n        /* \"#utility.yul\":17940:17942   */\n      0x2e\n        /* \"#utility.yul\":17935:17938   */\n      dup4\n        /* \"#utility.yul\":17876:17943   */\n      tag_156\n      jump\t// in\n    tag_377:\n        /* \"#utility.yul\":17869:17943   */\n      swap2\n      pop\n        /* \"#utility.yul\":17952:18045   */\n      tag_378\n        /* \"#utility.yul\":18041:18044   */\n      dup3\n        /* \"#utility.yul\":17952:18045   */\n      tag_186\n      jump\t// in\n    tag_378:\n        /* \"#utility.yul\":18070:18072   */\n      0x40\n        /* \"#utility.yul\":18065:18068   */\n      dup3\n        /* \"#utility.yul\":18061:18073   */\n      add\n        /* \"#utility.yul\":18054:18073   */\n      swap1\n      pop\n        /* \"#utility.yul\":17713:18079   */\n      swap2\n      swap1\n      pop\n      jump\t// out\n        /* \"#utility.yul\":18085:18504   */\n    tag_125:\n        /* \"#utility.yul\":18251:18255   */\n      0x00\n        /* \"#utility.yul\":18289:18291   */\n      0x20\n        /* \"#utility.yul\":18278:18287   */\n      dup3\n        /* \"#utility.yul\":18274:18292   */\n      add\n        /* \"#utility.yul\":18266:18292   */\n      swap1\n      pop\n        /* \"#utility.yul\":18338:18347   */\n      dup2\n        /* \"#utility.yul\":18332:18336   */\n      dup2\n        /* \"#utility.yul\":18328:18348   */\n      sub\n        /* \"#utility.yul\":18324:18325   */\n      0x00\n        /* \"#utility.yul\":18313:18322   */\n      dup4\n        /* \"#utility.yul\":18309:18326   */\n      add\n        /* \"#utility.yul\":18302:18349   */\n      mstore\n        /* \"#utility.yul\":18366:18497   */\n      tag_380\n        /* \"#utility.yul\":18492:18496   */\n      dup2\n        /* \"#utility.yul\":18366:18497   */\n      tag_187\n      jump\t// in\n    tag_380:\n        /* \"#utility.yul\":18358:18497   */\n      swap1\n      pop\n        /* \"#utility.yul\":18085:18504   */\n      swap2\n      swap1\n      pop\n      jump\t// out\n        /* \"#utility.yul\":18510:18651   */\n    tag_188:\n        /* \"#utility.yul\":18559:18563   */\n      0x00\n        /* \"#utility.yul\":18582:18585   */\n      dup2\n        /* \"#utility.yul\":18574:18585   */\n      swap1\n      pop\n        /* \"#utility.yul\":18605:18608   */\n      dup2\n        /* \"#utility.yul\":18602:18603   */\n      0x00\n        /* \"#utility.yul\":18595:18609   */\n      mstore\n        /* \"#utility.yul\":18639:18643   */\n      0x20\n        /* \"#utility.yul\":18636:18637   */\n      0x00\n        /* \"#utility.yul\":18626:18644   */\n      keccak256\n        /* \"#utility.yul\":18618:18644   */\n      swap1\n      pop\n        /* \"#utility.yul\":18510:18651   */\n      swap2\n      swap1\n      pop\n      jump\t// out\n        /* \"#utility.yul\":18657:18750   */\n    tag_189:\n        /* \"#utility.yul\":18694:18700   */\n      0x00\n        /* \"#utility.yul\":18741:18743   */\n      0x20\n        /* \"#utility.yul\":18736:18738   */\n      0x1f\n        /* \"#utility.yul\":18729:18734   */\n      dup4\n        /* \"#utility.yul\":18725:18739   */\n      add\n        /* \"#utility.yul\":18721:18744   */\n      div\n        /* \"#utility.yul\":18711:18744   */\n      swap1\n      pop\n        /* \"#utility.yul\":18657:18750   */\n      swap2\n      swap1\n      pop\n      jump\t// out\n        /* \"#utility.yul\":18756:18863   */\n    tag_190:\n        /* \"#utility.yul\":18800:18808   */\n      0x00\n        /* \"#utility.yul\":18850:18855   */\n      dup3\n        /* \"#utility.yul\":18844:18848   */\n      dup3\n        /* \"#utility.yul\":18840:18856   */\n      shl\n        /* \"#utility.yul\":18819:18856   */\n      swap1\n      pop\n        /* \"#utility.yul\":18756:18863   */\n      swap3\n      swap2\n      pop\n      pop\n      jump\t// out\n        /* \"#utility.yul\":18869:19262   */\n    tag_191:\n        /* \"#utility.yul\":18938:18944   */\n      0x00\n        /* \"#utility.yul\":18988:18989   */\n      0x08\n        /* \"#utility.yul\":18976:18986   */\n      dup4\n        /* \"#utility.yul\":18972:18990   */\n      mul\n        /* \"#utility.yul\":19011:19108   */\n      tag_385\n        /* \"#utility.yul\":19041:19107   */\n      0xffffffffffffffffffffffffffffffffffffffffffffffffffffffffffffffff\n        /* \"#utility.yul\":19030:19039   */\n      dup3\n        /* \"#utility.yul\":19011:19108   */\n      tag_190\n      jump\t// in\n    tag_385:\n        /* \"#utility.yul\":19129:19168   */\n      tag_386\n        /* \"#utility.yul\":19159:19167   */\n      dup7\n        /* \"#utility.yul\":19148:19157   */\n      dup4\n        /* \"#utility.yul\":19129:19168   */\n      tag_190\n      jump\t// in\n    tag_386:\n        /* \"#utility.yul\":19117:19168   */\n      swap6\n      pop\n        /* \"#utility.yul\":19201:19205   */\n      dup1\n        /* \"#utility.yul\":19197:19206   */\n      not\n        /* \"#utility.yul\":19190:19195   */\n      dup5\n        /* \"#utility.yul\":19186:19207   */\n      and\n        /* \"#utility.yul\":19177:19207   */\n      swap4\n      pop\n        /* \"#utility.yul\":19250:19254   */\n      dup1\n        /* \"#utility.yul\":19240:19248   */\n      dup7\n        /* \"#utility.yul\":19236:19255   */\n      and\n        /* \"#utility.yul\":19229:19234   */\n      dup5\n        /* \"#utility.yul\":19226:19256   */\n      or\n        /* \"#utility.yul\":19216:19256   */\n      swap3\n      pop\n        /* \"#utility.yul\":18945:19262   */\n      pop\n      pop\n        /* \"#utility.yul\":18869:19262   */\n      swap4\n      swap3\n      pop\n      pop\n      pop\n      jump\t// out\n        /* \"#utility.yul\":19268:19328   */\n    tag_192:\n        /* \"#utility.yul\":19296:19299   */\n      0x00\n        /* \"#utility.yul\":19317:19322   */\n      dup2\n        /* \"#utility.yul\":19310:19322   */\n      swap1\n      pop\n        /* \"#utility.yul\":19268:19328   */\n      swap2\n      swap1\n      pop\n      jump\t// out\n        /* \"#utility.yul\":19334:19476   */\n    tag_193:\n        /* \"#utility.yul\":19384:19393   */\n      0x00\n        /* \"#utility.yul\":19417:19470   */\n      tag_389\n        /* \"#utility.yul\":19435:19469   */\n      tag_390\n        /* \"#utility.yul\":19444:19468   */\n      tag_391\n        /* \"#utility.yul\":19462:19467   */\n      dup5\n        /* \"#utility.yul\":19444:19468   */\n      tag_139\n      jump\t// in\n    tag_391:\n        /* \"#utility.yul\":19435:19469   */\n      tag_192\n      jump\t// in\n    tag_390:\n        /* \"#utility.yul\":19417:19470   */\n      tag_139\n      jump\t// in\n    tag_389:\n        /* \"#utility.yul\":19404:19470   */\n      swap1\n      pop\n        /* \"#utility.yul\":19334:19476   */\n      swap2\n      swap1\n      pop\n      jump\t// out\n        /* \"#utility.yul\":19482:19557   */\n    tag_194:\n        /* \"#utility.yul\":19525:19528   */\n      0x00\n        /* \"#utility.yul\":19546:19551   */\n      dup2\n        /* \"#utility.yul\":19539:19551   */\n      swap1\n      pop\n        /* \"#utility.yul\":19482:19557   */\n      swap2\n      swap1\n      pop\n      jump\t// out\n        /* \"#utility.yul\":19563:19832   */\n    tag_195:\n        /* \"#utility.yul\":19673:19712   */\n      tag_394\n        /* \"#utility.yul\":19704:19711   */\n      dup4\n        /* \"#utility.yul\":19673:19712   */\n      tag_193\n      jump\t// in\n    tag_394:\n        /* \"#utility.yul\":19734:19825   */\n      tag_395\n        /* \"#utility.yul\":19783:19824   */\n      tag_396\n        /* \"#utility.yul\":19807:19823   */\n      dup3\n        /* \"#utility.yul\":19783:19824   */\n      tag_194\n      jump\t// in\n    tag_396:\n        /* \"#utility.yul\":19775:19781   */\n      dup5\n        /* \"#utility.yul\":19768:19772   */\n      dup5\n        /* \"#utility.yul\":19762:19773   */\n      sload\n        /* \"#utility.yul\":19734:19825   */\n      tag_191\n      jump\t// in\n    tag_395:\n        /* \"#utility.yul\":19728:19732   */\n      dup3\n        /* \"#utility.yul\":19721:19826   */\n      sstore\n        /* \"#utility.yul\":19639:19832   */\n      pop\n        /* \"#utility.yul\":19563:19832   */\n      pop\n      pop\n      pop\n      jump\t// out\n        /* \"#utility.yul\":19838:19911   */\n    tag_196:\n        /* \"#utility.yul\":19883:19886   */\n      0x00\n        /* \"#utility.yul\":19838:19911   */\n      swap1\n      jump\t// out\n        /* \"#utility.yul\":19917:20106   */\n    tag_197:\n        /* \"#utility.yul\":19994:20026   */\n      tag_399\n      tag_196\n      jump\t// in\n    tag_399:\n        /* \"#utility.yul\":20035:20100   */\n      tag_400\n        /* \"#utility.yul\":20093:20099   */\n      dup2\n        /* \"#utility.yul\":20085:20091   */\n      dup5\n        /* \"#utility.yul\":20079:20083   */\n      dup5\n        /* \"#utility.yul\":20035:20100   */\n      tag_195\n      jump\t// in\n    tag_400:\n        /* \"#utility.yul\":19970:20106   */\n      pop\n        /* \"#utility.yul\":19917:20106   */\n      pop\n      pop\n      jump\t// out\n        /* \"#utility.yul\":20112:20298   */\n    tag_198:\n        /* \"#utility.yul\":20172:20292   */\n    tag_402:\n        /* \"#utility.yul\":20189:20192   */\n      dup2\n        /* \"#utility.yul\":20182:20187   */\n      dup2\n        /* \"#utility.yul\":20179:20193   */\n      lt\n        /* \"#utility.yul\":20172:20292   */\n      iszero\n      tag_404\n      jumpi\n        /* \"#utility.yul\":20243:20282   */\n      tag_405\n        /* \"#utility.yul\":20280:20281   */\n      0x00\n        /* \"#utility.yul\":20273:20278   */\n      dup3\n        /* \"#utility.yul\":20243:20282   */\n      tag_197\n      jump\t// in\n    tag_405:\n        /* \"#utility.yul\":20216:20217   */\n      0x01\n        /* \"#utility.yul\":20209:20214   */\n      dup2\n        /* \"#utility.yul\":20205:20218   */\n      add\n        /* \"#utility.yul\":20196:20218   */\n      swap1\n      pop\n        /* \"#utility.yul\":20172:20292   */\n      jump(tag_402)\n    tag_404:\n        /* \"#utility.yul\":20112:20298   */\n      pop\n      pop\n      jump\t// out\n        /* \"#utility.yul\":20304:20847   */\n    tag_199:\n        /* \"#utility.yul\":20405:20407   */\n      0x1f\n        /* \"#utility.yul\":20400:20403   */\n      dup3\n        /* \"#utility.yul\":20397:20408   */\n      gt\n        /* \"#utility.yul\":20394:20840   */\n      iszero\n      tag_407\n      jumpi\n        /* \"#utility.yul\":20439:20477   */\n      tag_408\n        /* \"#utility.yul\":20471:20476   */\n      dup2\n        /* \"#utility.yul\":20439:20477   */\n      tag_188\n      jump\t// in\n    tag_408:\n        /* \"#utility.yul\":20523:20552   */\n      tag_409\n        /* \"#utility.yul\":20541:20551   */\n      dup5\n        /* \"#utility.yul\":20523:20552   */\n      tag_189\n      jump\t// in\n    tag_409:\n        /* \"#utility.yul\":20513:20521   */\n      dup2\n        /* \"#utility.yul\":20509:20553   */\n      add\n        /* \"#utility.yul\":20706:20708   */\n      0x20\n        /* \"#utility.yul\":20694:20704   */\n      dup6\n        /* \"#utility.yul\":20691:20709   */\n      lt\n        /* \"#utility.yul\":20688:20737   */\n      iszero\n      tag_410\n      jumpi\n        /* \"#utility.yul\":20727:20735   */\n      dup2\n        /* \"#utility.yul\":20712:20735   */\n      swap1\n      pop\n        /* \"#utility.yul\":20688:20737   */\n    tag_410:\n        /* \"#utility.yul\":20750:20830   */\n      tag_411\n        /* \"#utility.yul\":20806:20828   */\n      tag_412\n        /* \"#utility.yul\":20824:20827   */\n      dup6\n        /* \"#utility.yul\":20806:20828   */\n      tag_189\n      jump\t// in\n    tag_412:\n        /* \"#utility.yul\":20796:20804   */\n      dup4\n        /* \"#utility.yul\":20792:20829   */\n      add\n        /* \"#utility.yul\":20779:20790   */\n      dup3\n        /* \"#utility.yul\":20750:20830   */\n      tag_198\n      jump\t// in\n    tag_411:\n        /* \"#utility.yul\":20409:20840   */\n      pop\n      pop\n        /* \"#utility.yul\":20394:20840   */\n    tag_407:\n        /* \"#utility.yul\":20304:20847   */\n      pop\n      pop\n      pop\n      jump\t// out\n        /* \"#utility.yul\":20853:20970   */\n    tag_200:\n        /* \"#utility.yul\":20907:20915   */\n      0x00\n        /* \"#utility.yul\":20957:20962   */\n      dup3\n        /* \"#utility.yul\":20951:20955   */\n      dup3\n        /* \"#utility.yul\":20947:20963   */\n      shr\n        /* \"#utility.yul\":20926:20963   */\n      swap1\n      pop\n        /* \"#utility.yul\":20853:20970   */\n      swap3\n      swap2\n      pop\n      pop\n      jump\t// out\n        /* \"#utility.yul\":20976:21145   */\n    tag_201:\n        /* \"#utility.yul\":21020:21026   */\n      0x00\n        /* \"#utility.yul\":21053:21104   */\n      tag_415\n        /* \"#utility.yul\":21101:21102   */\n      0x00\n        /* \"#utility.yul\":21097:21103   */\n      not\n        /* \"#utility.yul\":21089:21094   */\n      dup5\n        /* \"#utility.yul\":21086:21087   */\n      0x08\n        /* \"#utility.yul\":21082:21095   */\n      mul\n        /* \"#utility.yul\":21053:21104   */\n      tag_200\n      jump\t// in\n    tag_415:\n        /* \"#utility.yul\":21049:21105   */\n      not\n        /* \"#utility.yul\":21134:21138   */\n      dup1\n        /* \"#utility.yul\":21128:21132   */\n      dup4\n        /* \"#utility.yul\":21124:21139   */\n      and\n        /* \"#utility.yul\":21114:21139   */\n      swap2\n      pop\n        /* \"#utility.yul\":21027:21145   */\n      pop\n        /* \"#utility.yul\":20976:21145   */\n      swap3\n      swap2\n      pop\n      pop\n      jump\t// out\n        /* \"#utility.yul\":21150:21445   */\n    tag_202:\n        /* \"#utility.yul\":21226:21230   */\n      0x00\n        /* \"#utility.yul\":21372:21401   */\n      tag_417\n        /* \"#utility.yul\":21397:21400   */\n      dup4\n        /* \"#utility.yul\":21391:21395   */\n      dup4\n        /* \"#utility.yul\":21372:21401   */\n      tag_201\n      jump\t// in\n    tag_417:\n        /* \"#utility.yul\":21364:21401   */\n      swap2\n      pop\n        /* \"#utility.yul\":21434:21437   */\n      dup3\n        /* \"#utility.yul\":21431:21432   */\n      0x02\n        /* \"#utility.yul\":21427:21438   */\n      mul\n        /* \"#utility.yul\":21421:21425   */\n      dup3\n        /* \"#utility.yul\":21418:21439   */\n      or\n        /* \"#utility.yul\":21410:21439   */\n      swap1\n      pop\n        /* \"#utility.yul\":21150:21445   */\n      swap3\n      swap2\n      pop\n      pop\n      jump\t// out\n        /* \"#utility.yul\":21450:22845   */\n    tag_127:\n        /* \"#utility.yul\":21567:21604   */\n      tag_419\n        /* \"#utility.yul\":21600:21603   */\n      dup3\n        /* \"#utility.yul\":21567:21604   */\n      tag_155\n      jump\t// in\n    tag_419:\n        /* \"#utility.yul\":21669:21687   */\n      0xffffffffffffffff\n        /* \"#utility.yul\":21661:21667   */\n      dup2\n        /* \"#utility.yul\":21658:21688   */\n      gt\n        /* \"#utility.yul\":21655:21711   */\n      iszero\n      tag_420\n      jumpi\n        /* \"#utility.yul\":21691:21709   */\n      tag_421\n      tag_164\n      jump\t// in\n    tag_421:\n        /* \"#utility.yul\":21655:21711   */\n    tag_420:\n        /* \"#utility.yul\":21735:21773   */\n      tag_422\n        /* \"#utility.yul\":21767:21771   */\n      dup3\n        /* \"#utility.yul\":21761:21772   */\n      sload\n        /* \"#utility.yul\":21735:21773   */\n      tag_113\n      jump\t// in\n    tag_422:\n        /* \"#utility.yul\":21820:21887   */\n      tag_423\n        /* \"#utility.yul\":21880:21886   */\n      dup3\n        /* \"#utility.yul\":21872:21878   */\n      dup3\n        /* \"#utility.yul\":21866:21870   */\n      dup6\n        /* \"#utility.yul\":21820:21887   */\n      tag_199\n      jump\t// in\n    tag_423:\n        /* \"#utility.yul\":21914:21915   */\n      0x00\n        /* \"#utility.yul\":21938:21942   */\n      0x20\n        /* \"#utility.yul\":21925:21942   */\n      swap1\n      pop\n        /* \"#utility.yul\":21970:21972   */\n      0x1f\n        /* \"#utility.yul\":21962:21968   */\n      dup4\n        /* \"#utility.yul\":21959:21973   */\n      gt\n        /* \"#utility.yul\":21987:21988   */\n      0x01\n        /* \"#utility.yul\":21982:22600   */\n      dup2\n      eq\n      tag_425\n      jumpi\n        /* \"#utility.yul\":22644:22645   */\n      0x00\n        /* \"#utility.yul\":22661:22667   */\n      dup5\n        /* \"#utility.yul\":22658:22735   */\n      iszero\n      tag_426\n      jumpi\n        /* \"#utility.yul\":22710:22719   */\n      dup3\n        /* \"#utility.yul\":22705:22708   */\n      dup8\n        /* \"#utility.yul\":22701:22720   */\n      add\n        /* \"#utility.yul\":22695:22721   */\n      mload\n        /* \"#utility.yul\":22686:22721   */\n      swap1\n      pop\n        /* \"#utility.yul\":22658:22735   */\n    tag_426:\n        /* \"#utility.yul\":22761:22828   */\n      tag_427\n        /* \"#utility.yul\":22821:22827   */\n      dup6\n        /* \"#utility.yul\":22814:22819   */\n      dup3\n        /* \"#utility.yul\":22761:22828   */\n      tag_202\n      jump\t// in\n    tag_427:\n        /* \"#utility.yul\":22755:22759   */\n      dup7\n        /* \"#utility.yul\":22748:22829   */\n      sstore\n        /* \"#utility.yul\":22617:22839   */\n      pop\n        /* \"#utility.yul\":21952:22839   */\n      jump(tag_424)\n        /* \"#utility.yul\":21982:22600   */\n    tag_425:\n        /* \"#utility.yul\":22034:22038   */\n      0x1f\n        /* \"#utility.yul\":22030:22039   */\n      not\n        /* \"#utility.yul\":22022:22028   */\n      dup5\n        /* \"#utility.yul\":22018:22040   */\n      and\n        /* \"#utility.yul\":22068:22105   */\n      tag_428\n        /* \"#utility.yul\":22100:22104   */\n      dup7\n        /* \"#utility.yul\":22068:22105   */\n      tag_188\n      jump\t// in\n    tag_428:\n        /* \"#utility.yul\":22127:22128   */\n      0x00\n        /* \"#utility.yul\":22141:22349   */\n    tag_429:\n        /* \"#utility.yul\":22155:22162   */\n      dup3\n        /* \"#utility.yul\":22152:22153   */\n      dup2\n        /* \"#utility.yul\":22149:22163   */\n      lt\n        /* \"#utility.yul\":22141:22349   */\n      iszero\n      tag_431\n      jumpi\n        /* \"#utility.yul\":22234:22243   */\n      dup5\n        /* \"#utility.yul\":22229:22232   */\n      dup10\n        /* \"#utility.yul\":22225:22244   */\n      add\n        /* \"#utility.yul\":22219:22245   */\n      mload\n        /* \"#utility.yul\":22211:22217   */\n      dup3\n        /* \"#utility.yul\":22204:22246   */\n      sstore\n        /* \"#utility.yul\":22285:22286   */\n      0x01\n        /* \"#utility.yul\":22277:22283   */\n      dup3\n        /* \"#utility.yul\":22273:22287   */\n      add\n        /* \"#utility.yul\":22263:22287   */\n      swap2\n      pop\n        /* \"#utility.yul\":22332:22334   */\n      0x20\n        /* \"#utility.yul\":22321:22330   */\n      dup6\n        /* \"#utility.yul\":22317:22335   */\n      add\n        /* \"#utility.yul\":22304:22335   */\n      swap5\n      pop\n        /* \"#utility.yul\":22178:22182   */\n      0x20\n        /* \"#utility.yul\":22175:22176   */\n      dup2\n        /* \"#utility.yul\":22171:22183   */\n      add\n        /* \"#utility.yul\":22166:22183   */\n      swap1\n      pop\n        /* \"#utility.yul\":22141:22349   */\n      jump(tag_429)\n    tag_431:\n        /* \"#utility.yul\":22377:22383   */\n      dup7\n        /* \"#utility.yul\":22368:22375   */\n      dup4\n        /* \"#utility.yul\":22365:22384   */\n      lt\n        /* \"#utility.yul\":22362:22541   */\n      iszero\n      tag_432\n      jumpi\n        /* \"#utility.yul\":22435:22444   */\n      dup5\n        /* \"#utility.yul\":22430:22433   */\n      dup10\n        /* \"#utility.yul\":22426:22445   */\n      add\n        /* \"#utility.yul\":22420:22446   */\n      mload\n        /* \"#utility.yul\":22478:22526   */\n      tag_433\n        /* \"#utility.yul\":22520:22524   */\n      0x1f\n        /* \"#utility.yul\":22512:22518   */\n      dup10\n        /* \"#utility.yul\":22508:22525   */\n      and\n        /* \"#utility.yul\":22497:22506   */\n      dup3\n        /* \"#utility.yul\":22478:22526   */\n      tag_201\n      jump\t// in\n    tag_433:\n        /* \"#utility.yul\":22470:22476   */\n      dup4\n        /* \"#utility.yul\":22463:22527   */\n      sstore\n        /* \"#utility.yul\":22385:22541   */\n      pop\n        /* \"#utility.yul\":22362:22541   */\n    tag_432:\n        /* \"#utility.yul\":22587:22588   */\n      0x01\n        /* \"#utility.yul\":22583:22584   */\n      0x02\n        /* \"#utility.yul\":22575:22581   */\n      dup9\n        /* \"#utility.yul\":22571:22585   */\n      mul\n        /* \"#utility.yul\":22567:22589   */\n      add\n        /* \"#utility.yul\":22561:22565   */\n      dup9\n        /* \"#utility.yul\":22554:22590   */\n      sstore\n        /* \"#utility.yul\":21989:22600   */\n      pop\n      pop\n      pop\n        /* \"#utility.yul\":21952:22839   */\n    tag_424:\n      pop\n        /* \"#utility.yul\":21542:22845   */\n      pop\n      pop\n      pop\n        /* \"#utility.yul\":21450:22845   */\n      pop\n      pop\n      jump\t// out\n        /* \"#utility.yul\":22851:23080   */\n    tag_203:\n        /* \"#utility.yul\":22991:23025   */\n      0x596f75206469646e2774206d6174636820746865206d696e696d756d20636f6e\n        /* \"#utility.yul\":22987:22988   */\n      0x00\n        /* \"#utility.yul\":22979:22985   */\n      dup3\n        /* \"#utility.yul\":22975:22989   */\n      add\n        /* \"#utility.yul\":22968:23026   */\n      mstore\n        /* \"#utility.yul\":23060:23072   */\n      0x747269627574696f6e2e00000000000000000000000000000000000000000000\n        /* \"#utility.yul\":23055:23057   */\n      0x20\n        /* \"#utility.yul\":23047:23053   */\n      dup3\n        /* \"#utility.yul\":23043:23058   */\n      add\n        /* \"#utility.yul\":23036:23073   */\n      mstore\n        /* \"#utility.yul\":22851:23080   */\n      pop\n      jump\t// out\n        /* \"#utility.yul\":23086:23452   */\n    tag_204:\n        /* \"#utility.yul\":23228:23231   */\n      0x00\n        /* \"#utility.yul\":23249:23316   */\n      tag_436\n        /* \"#utility.yul\":23313:23315   */\n      0x2a\n        /* \"#utility.yul\":23308:23311   */\n      dup4\n        /* \"#utility.yul\":23249:23316   */\n      tag_156\n      jump\t// in\n    tag_436:\n        /* \"#utility.yul\":23242:23316   */\n      swap2\n      pop\n        /* \"#utility.yul\":23325:23418   */\n      tag_437\n        /* \"#utility.yul\":23414:23417   */\n      dup3\n        /* \"#utility.yul\":23325:23418   */\n      tag_203\n      jump\t// in\n    tag_437:\n        /* \"#utility.yul\":23443:23445   */\n      0x40\n        /* \"#utility.yul\":23438:23441   */\n      dup3\n        /* \"#utility.yul\":23434:23446   */\n      add\n        /* \"#utility.yul\":23427:23446   */\n      swap1\n      pop\n        /* \"#utility.yul\":23086:23452   */\n      swap2\n      swap1\n      pop\n      jump\t// out\n        /* \"#utility.yul\":23458:23877   */\n    tag_131:\n        /* \"#utility.yul\":23624:23628   */\n      0x00\n        /* \"#utility.yul\":23662:23664   */\n      0x20\n        /* \"#utility.yul\":23651:23660   */\n      dup3\n        /* \"#utility.yul\":23647:23665   */\n      add\n        /* \"#utility.yul\":23639:23665   */\n      swap1\n      pop\n        /* \"#utility.yul\":23711:23720   */\n      dup2\n        /* \"#utility.yul\":23705:23709   */\n      dup2\n        /* \"#utility.yul\":23701:23721   */\n      sub\n        /* \"#utility.yul\":23697:23698   */\n      0x00\n        /* \"#utility.yul\":23686:23695   */\n      dup4\n        /* \"#utility.yul\":23682:23699   */\n      add\n        /* \"#utility.yul\":23675:23722   */\n      mstore\n        /* \"#utility.yul\":23739:23870   */\n      tag_439\n        /* \"#utility.yul\":23865:23869   */\n      dup2\n        /* \"#utility.yul\":23739:23870   */\n      tag_204\n      jump\t// in\n    tag_439:\n        /* \"#utility.yul\":23731:23870   */\n      swap1\n      pop\n        /* \"#utility.yul\":23458:23877   */\n      swap2\n      swap1\n      pop\n      jump\t// out\n        /* \"#utility.yul\":23883:24113   */\n    tag_205:\n        /* \"#utility.yul\":24023:24057   */\n      0x596f75206861766520616c726561647920636f6e747269627574656420746869\n        /* \"#utility.yul\":24019:24020   */\n      0x00\n        /* \"#utility.yul\":24011:24017   */\n      dup3\n        /* \"#utility.yul\":24007:24021   */\n      add\n        /* \"#utility.yul\":24000:24058   */\n      mstore\n        /* \"#utility.yul\":24092:24105   */\n      0x732063616d706169676e2e000000000000000000000000000000000000000000\n        /* \"#utility.yul\":24087:24089   */\n      0x20\n        /* \"#utility.yul\":24079:24085   */\n      dup3\n        /* \"#utility.yul\":24075:24090   */\n      add\n        /* \"#utility.yul\":24068:24106   */\n      mstore\n        /* \"#utility.yul\":23883:24113   */\n      pop\n      jump\t// out\n        /* \"#utility.yul\":24119:24485   */\n    tag_206:\n        /* \"#utility.yul\":24261:24264   */\n      0x00\n        /* \"#utility.yul\":24282:24349   */\n      tag_442\n        /* \"#utility.yul\":24346:24348   */\n      0x2b\n        /* \"#utility.yul\":24341:24344   */\n      dup4\n        /* \"#utility.yul\":24282:24349   */\n      tag_156\n      jump\t// in\n    tag_442:\n        /* \"#utility.yul\":24275:24349   */\n      swap2\n      pop\n        /* \"#utility.yul\":24358:24451   */\n      tag_443\n        /* \"#utility.yul\":24447:24450   */\n      dup3\n        /* \"#utility.yul\":24358:24451   */\n      tag_205\n      jump\t// in\n    tag_443:\n        /* \"#utility.yul\":24476:24478   */\n      0x40\n        /* \"#utility.yul\":24471:24474   */\n      dup3\n        /* \"#utility.yul\":24467:24479   */\n      add\n        /* \"#utility.yul\":24460:24479   */\n      swap1\n      pop\n        /* \"#utility.yul\":24119:24485   */\n      swap2\n      swap1\n      pop\n      jump\t// out\n        /* \"#utility.yul\":24491:24910   */\n    tag_134:\n        /* \"#utility.yul\":24657:24661   */\n      0x00\n        /* \"#utility.yul\":24695:24697   */\n      0x20\n        /* \"#utility.yul\":24684:24693   */\n      dup3\n        /* \"#utility.yul\":24680:24698   */\n      add\n        /* \"#utility.yul\":24672:24698   */\n      swap1\n      pop\n        /* \"#utility.yul\":24744:24753   */\n      dup2\n        /* \"#utility.yul\":24738:24742   */\n      dup2\n        /* \"#utility.yul\":24734:24754   */\n      sub\n        /* \"#utility.yul\":24730:24731   */\n      0x00\n        /* \"#utility.yul\":24719:24728   */\n      dup4\n        /* \"#utility.yul\":24715:24732   */\n      add\n        /* \"#utility.yul\":24708:24755   */\n      mstore\n        /* \"#utility.yul\":24772:24903   */\n      tag_445\n        /* \"#utility.yul\":24898:24902   */\n      dup2\n        /* \"#utility.yul\":24772:24903   */\n      tag_206\n      jump\t// in\n    tag_445:\n        /* \"#utility.yul\":24764:24903   */\n      swap1\n      pop\n        /* \"#utility.yul\":24491:24910   */\n      swap2\n      swap1\n      pop\n      jump\t// out\n\n    auxdata: 0xa26469706673582212207399a5e55ceae01a76a2f1d964ca7ee1563c019aa868e8d1d69b1fd0421508ff64736f6c63430008180033\n}\n","bytecode":{"linkReferences":{},"object":"608060405234801562000010575f80fd5b5060405162001a4938038062001a49833981810160405281019062000036919062000122565b8060015f6101000a81548173ffffffffffffffffffffffffffffffffffffffff021916908373ffffffffffffffffffffffffffffffffffffffff16021790555081600281905550505062000167565b5f80fd5b5f819050919050565b6200009d8162000089565b8114620000a8575f80fd5b50565b5f81519050620000bb8162000092565b92915050565b5f73ffffffffffffffffffffffffffffffffffffffff82169050919050565b5f620000ec82620000c1565b9050919050565b620000fe81620000e0565b811462000109575f80fd5b50565b5f815190506200011c81620000f3565b92915050565b5f80604083850312156200013b576200013a62000085565b5b5f6200014a85828601620000ab565b92505060206200015d858286016200010c565b9150509250929050565b6118d480620001755f395ff3fe6080604052600436106100a6575f3560e01c8063767e0b9c11610063578063767e0b9c146101b657806381d12c58146101de57806382fde0931461021e5780638a9cfd5514610248578063937e09b114610270578063d7bb99ba1461029a576100a6565b806303441006146100aa5780630a144391146100d257806312065fe01461010e5780633fad1834146101385780634051ddac14610162578063481c6a751461018c575b5f80fd5b3480156100b5575f80fd5b506100d060048036038101906100cb9190610b45565b6102a4565b005b3480156100dd575f80fd5b506100f860048036038101906100f39190610bca565b610487565b6040516101059190610c0f565b60405180910390f35b348015610119575f80fd5b506101226104a4565b60405161012f9190610c37565b60405180910390f35b348015610143575f80fd5b5061014c6104ab565b6040516101599190610c37565b60405180910390f35b34801561016d575f80fd5b506101766104b6565b6040516101839190610cd4565b60405180910390f35b348015610197575f80fd5b506101a0610535565b6040516101ad9190610cfc565b60405180910390f35b3480156101c1575f80fd5b506101dc60048036038101906101d79190610d3f565b61055a565b005b3480156101e9575f80fd5b5061020460048036038101906101ff9190610b45565b61070d565b604051610215959493929190610e27565b60405180910390f35b348015610229575f80fd5b506102326107ff565b60405161023f9190610c37565b60405180910390f35b348015610253575f80fd5b5061026e60048036038101906102699190610fd5565b610805565b005b34801561027b575f80fd5b5061028461097e565b6040516102919190610c37565b60405180910390f35b6102a2610984565b005b60015f9054906101000a900473ffffffffffffffffffffffffffffffffffffffff1673ffffffffffffffffffffffffffffffffffffffff163373ffffffffffffffffffffffffffffffffffffffff1614610333576040517f08c379a000000000000000000000000000000000000000000000000000000000815260040161032a906110b1565b60405180910390fd5b5f808281548110610347576103466110cf565b5b905f5260205f209060050201905060026004546103649190611156565b8160040154116103a9576040517f08c379a00000000000000000000000000000000000000000000000000000000081526004016103a090611242565b60405180910390fd5b8060020160149054906101000a900460ff16156103fb576040517f08c379a00000000000000000000000000000000000000000000000000000000081526004016103f2906112f6565b60405180910390fd5b806002015f9054906101000a900473ffffffffffffffffffffffffffffffffffffffff1673ffffffffffffffffffffffffffffffffffffffff166108fc826001015490811502906040515f60405180830381858888f19350505050158015610465573d5f803e3d5ffd5b5060018160020160146101000a81548160ff0219169083151502179055505050565b6003602052805f5260405f205f915054906101000a900460ff1681565b5f47905090565b5f8080549050905090565b6104be610ac1565b5f6040518060a0016040528060025481526020016104da6104a4565b81526020015f805490508152602001600454815260200160015f9054906101000a900473ffffffffffffffffffffffffffffffffffffffff1673ffffffffffffffffffffffffffffffffffffffff1681525090508091505090565b60015f9054906101000a900473ffffffffffffffffffffffffffffffffffffffff1681565b5f80838154811061056e5761056d6110cf565b5b905f5260205f209060050201905060035f3373ffffffffffffffffffffffffffffffffffffffff1673ffffffffffffffffffffffffffffffffffffffff1681526020019081526020015f205f9054906101000a900460ff16610605576040517f08c379a00000000000000000000000000000000000000000000000000000000081526004016105fc9061135e565b60405180910390fd5b806003015f3373ffffffffffffffffffffffffffffffffffffffff1673ffffffffffffffffffffffffffffffffffffffff1681526020019081526020015f205f9054906101000a900460ff1615610691576040517f08c379a0000000000000000000000000000000000000000000000000000000008152600401610688906113c6565b60405180910390fd5b6001816003015f3373ffffffffffffffffffffffffffffffffffffffff1673ffffffffffffffffffffffffffffffffffffffff1681526020019081526020015f205f6101000a81548160ff021916908315150217905550811561070857806004015f815480929190610702906113e4565b91905055505b505050565b5f818154811061071b575f80fd5b905f5260205f2090600502015f91509050805f01805461073a90611458565b80601f016020809104026020016040519081016040528092919081815260200182805461076690611458565b80156107b15780601f10610788576101008083540402835291602001916107b1565b820191905f5260205f20905b81548152906001019060200180831161079457829003601f168201915b505050505090806001015490806002015f9054906101000a900473ffffffffffffffffffffffffffffffffffffffff16908060020160149054906101000a900460ff16908060040154905085565b60045481565b60015f9054906101000a900473ffffffffffffffffffffffffffffffffffffffff1673ffffffffffffffffffffffffffffffffffffffff163373ffffffffffffffffffffffffffffffffffffffff1614610894576040517f08c379a000000000000000000000000000000000000000000000000000000000815260040161088b906110b1565b60405180910390fd5b5f8060018160018154018082558091505003905f5260205f2090600502019050478311156108f7576040517f08c379a00000000000000000000000000000000000000000000000000000000081526004016108ee906114f8565b60405180910390fd5b83815f01908161090791906116b3565b5082816001018190555081816002015f6101000a81548173ffffffffffffffffffffffffffffffffffffffff021916908373ffffffffffffffffffffffffffffffffffffffff1602179055505f8160020160146101000a81548160ff0219169083151502179055505f816004018190555050505050565b60025481565b6002543410156109c9576040517f08c379a00000000000000000000000000000000000000000000000000000000081526004016109c0906117f2565b60405180910390fd5b60035f3373ffffffffffffffffffffffffffffffffffffffff1673ffffffffffffffffffffffffffffffffffffffff1681526020019081526020015f205f9054906101000a900460ff1615610a53576040517f08c379a0000000000000000000000000000000000000000000000000000000008152600401610a4a90611880565b60405180910390fd5b600160035f3373ffffffffffffffffffffffffffffffffffffffff1673ffffffffffffffffffffffffffffffffffffffff1681526020019081526020015f205f6101000a81548160ff02191690831515021790555060045f815480929190610aba906113e4565b9190505550565b6040518060a001604052805f81526020015f81526020015f81526020015f81526020015f73ffffffffffffffffffffffffffffffffffffffff1681525090565b5f604051905090565b5f80fd5b5f80fd5b5f819050919050565b610b2481610b12565b8114610b2e575f80fd5b50565b5f81359050610b3f81610b1b565b92915050565b5f60208284031215610b5a57610b59610b0a565b5b5f610b6784828501610b31565b91505092915050565b5f73ffffffffffffffffffffffffffffffffffffffff82169050919050565b5f610b9982610b70565b9050919050565b610ba981610b8f565b8114610bb3575f80fd5b50565b5f81359050610bc481610ba0565b92915050565b5f60208284031215610bdf57610bde610b0a565b5b5f610bec84828501610bb6565b91505092915050565b5f8115159050919050565b610c0981610bf5565b82525050565b5f602082019050610c225f830184610c00565b92915050565b610c3181610b12565b82525050565b5f602082019050610c4a5f830184610c28565b92915050565b610c5981610b12565b82525050565b610c6881610b8f565b82525050565b60a082015f820151610c825f850182610c50565b506020820151610c956020850182610c50565b506040820151610ca86040850182610c50565b506060820151610cbb6060850182610c50565b506080820151610cce6080850182610c5f565b50505050565b5f60a082019050610ce75f830184610c6e565b92915050565b610cf681610b8f565b82525050565b5f602082019050610d0f5f830184610ced565b92915050565b610d1e81610bf5565b8114610d28575f80fd5b50565b5f81359050610d3981610d15565b92915050565b5f8060408385031215610d5557610d54610b0a565b5b5f610d6285828601610b31565b9250506020610d7385828601610d2b565b9150509250929050565b5f81519050919050565b5f82825260208201905092915050565b5f5b83811015610db4578082015181840152602081019050610d99565b5f8484015250505050565b5f601f19601f8301169050919050565b5f610dd982610d7d565b610de38185610d87565b9350610df3818560208601610d97565b610dfc81610dbf565b840191505092915050565b5f610e1182610b70565b9050919050565b610e2181610e07565b82525050565b5f60a0820190508181035f830152610e3f8188610dcf565b9050610e4e6020830187610c28565b610e5b6040830186610e18565b610e686060830185610c00565b610e756080830184610c28565b9695505050505050565b5f80fd5b5f80fd5b7f4e487b71000000000000000000000000000000000000000000000000000000005f52604160045260245ffd5b610ebd82610dbf565b810181811067ffffffffffffffff82111715610edc57610edb610e87565b5b80604052505050565b5f610eee610b01565b9050610efa8282610eb4565b919050565b5f67ffffffffffffffff821115610f1957610f18610e87565b5b610f2282610dbf565b9050602081019050919050565b828183375f83830152505050565b5f610f4f610f4a84610eff565b610ee5565b905082815260208101848484011115610f6b57610f6a610e83565b5b610f76848285610f2f565b509392505050565b5f82601f830112610f9257610f91610e7f565b5b8135610fa2848260208601610f3d565b91505092915050565b610fb481610e07565b8114610fbe575f80fd5b50565b5f81359050610fcf81610fab565b92915050565b5f805f60608486031215610fec57610feb610b0a565b5b5f84013567ffffffffffffffff81111561100957611008610b0e565b5b61101586828701610f7e565b935050602061102686828701610b31565b925050604061103786828701610fc1565b9150509250925092565b7f4f6e6c79206d616e616765722063616e20646f2074686973206f7065726174695f8201527f6f6e2e0000000000000000000000000000000000000000000000000000000000602082015250565b5f61109b602383610d87565b91506110a682611041565b604082019050919050565b5f6020820190508181035f8301526110c88161108f565b9050919050565b7f4e487b71000000000000000000000000000000000000000000000000000000005f52603260045260245ffd5b7f4e487b71000000000000000000000000000000000000000000000000000000005f52601260045260245ffd5b7f4e487b71000000000000000000000000000000000000000000000000000000005f52601160045260245ffd5b5f61116082610b12565b915061116b83610b12565b92508261117b5761117a6110fc565b5b828204905092915050565b7f596f7520646f6e2774206861766520746865207065726d697373696f6e20746f5f8201527f2066696e616c697a652074686520726571756573742073696e6365207468657260208201527f6520617265206e6f7420656e6f75676820617070726f7665727320686176652060408201527f616772656564207468697320726571756573742e000000000000000000000000606082015250565b5f61122c607483610d87565b915061123782611186565b608082019050919050565b5f6020820190508181035f83015261125981611220565b9050919050565b7f596f75206861766520616c72656164792066696e616c697a65642074686973205f8201527f72657175657374206265666f72652e20506c656173652063726561746520612060208201527f6e657720726571756573742e0000000000000000000000000000000000000000604082015250565b5f6112e0604c83610d87565b91506112eb82611260565b606082019050919050565b5f6020820190508181035f83015261130d816112d4565b9050919050565b7f4f6e6c7920636f6e7472696275746572732063616e20766f74650000000000005f82015250565b5f611348601a83610d87565b915061135382611314565b602082019050919050565b5f6020820190508181035f8301526113758161133c565b9050919050565b7f596f75206861766520616c726561647920766f746564000000000000000000005f82015250565b5f6113b0601683610d87565b91506113bb8261137c565b602082019050919050565b5f6020820190508181035f8301526113dd816113a4565b9050919050565b5f6113ee82610b12565b91507fffffffffffffffffffffffffffffffffffffffffffffffffffffffffffffffff82036114205761141f611129565b5b600182019050919050565b7f4e487b71000000000000000000000000000000000000000000000000000000005f52602260045260245ffd5b5f600282049050600182168061146f57607f821691505b6020821081036114825761148161142b565b5b50919050565b7f5468652072657374206d6f6e6579206973206c657373207468616e20746865205f8201527f726571756573742076616c75652e000000000000000000000000000000000000602082015250565b5f6114e2602e83610d87565b91506114ed82611488565b604082019050919050565b5f6020820190508181035f83015261150f816114d6565b9050919050565b5f819050815f5260205f209050919050565b5f6020601f8301049050919050565b5f82821b905092915050565b5f600883026115727fffffffffffffffffffffffffffffffffffffffffffffffffffffffffffffffff82611537565b61157c8683611537565b95508019841693508086168417925050509392505050565b5f819050919050565b5f6115b76115b26115ad84610b12565b611594565b610b12565b9050919050565b5f819050919050565b6115d08361159d565b6115e46115dc826115be565b848454611543565b825550505050565b5f90565b6115f86115ec565b6116038184846115c7565b505050565b5b818110156116265761161b5f826115f0565b600181019050611609565b5050565b601f82111561166b5761163c81611516565b61164584611528565b81016020851015611654578190505b61166861166085611528565b830182611608565b50505b505050565b5f82821c905092915050565b5f61168b5f1984600802611670565b1980831691505092915050565b5f6116a3838361167c565b9150826002028217905092915050565b6116bc82610d7d565b67ffffffffffffffff8111156116d5576116d4610e87565b5b6116df8254611458565b6116ea82828561162a565b5f60209050601f83116001811461171b575f8415611709578287015190505b6117138582611698565b86555061177a565b601f19841661172986611516565b5f5b828110156117505784890151825560018201915060208501945060208101905061172b565b8683101561176d5784890151611769601f89168261167c565b8355505b6001600288020188555050505b505050505050565b7f596f75206469646e2774206d6174636820746865206d696e696d756d20636f6e5f8201527f747269627574696f6e2e00000000000000000000000000000000000000000000602082015250565b5f6117dc602a83610d87565b91506117e782611782565b604082019050919050565b5f6020820190508181035f830152611809816117d0565b9050919050565b7f596f75206861766520616c726561647920636f6e7472696275746564207468695f8201527f732063616d706169676e2e000000000000000000000000000000000000000000602082015250565b5f61186a602b83610d87565b915061187582611810565b604082019050919050565b5f6020820190508181035f8301526118978161185e565b905091905056fea26469706673582212207399a5e55ceae01a76a2f1d964ca7ee1563c019aa868e8d1d69b1fd0421508ff64736f6c63430008180033","opcodes":"PUSH1 0x80 PUSH1 0x40 MSTORE CALLVALUE DUP1 ISZERO PUSH3 0x10 JUMPI PUSH0 DUP1 REVERT JUMPDEST POP PUSH1 0x40 MLOAD PUSH3 0x1A49 CODESIZE SUB DUP1 PUSH3 0x1A49 DUP4 CODECOPY DUP2 DUP2 ADD PUSH1 0x40 MSTORE DUP2 ADD SWAP1 PUSH3 0x36 SWAP2 SWAP1 PUSH3 0x122 JUMP JUMPDEST DUP1 PUSH1 0x1 PUSH0 PUSH2 0x100 EXP DUP2 SLOAD DUP2 PUSH20 0xFFFFFFFFFFFFFFFFFFFFFFFFFFFFFFFFFFFFFFFF MUL NOT AND SWAP1 DUP4 PUSH20 0xFFFFFFFFFFFFFFFFFFFFFFFFFFFFFFFFFFFFFFFF AND MUL OR SWAP1 SSTORE POP DUP2 PUSH1 0x2 DUP2 SWAP1 SSTORE POP POP POP PUSH3 0x167 JUMP JUMPDEST PUSH0 DUP1 REVERT JUMPDEST PUSH0 DUP2 SWAP1 POP SWAP2 SWAP1 POP JUMP JUMPDEST PUSH3 0x9D DUP2 PUSH3 0x89 JUMP JUMPDEST DUP2 EQ PUSH3 0xA8 JUMPI PUSH0 DUP1 REVERT JUMPDEST POP JUMP JUMPDEST PUSH0 DUP2 MLOAD SWAP1 POP PUSH3 0xBB DUP2 PUSH3 0x92 JUMP JUMPDEST SWAP3 SWAP2 POP POP JUMP JUMPDEST PUSH0 PUSH20 0xFFFFFFFFFFFFFFFFFFFFFFFFFFFFFFFFFFFFFFFF DUP3 AND SWAP1 POP SWAP2 SWAP1 POP JUMP JUMPDEST PUSH0 PUSH3 0xEC DUP3 PUSH3 0xC1 JUMP JUMPDEST SWAP1 POP SWAP2 SWAP1 POP JUMP JUMPDEST PUSH3 0xFE DUP2 PUSH3 0xE0 JUMP JUMPDEST DUP2 EQ PUSH3 0x109 JUMPI PUSH0 DUP1 REVERT JUMPDEST POP JUMP JUMPDEST PUSH0 DUP2 MLOAD SWAP1 POP PUSH3 0x11C DUP2 PUSH3 0xF3 JUMP JUMPDEST SWAP3 SWAP2 POP POP JUMP JUMPDEST PUSH0 DUP1 PUSH1 0x40 DUP4 DUP6 SUB SLT ISZERO PUSH3 0x13B JUMPI PUSH3 0x13A PUSH3 0x85 JUMP JUMPDEST JUMPDEST PUSH0 PUSH3 0x14A DUP6 DUP3 DUP7 ADD PUSH3 0xAB JUMP JUMPDEST SWAP3 POP POP PUSH1 0x20 PUSH3 0x15D DUP6 DUP3 DUP7 ADD PUSH3 0x10C JUMP JUMPDEST SWAP2 POP POP SWAP3 POP SWAP3 SWAP1 POP JUMP JUMPDEST PUSH2 0x18D4 DUP1 PUSH3 0x175 PUSH0 CODECOPY PUSH0 RETURN INVALID PUSH1 0x80 PUSH1 0x40 MSTORE PUSH1 0x4 CALLDATASIZE LT PUSH2 0xA6 JUMPI PUSH0 CALLDATALOAD PUSH1 0xE0 SHR DUP1 PUSH4 0x767E0B9C GT PUSH2 0x63 JUMPI DUP1 PUSH4 0x767E0B9C EQ PUSH2 0x1B6 JUMPI DUP1 PUSH4 0x81D12C58 EQ PUSH2 0x1DE JUMPI DUP1 PUSH4 0x82FDE093 EQ PUSH2 0x21E JUMPI DUP1 PUSH4 0x8A9CFD55 EQ PUSH2 0x248 JUMPI DUP1 PUSH4 0x937E09B1 EQ PUSH2 0x270 JUMPI DUP1 PUSH4 0xD7BB99BA EQ PUSH2 0x29A JUMPI PUSH2 0xA6 JUMP JUMPDEST DUP1 PUSH4 0x3441006 EQ PUSH2 0xAA JUMPI DUP1 PUSH4 0xA144391 EQ PUSH2 0xD2 JUMPI DUP1 PUSH4 0x12065FE0 EQ PUSH2 0x10E JUMPI DUP1 PUSH4 0x3FAD1834 EQ PUSH2 0x138 JUMPI DUP1 PUSH4 0x4051DDAC EQ PUSH2 0x162 JUMPI DUP1 PUSH4 0x481C6A75 EQ PUSH2 0x18C JUMPI JUMPDEST PUSH0 DUP1 REVERT JUMPDEST CALLVALUE DUP1 ISZERO PUSH2 0xB5 JUMPI PUSH0 DUP1 REVERT JUMPDEST POP PUSH2 0xD0 PUSH1 0x4 DUP1 CALLDATASIZE SUB DUP2 ADD SWAP1 PUSH2 0xCB SWAP2 SWAP1 PUSH2 0xB45 JUMP JUMPDEST PUSH2 0x2A4 JUMP JUMPDEST STOP JUMPDEST CALLVALUE DUP1 ISZERO PUSH2 0xDD JUMPI PUSH0 DUP1 REVERT JUMPDEST POP PUSH2 0xF8 PUSH1 0x4 DUP1 CALLDATASIZE SUB DUP2 ADD SWAP1 PUSH2 0xF3 SWAP2 SWAP1 PUSH2 0xBCA JUMP JUMPDEST PUSH2 0x487 JUMP JUMPDEST PUSH1 0x40 MLOAD PUSH2 0x105 SWAP2 SWAP1 PUSH2 0xC0F JUMP JUMPDEST PUSH1 0x40 MLOAD DUP1 SWAP2 SUB SWAP1 RETURN JUMPDEST CALLVALUE DUP1 ISZERO PUSH2 0x119 JUMPI PUSH0 DUP1 REVERT JUMPDEST POP PUSH2 0x122 PUSH2 0x4A4 JUMP JUMPDEST PUSH1 0x40 MLOAD PUSH2 0x12F SWAP2 SWAP1 PUSH2 0xC37 JUMP JUMPDEST PUSH1 0x40 MLOAD DUP1 SWAP2 SUB SWAP1 RETURN JUMPDEST CALLVALUE DUP1 ISZERO PUSH2 0x143 JUMPI PUSH0 DUP1 REVERT JUMPDEST POP PUSH2 0x14C PUSH2 0x4AB JUMP JUMPDEST PUSH1 0x40 MLOAD PUSH2 0x159 SWAP2 SWAP1 PUSH2 0xC37 JUMP JUMPDEST PUSH1 0x40 MLOAD DUP1 SWAP2 SUB SWAP1 RETURN JUMPDEST CALLVALUE DUP1 ISZERO PUSH2 0x16D JUMPI PUSH0 DUP1 REVERT JUMPDEST POP PUSH2 0x176 PUSH2 0x4B6 JUMP JUMPDEST PUSH1 0x40 MLOAD PUSH2 0x183 SWAP2 SWAP1 PUSH2 0xCD4 JUMP JUMPDEST PUSH1 0x40 MLOAD DUP1 SWAP2 SUB SWAP1 RETURN JUMPDEST CALLVALUE DUP1 ISZERO PUSH2 0x197 JUMPI PUSH0 DUP1 REVERT JUMPDEST POP PUSH2 0x1A0 PUSH2 0x535 JUMP JUMPDEST PUSH1 0x40 MLOAD PUSH2 0x1AD SWAP2 SWAP1 PUSH2 0xCFC JUMP JUMPDEST PUSH1 0x40 MLOAD DUP1 SWAP2 SUB SWAP1 RETURN JUMPDEST CALLVALUE DUP1 ISZERO PUSH2 0x1C1 JUMPI PUSH0 DUP1 REVERT JUMPDEST POP PUSH2 0x1DC PUSH1 0x4 DUP1 CALLDATASIZE SUB DUP2 ADD SWAP1 PUSH2 0x1D7 SWAP2 SWAP1 PUSH2 0xD3F JUMP JUMPDEST PUSH2 0x55A JUMP JUMPDEST STOP JUMPDEST CALLVALUE DUP1 ISZERO PUSH2 0x1E9 JUMPI PUSH0 DUP1 REVERT JUMPDEST POP PUSH2 0x204 PUSH1 0x4 DUP1 CALLDATASIZE SUB DUP2 ADD SWAP1 PUSH2 0x1FF SWAP2 SWAP1 PUSH2 0xB45 JUMP JUMPDEST PUSH2 0x70D JUMP JUMPDEST PUSH1 0x40 MLOAD PUSH2 0x215 SWAP6 SWAP5 SWAP4 SWAP3 SWAP2 SWAP1 PUSH2 0xE27 JUMP JUMPDEST PUSH1 0x40 MLOAD DUP1 SWAP2 SUB SWAP1 RETURN JUMPDEST CALLVALUE DUP1 ISZERO PUSH2 0x229 JUMPI PUSH0 DUP1 REVERT JUMPDEST POP PUSH2 0x232 PUSH2 0x7FF JUMP JUMPDEST PUSH1 0x40 MLOAD PUSH2 0x23F SWAP2 SWAP1 PUSH2 0xC37 JUMP JUMPDEST PUSH1 0x40 MLOAD DUP1 SWAP2 SUB SWAP1 RETURN JUMPDEST CALLVALUE DUP1 ISZERO PUSH2 0x253 JUMPI PUSH0 DUP1 REVERT JUMPDEST POP PUSH2 0x26E PUSH1 0x4 DUP1 CALLDATASIZE SUB DUP2 ADD SWAP1 PUSH2 0x269 SWAP2 SWAP1 PUSH2 0xFD5 JUMP JUMPDEST PUSH2 0x805 JUMP JUMPDEST STOP JUMPDEST CALLVALUE DUP1 ISZERO PUSH2 0x27B JUMPI PUSH0 DUP1 REVERT JUMPDEST POP PUSH2 0x284 PUSH2 0x97E JUMP JUMPDEST PUSH1 0x40 MLOAD PUSH2 0x291 SWAP2 SWAP1 PUSH2 0xC37 JUMP JUMPDEST PUSH1 0x40 MLOAD DUP1 SWAP2 SUB SWAP1 RETURN JUMPDEST PUSH2 0x2A2 PUSH2 0x984 JUMP JUMPDEST STOP JUMPDEST PUSH1 0x1 PUSH0 SWAP1 SLOAD SWAP1 PUSH2 0x100 EXP SWAP1 DIV PUSH20 0xFFFFFFFFFFFFFFFFFFFFFFFFFFFFFFFFFFFFFFFF AND PUSH20 0xFFFFFFFFFFFFFFFFFFFFFFFFFFFFFFFFFFFFFFFF AND CALLER PUSH20 0xFFFFFFFFFFFFFFFFFFFFFFFFFFFFFFFFFFFFFFFF AND EQ PUSH2 0x333 JUMPI PUSH1 0x40 MLOAD PUSH32 0x8C379A000000000000000000000000000000000000000000000000000000000 DUP2 MSTORE PUSH1 0x4 ADD PUSH2 0x32A SWAP1 PUSH2 0x10B1 JUMP JUMPDEST PUSH1 0x40 MLOAD DUP1 SWAP2 SUB SWAP1 REVERT JUMPDEST PUSH0 DUP1 DUP3 DUP2 SLOAD DUP2 LT PUSH2 0x347 JUMPI PUSH2 0x346 PUSH2 0x10CF JUMP JUMPDEST JUMPDEST SWAP1 PUSH0 MSTORE PUSH1 0x20 PUSH0 KECCAK256 SWAP1 PUSH1 0x5 MUL ADD SWAP1 POP PUSH1 0x2 PUSH1 0x4 SLOAD PUSH2 0x364 SWAP2 SWAP1 PUSH2 0x1156 JUMP JUMPDEST DUP2 PUSH1 0x4 ADD SLOAD GT PUSH2 0x3A9 JUMPI PUSH1 0x40 MLOAD PUSH32 0x8C379A000000000000000000000000000000000000000000000000000000000 DUP2 MSTORE PUSH1 0x4 ADD PUSH2 0x3A0 SWAP1 PUSH2 0x1242 JUMP JUMPDEST PUSH1 0x40 MLOAD DUP1 SWAP2 SUB SWAP1 REVERT JUMPDEST DUP1 PUSH1 0x2 ADD PUSH1 0x14 SWAP1 SLOAD SWAP1 PUSH2 0x100 EXP SWAP1 DIV PUSH1 0xFF AND ISZERO PUSH2 0x3FB JUMPI PUSH1 0x40 MLOAD PUSH32 0x8C379A000000000000000000000000000000000000000000000000000000000 DUP2 MSTORE PUSH1 0x4 ADD PUSH2 0x3F2 SWAP1 PUSH2 0x12F6 JUMP JUMPDEST PUSH1 0x40 MLOAD DUP1 SWAP2 SUB SWAP1 REVERT JUMPDEST DUP1 PUSH1 0x2 ADD PUSH0 SWAP1 SLOAD SWAP1 PUSH2 0x100 EXP SWAP1 DIV PUSH20 0xFFFFFFFFFFFFFFFFFFFFFFFFFFFFFFFFFFFFFFFF AND PUSH20 0xFFFFFFFFFFFFFFFFFFFFFFFFFFFFFFFFFFFFFFFF AND PUSH2 0x8FC DUP3 PUSH1 0x1 ADD SLOAD SWAP1 DUP2 ISZERO MUL SWAP1 PUSH1 0x40 MLOAD PUSH0 PUSH1 0x40 MLOAD DUP1 DUP4 SUB DUP2 DUP6 DUP9 DUP9 CALL SWAP4 POP POP POP POP ISZERO DUP1 ISZERO PUSH2 0x465 JUMPI RETURNDATASIZE PUSH0 DUP1 RETURNDATACOPY RETURNDATASIZE PUSH0 REVERT JUMPDEST POP PUSH1 0x1 DUP2 PUSH1 0x2 ADD PUSH1 0x14 PUSH2 0x100 EXP DUP2 SLOAD DUP2 PUSH1 0xFF MUL NOT AND SWAP1 DUP4 ISZERO ISZERO MUL OR SWAP1 SSTORE POP POP POP JUMP JUMPDEST PUSH1 0x3 PUSH1 0x20 MSTORE DUP1 PUSH0 MSTORE PUSH1 0x40 PUSH0 KECCAK256 PUSH0 SWAP2 POP SLOAD SWAP1 PUSH2 0x100 EXP SWAP1 DIV PUSH1 0xFF AND DUP2 JUMP JUMPDEST PUSH0 SELFBALANCE SWAP1 POP SWAP1 JUMP JUMPDEST PUSH0 DUP1 DUP1 SLOAD SWAP1 POP SWAP1 POP SWAP1 JUMP JUMPDEST PUSH2 0x4BE PUSH2 0xAC1 JUMP JUMPDEST PUSH0 PUSH1 0x40 MLOAD DUP1 PUSH1 0xA0 ADD PUSH1 0x40 MSTORE DUP1 PUSH1 0x2 SLOAD DUP2 MSTORE PUSH1 0x20 ADD PUSH2 0x4DA PUSH2 0x4A4 JUMP JUMPDEST DUP2 MSTORE PUSH1 0x20 ADD PUSH0 DUP1 SLOAD SWAP1 POP DUP2 MSTORE PUSH1 0x20 ADD PUSH1 0x4 SLOAD DUP2 MSTORE PUSH1 0x20 ADD PUSH1 0x1 PUSH0 SWAP1 SLOAD SWAP1 PUSH2 0x100 EXP SWAP1 DIV PUSH20 0xFFFFFFFFFFFFFFFFFFFFFFFFFFFFFFFFFFFFFFFF AND PUSH20 0xFFFFFFFFFFFFFFFFFFFFFFFFFFFFFFFFFFFFFFFF AND DUP2 MSTORE POP SWAP1 POP DUP1 SWAP2 POP POP SWAP1 JUMP JUMPDEST PUSH1 0x1 PUSH0 SWAP1 SLOAD SWAP1 PUSH2 0x100 EXP SWAP1 DIV PUSH20 0xFFFFFFFFFFFFFFFFFFFFFFFFFFFFFFFFFFFFFFFF AND DUP2 JUMP JUMPDEST PUSH0 DUP1 DUP4 DUP2 SLOAD DUP2 LT PUSH2 0x56E JUMPI PUSH2 0x56D PUSH2 0x10CF JUMP JUMPDEST JUMPDEST SWAP1 PUSH0 MSTORE PUSH1 0x20 PUSH0 KECCAK256 SWAP1 PUSH1 0x5 MUL ADD SWAP1 POP PUSH1 0x3 PUSH0 CALLER PUSH20 0xFFFFFFFFFFFFFFFFFFFFFFFFFFFFFFFFFFFFFFFF AND PUSH20 0xFFFFFFFFFFFFFFFFFFFFFFFFFFFFFFFFFFFFFFFF AND DUP2 MSTORE PUSH1 0x20 ADD SWAP1 DUP2 MSTORE PUSH1 0x20 ADD PUSH0 KECCAK256 PUSH0 SWAP1 SLOAD SWAP1 PUSH2 0x100 EXP SWAP1 DIV PUSH1 0xFF AND PUSH2 0x605 JUMPI PUSH1 0x40 MLOAD PUSH32 0x8C379A000000000000000000000000000000000000000000000000000000000 DUP2 MSTORE PUSH1 0x4 ADD PUSH2 0x5FC SWAP1 PUSH2 0x135E JUMP JUMPDEST PUSH1 0x40 MLOAD DUP1 SWAP2 SUB SWAP1 REVERT JUMPDEST DUP1 PUSH1 0x3 ADD PUSH0 CALLER PUSH20 0xFFFFFFFFFFFFFFFFFFFFFFFFFFFFFFFFFFFFFFFF AND PUSH20 0xFFFFFFFFFFFFFFFFFFFFFFFFFFFFFFFFFFFFFFFF AND DUP2 MSTORE PUSH1 0x20 ADD SWAP1 DUP2 MSTORE PUSH1 0x20 ADD PUSH0 KECCAK256 PUSH0 SWAP1 SLOAD SWAP1 PUSH2 0x100 EXP SWAP1 DIV PUSH1 0xFF AND ISZERO PUSH2 0x691 JUMPI PUSH1 0x40 MLOAD PUSH32 0x8C379A000000000000000000000000000000000000000000000000000000000 DUP2 MSTORE PUSH1 0x4 ADD PUSH2 0x688 SWAP1 PUSH2 0x13C6 JUMP JUMPDEST PUSH1 0x40 MLOAD DUP1 SWAP2 SUB SWAP1 REVERT JUMPDEST PUSH1 0x1 DUP2 PUSH1 0x3 ADD PUSH0 CALLER PUSH20 0xFFFFFFFFFFFFFFFFFFFFFFFFFFFFFFFFFFFFFFFF AND PUSH20 0xFFFFFFFFFFFFFFFFFFFFFFFFFFFFFFFFFFFFFFFF AND DUP2 MSTORE PUSH1 0x20 ADD SWAP1 DUP2 MSTORE PUSH1 0x20 ADD PUSH0 KECCAK256 PUSH0 PUSH2 0x100 EXP DUP2 SLOAD DUP2 PUSH1 0xFF MUL NOT AND SWAP1 DUP4 ISZERO ISZERO MUL OR SWAP1 SSTORE POP DUP2 ISZERO PUSH2 0x708 JUMPI DUP1 PUSH1 0x4 ADD PUSH0 DUP2 SLOAD DUP1 SWAP3 SWAP2 SWAP1 PUSH2 0x702 SWAP1 PUSH2 0x13E4 JUMP JUMPDEST SWAP2 SWAP1 POP SSTORE POP JUMPDEST POP POP POP JUMP JUMPDEST PUSH0 DUP2 DUP2 SLOAD DUP2 LT PUSH2 0x71B JUMPI PUSH0 DUP1 REVERT JUMPDEST SWAP1 PUSH0 MSTORE PUSH1 0x20 PUSH0 KECCAK256 SWAP1 PUSH1 0x5 MUL ADD PUSH0 SWAP2 POP SWAP1 POP DUP1 PUSH0 ADD DUP1 SLOAD PUSH2 0x73A SWAP1 PUSH2 0x1458 JUMP JUMPDEST DUP1 PUSH1 0x1F ADD PUSH1 0x20 DUP1 SWAP2 DIV MUL PUSH1 0x20 ADD PUSH1 0x40 MLOAD SWAP1 DUP2 ADD PUSH1 0x40 MSTORE DUP1 SWAP3 SWAP2 SWAP1 DUP2 DUP2 MSTORE PUSH1 0x20 ADD DUP3 DUP1 SLOAD PUSH2 0x766 SWAP1 PUSH2 0x1458 JUMP JUMPDEST DUP1 ISZERO PUSH2 0x7B1 JUMPI DUP1 PUSH1 0x1F LT PUSH2 0x788 JUMPI PUSH2 0x100 DUP1 DUP4 SLOAD DIV MUL DUP4 MSTORE SWAP2 PUSH1 0x20 ADD SWAP2 PUSH2 0x7B1 JUMP JUMPDEST DUP3 ADD SWAP2 SWAP1 PUSH0 MSTORE PUSH1 0x20 PUSH0 KECCAK256 SWAP1 JUMPDEST DUP2 SLOAD DUP2 MSTORE SWAP1 PUSH1 0x1 ADD SWAP1 PUSH1 0x20 ADD DUP1 DUP4 GT PUSH2 0x794 JUMPI DUP3 SWAP1 SUB PUSH1 0x1F AND DUP3 ADD SWAP2 JUMPDEST POP POP POP POP POP SWAP1 DUP1 PUSH1 0x1 ADD SLOAD SWAP1 DUP1 PUSH1 0x2 ADD PUSH0 SWAP1 SLOAD SWAP1 PUSH2 0x100 EXP SWAP1 DIV PUSH20 0xFFFFFFFFFFFFFFFFFFFFFFFFFFFFFFFFFFFFFFFF AND SWAP1 DUP1 PUSH1 0x2 ADD PUSH1 0x14 SWAP1 SLOAD SWAP1 PUSH2 0x100 EXP SWAP1 DIV PUSH1 0xFF AND SWAP1 DUP1 PUSH1 0x4 ADD SLOAD SWAP1 POP DUP6 JUMP JUMPDEST PUSH1 0x4 SLOAD DUP2 JUMP JUMPDEST PUSH1 0x1 PUSH0 SWAP1 SLOAD SWAP1 PUSH2 0x100 EXP SWAP1 DIV PUSH20 0xFFFFFFFFFFFFFFFFFFFFFFFFFFFFFFFFFFFFFFFF AND PUSH20 0xFFFFFFFFFFFFFFFFFFFFFFFFFFFFFFFFFFFFFFFF AND CALLER PUSH20 0xFFFFFFFFFFFFFFFFFFFFFFFFFFFFFFFFFFFFFFFF AND EQ PUSH2 0x894 JUMPI PUSH1 0x40 MLOAD PUSH32 0x8C379A000000000000000000000000000000000000000000000000000000000 DUP2 MSTORE PUSH1 0x4 ADD PUSH2 0x88B SWAP1 PUSH2 0x10B1 JUMP JUMPDEST PUSH1 0x40 MLOAD DUP1 SWAP2 SUB SWAP1 REVERT JUMPDEST PUSH0 DUP1 PUSH1 0x1 DUP2 PUSH1 0x1 DUP2 SLOAD ADD DUP1 DUP3 SSTORE DUP1 SWAP2 POP POP SUB SWAP1 PUSH0 MSTORE PUSH1 0x20 PUSH0 KECCAK256 SWAP1 PUSH1 0x5 MUL ADD SWAP1 POP SELFBALANCE DUP4 GT ISZERO PUSH2 0x8F7 JUMPI PUSH1 0x40 MLOAD PUSH32 0x8C379A000000000000000000000000000000000000000000000000000000000 DUP2 MSTORE PUSH1 0x4 ADD PUSH2 0x8EE SWAP1 PUSH2 0x14F8 JUMP JUMPDEST PUSH1 0x40 MLOAD DUP1 SWAP2 SUB SWAP1 REVERT JUMPDEST DUP4 DUP2 PUSH0 ADD SWAP1 DUP2 PUSH2 0x907 SWAP2 SWAP1 PUSH2 0x16B3 JUMP JUMPDEST POP DUP3 DUP2 PUSH1 0x1 ADD DUP2 SWAP1 SSTORE POP DUP2 DUP2 PUSH1 0x2 ADD PUSH0 PUSH2 0x100 EXP DUP2 SLOAD DUP2 PUSH20 0xFFFFFFFFFFFFFFFFFFFFFFFFFFFFFFFFFFFFFFFF MUL NOT AND SWAP1 DUP4 PUSH20 0xFFFFFFFFFFFFFFFFFFFFFFFFFFFFFFFFFFFFFFFF AND MUL OR SWAP1 SSTORE POP PUSH0 DUP2 PUSH1 0x2 ADD PUSH1 0x14 PUSH2 0x100 EXP DUP2 SLOAD DUP2 PUSH1 0xFF MUL NOT AND SWAP1 DUP4 ISZERO ISZERO MUL OR SWAP1 SSTORE POP PUSH0 DUP2 PUSH1 0x4 ADD DUP2 SWAP1 SSTORE POP POP POP POP POP JUMP JUMPDEST PUSH1 0x2 SLOAD DUP2 JUMP JUMPDEST PUSH1 0x2 SLOAD CALLVALUE LT ISZERO PUSH2 0x9C9 JUMPI PUSH1 0x40 MLOAD PUSH32 0x8C379A000000000000000000000000000000000000000000000000000000000 DUP2 MSTORE PUSH1 0x4 ADD PUSH2 0x9C0 SWAP1 PUSH2 0x17F2 JUMP JUMPDEST PUSH1 0x40 MLOAD DUP1 SWAP2 SUB SWAP1 REVERT JUMPDEST PUSH1 0x3 PUSH0 CALLER PUSH20 0xFFFFFFFFFFFFFFFFFFFFFFFFFFFFFFFFFFFFFFFF AND PUSH20 0xFFFFFFFFFFFFFFFFFFFFFFFFFFFFFFFFFFFFFFFF AND DUP2 MSTORE PUSH1 0x20 ADD SWAP1 DUP2 MSTORE PUSH1 0x20 ADD PUSH0 KECCAK256 PUSH0 SWAP1 SLOAD SWAP1 PUSH2 0x100 EXP SWAP1 DIV PUSH1 0xFF AND ISZERO PUSH2 0xA53 JUMPI PUSH1 0x40 MLOAD PUSH32 0x8C379A000000000000000000000000000000000000000000000000000000000 DUP2 MSTORE PUSH1 0x4 ADD PUSH2 0xA4A SWAP1 PUSH2 0x1880 JUMP JUMPDEST PUSH1 0x40 MLOAD DUP1 SWAP2 SUB SWAP1 REVERT JUMPDEST PUSH1 0x1 PUSH1 0x3 PUSH0 CALLER PUSH20 0xFFFFFFFFFFFFFFFFFFFFFFFFFFFFFFFFFFFFFFFF AND PUSH20 0xFFFFFFFFFFFFFFFFFFFFFFFFFFFFFFFFFFFFFFFF AND DUP2 MSTORE PUSH1 0x20 ADD SWAP1 DUP2 MSTORE PUSH1 0x20 ADD PUSH0 KECCAK256 PUSH0 PUSH2 0x100 EXP DUP2 SLOAD DUP2 PUSH1 0xFF MUL NOT AND SWAP1 DUP4 ISZERO ISZERO MUL OR SWAP1 SSTORE POP PUSH1 0x4 PUSH0 DUP2 SLOAD DUP1 SWAP3 SWAP2 SWAP1 PUSH2 0xABA SWAP1 PUSH2 0x13E4 JUMP JUMPDEST SWAP2 SWAP1 POP SSTORE POP JUMP JUMPDEST PUSH1 0x40 MLOAD DUP1 PUSH1 0xA0 ADD PUSH1 0x40 MSTORE DUP1 PUSH0 DUP2 MSTORE PUSH1 0x20 ADD PUSH0 DUP2 MSTORE PUSH1 0x20 ADD PUSH0 DUP2 MSTORE PUSH1 0x20 ADD PUSH0 DUP2 MSTORE PUSH1 0x20 ADD PUSH0 PUSH20 0xFFFFFFFFFFFFFFFFFFFFFFFFFFFFFFFFFFFFFFFF AND DUP2 MSTORE POP SWAP1 JUMP JUMPDEST PUSH0 PUSH1 0x40 MLOAD SWAP1 POP SWAP1 JUMP JUMPDEST PUSH0 DUP1 REVERT JUMPDEST PUSH0 DUP1 REVERT JUMPDEST PUSH0 DUP2 SWAP1 POP SWAP2 SWAP1 POP JUMP JUMPDEST PUSH2 0xB24 DUP2 PUSH2 0xB12 JUMP JUMPDEST DUP2 EQ PUSH2 0xB2E JUMPI PUSH0 DUP1 REVERT JUMPDEST POP JUMP JUMPDEST PUSH0 DUP2 CALLDATALOAD SWAP1 POP PUSH2 0xB3F DUP2 PUSH2 0xB1B JUMP JUMPDEST SWAP3 SWAP2 POP POP JUMP JUMPDEST PUSH0 PUSH1 0x20 DUP3 DUP5 SUB SLT ISZERO PUSH2 0xB5A JUMPI PUSH2 0xB59 PUSH2 0xB0A JUMP JUMPDEST JUMPDEST PUSH0 PUSH2 0xB67 DUP5 DUP3 DUP6 ADD PUSH2 0xB31 JUMP JUMPDEST SWAP2 POP POP SWAP3 SWAP2 POP POP JUMP JUMPDEST PUSH0 PUSH20 0xFFFFFFFFFFFFFFFFFFFFFFFFFFFFFFFFFFFFFFFF DUP3 AND SWAP1 POP SWAP2 SWAP1 POP JUMP JUMPDEST PUSH0 PUSH2 0xB99 DUP3 PUSH2 0xB70 JUMP JUMPDEST SWAP1 POP SWAP2 SWAP1 POP JUMP JUMPDEST PUSH2 0xBA9 DUP2 PUSH2 0xB8F JUMP JUMPDEST DUP2 EQ PUSH2 0xBB3 JUMPI PUSH0 DUP1 REVERT JUMPDEST POP JUMP JUMPDEST PUSH0 DUP2 CALLDATALOAD SWAP1 POP PUSH2 0xBC4 DUP2 PUSH2 0xBA0 JUMP JUMPDEST SWAP3 SWAP2 POP POP JUMP JUMPDEST PUSH0 PUSH1 0x20 DUP3 DUP5 SUB SLT ISZERO PUSH2 0xBDF JUMPI PUSH2 0xBDE PUSH2 0xB0A JUMP JUMPDEST JUMPDEST PUSH0 PUSH2 0xBEC DUP5 DUP3 DUP6 ADD PUSH2 0xBB6 JUMP JUMPDEST SWAP2 POP POP SWAP3 SWAP2 POP POP JUMP JUMPDEST PUSH0 DUP2 ISZERO ISZERO SWAP1 POP SWAP2 SWAP1 POP JUMP JUMPDEST PUSH2 0xC09 DUP2 PUSH2 0xBF5 JUMP JUMPDEST DUP3 MSTORE POP POP JUMP JUMPDEST PUSH0 PUSH1 0x20 DUP3 ADD SWAP1 POP PUSH2 0xC22 PUSH0 DUP4 ADD DUP5 PUSH2 0xC00 JUMP JUMPDEST SWAP3 SWAP2 POP POP JUMP JUMPDEST PUSH2 0xC31 DUP2 PUSH2 0xB12 JUMP JUMPDEST DUP3 MSTORE POP POP JUMP JUMPDEST PUSH0 PUSH1 0x20 DUP3 ADD SWAP1 POP PUSH2 0xC4A PUSH0 DUP4 ADD DUP5 PUSH2 0xC28 JUMP JUMPDEST SWAP3 SWAP2 POP POP JUMP JUMPDEST PUSH2 0xC59 DUP2 PUSH2 0xB12 JUMP JUMPDEST DUP3 MSTORE POP POP JUMP JUMPDEST PUSH2 0xC68 DUP2 PUSH2 0xB8F JUMP JUMPDEST DUP3 MSTORE POP POP JUMP JUMPDEST PUSH1 0xA0 DUP3 ADD PUSH0 DUP3 ADD MLOAD PUSH2 0xC82 PUSH0 DUP6 ADD DUP3 PUSH2 0xC50 JUMP JUMPDEST POP PUSH1 0x20 DUP3 ADD MLOAD PUSH2 0xC95 PUSH1 0x20 DUP6 ADD DUP3 PUSH2 0xC50 JUMP JUMPDEST POP PUSH1 0x40 DUP3 ADD MLOAD PUSH2 0xCA8 PUSH1 0x40 DUP6 ADD DUP3 PUSH2 0xC50 JUMP JUMPDEST POP PUSH1 0x60 DUP3 ADD MLOAD PUSH2 0xCBB PUSH1 0x60 DUP6 ADD DUP3 PUSH2 0xC50 JUMP JUMPDEST POP PUSH1 0x80 DUP3 ADD MLOAD PUSH2 0xCCE PUSH1 0x80 DUP6 ADD DUP3 PUSH2 0xC5F JUMP JUMPDEST POP POP POP POP JUMP JUMPDEST PUSH0 PUSH1 0xA0 DUP3 ADD SWAP1 POP PUSH2 0xCE7 PUSH0 DUP4 ADD DUP5 PUSH2 0xC6E JUMP JUMPDEST SWAP3 SWAP2 POP POP JUMP JUMPDEST PUSH2 0xCF6 DUP2 PUSH2 0xB8F JUMP JUMPDEST DUP3 MSTORE POP POP JUMP JUMPDEST PUSH0 PUSH1 0x20 DUP3 ADD SWAP1 POP PUSH2 0xD0F PUSH0 DUP4 ADD DUP5 PUSH2 0xCED JUMP JUMPDEST SWAP3 SWAP2 POP POP JUMP JUMPDEST PUSH2 0xD1E DUP2 PUSH2 0xBF5 JUMP JUMPDEST DUP2 EQ PUSH2 0xD28 JUMPI PUSH0 DUP1 REVERT JUMPDEST POP JUMP JUMPDEST PUSH0 DUP2 CALLDATALOAD SWAP1 POP PUSH2 0xD39 DUP2 PUSH2 0xD15 JUMP JUMPDEST SWAP3 SWAP2 POP POP JUMP JUMPDEST PUSH0 DUP1 PUSH1 0x40 DUP4 DUP6 SUB SLT ISZERO PUSH2 0xD55 JUMPI PUSH2 0xD54 PUSH2 0xB0A JUMP JUMPDEST JUMPDEST PUSH0 PUSH2 0xD62 DUP6 DUP3 DUP7 ADD PUSH2 0xB31 JUMP JUMPDEST SWAP3 POP POP PUSH1 0x20 PUSH2 0xD73 DUP6 DUP3 DUP7 ADD PUSH2 0xD2B JUMP JUMPDEST SWAP2 POP POP SWAP3 POP SWAP3 SWAP1 POP JUMP JUMPDEST PUSH0 DUP2 MLOAD SWAP1 POP SWAP2 SWAP1 POP JUMP JUMPDEST PUSH0 DUP3 DUP3 MSTORE PUSH1 0x20 DUP3 ADD SWAP1 POP SWAP3 SWAP2 POP POP JUMP JUMPDEST PUSH0 JUMPDEST DUP4 DUP2 LT ISZERO PUSH2 0xDB4 JUMPI DUP1 DUP3 ADD MLOAD DUP2 DUP5 ADD MSTORE PUSH1 0x20 DUP2 ADD SWAP1 POP PUSH2 0xD99 JUMP JUMPDEST PUSH0 DUP5 DUP5 ADD MSTORE POP POP POP POP JUMP JUMPDEST PUSH0 PUSH1 0x1F NOT PUSH1 0x1F DUP4 ADD AND SWAP1 POP SWAP2 SWAP1 POP JUMP JUMPDEST PUSH0 PUSH2 0xDD9 DUP3 PUSH2 0xD7D JUMP JUMPDEST PUSH2 0xDE3 DUP2 DUP6 PUSH2 0xD87 JUMP JUMPDEST SWAP4 POP PUSH2 0xDF3 DUP2 DUP6 PUSH1 0x20 DUP7 ADD PUSH2 0xD97 JUMP JUMPDEST PUSH2 0xDFC DUP2 PUSH2 0xDBF JUMP JUMPDEST DUP5 ADD SWAP2 POP POP SWAP3 SWAP2 POP POP JUMP JUMPDEST PUSH0 PUSH2 0xE11 DUP3 PUSH2 0xB70 JUMP JUMPDEST SWAP1 POP SWAP2 SWAP1 POP JUMP JUMPDEST PUSH2 0xE21 DUP2 PUSH2 0xE07 JUMP JUMPDEST DUP3 MSTORE POP POP JUMP JUMPDEST PUSH0 PUSH1 0xA0 DUP3 ADD SWAP1 POP DUP2 DUP2 SUB PUSH0 DUP4 ADD MSTORE PUSH2 0xE3F DUP2 DUP9 PUSH2 0xDCF JUMP JUMPDEST SWAP1 POP PUSH2 0xE4E PUSH1 0x20 DUP4 ADD DUP8 PUSH2 0xC28 JUMP JUMPDEST PUSH2 0xE5B PUSH1 0x40 DUP4 ADD DUP7 PUSH2 0xE18 JUMP JUMPDEST PUSH2 0xE68 PUSH1 0x60 DUP4 ADD DUP6 PUSH2 0xC00 JUMP JUMPDEST PUSH2 0xE75 PUSH1 0x80 DUP4 ADD DUP5 PUSH2 0xC28 JUMP JUMPDEST SWAP7 SWAP6 POP POP POP POP POP POP JUMP JUMPDEST PUSH0 DUP1 REVERT JUMPDEST PUSH0 DUP1 REVERT JUMPDEST PUSH32 0x4E487B7100000000000000000000000000000000000000000000000000000000 PUSH0 MSTORE PUSH1 0x41 PUSH1 0x4 MSTORE PUSH1 0x24 PUSH0 REVERT JUMPDEST PUSH2 0xEBD DUP3 PUSH2 0xDBF JUMP JUMPDEST DUP2 ADD DUP2 DUP2 LT PUSH8 0xFFFFFFFFFFFFFFFF DUP3 GT OR ISZERO PUSH2 0xEDC JUMPI PUSH2 0xEDB PUSH2 0xE87 JUMP JUMPDEST JUMPDEST DUP1 PUSH1 0x40 MSTORE POP POP POP JUMP JUMPDEST PUSH0 PUSH2 0xEEE PUSH2 0xB01 JUMP JUMPDEST SWAP1 POP PUSH2 0xEFA DUP3 DUP3 PUSH2 0xEB4 JUMP JUMPDEST SWAP2 SWAP1 POP JUMP JUMPDEST PUSH0 PUSH8 0xFFFFFFFFFFFFFFFF DUP3 GT ISZERO PUSH2 0xF19 JUMPI PUSH2 0xF18 PUSH2 0xE87 JUMP JUMPDEST JUMPDEST PUSH2 0xF22 DUP3 PUSH2 0xDBF JUMP JUMPDEST SWAP1 POP PUSH1 0x20 DUP2 ADD SWAP1 POP SWAP2 SWAP1 POP JUMP JUMPDEST DUP3 DUP2 DUP4 CALLDATACOPY PUSH0 DUP4 DUP4 ADD MSTORE POP POP POP JUMP JUMPDEST PUSH0 PUSH2 0xF4F PUSH2 0xF4A DUP5 PUSH2 0xEFF JUMP JUMPDEST PUSH2 0xEE5 JUMP JUMPDEST SWAP1 POP DUP3 DUP2 MSTORE PUSH1 0x20 DUP2 ADD DUP5 DUP5 DUP5 ADD GT ISZERO PUSH2 0xF6B JUMPI PUSH2 0xF6A PUSH2 0xE83 JUMP JUMPDEST JUMPDEST PUSH2 0xF76 DUP5 DUP3 DUP6 PUSH2 0xF2F JUMP JUMPDEST POP SWAP4 SWAP3 POP POP POP JUMP JUMPDEST PUSH0 DUP3 PUSH1 0x1F DUP4 ADD SLT PUSH2 0xF92 JUMPI PUSH2 0xF91 PUSH2 0xE7F JUMP JUMPDEST JUMPDEST DUP2 CALLDATALOAD PUSH2 0xFA2 DUP5 DUP3 PUSH1 0x20 DUP7 ADD PUSH2 0xF3D JUMP JUMPDEST SWAP2 POP POP SWAP3 SWAP2 POP POP JUMP JUMPDEST PUSH2 0xFB4 DUP2 PUSH2 0xE07 JUMP JUMPDEST DUP2 EQ PUSH2 0xFBE JUMPI PUSH0 DUP1 REVERT JUMPDEST POP JUMP JUMPDEST PUSH0 DUP2 CALLDATALOAD SWAP1 POP PUSH2 0xFCF DUP2 PUSH2 0xFAB JUMP JUMPDEST SWAP3 SWAP2 POP POP JUMP JUMPDEST PUSH0 DUP1 PUSH0 PUSH1 0x60 DUP5 DUP7 SUB SLT ISZERO PUSH2 0xFEC JUMPI PUSH2 0xFEB PUSH2 0xB0A JUMP JUMPDEST JUMPDEST PUSH0 DUP5 ADD CALLDATALOAD PUSH8 0xFFFFFFFFFFFFFFFF DUP2 GT ISZERO PUSH2 0x1009 JUMPI PUSH2 0x1008 PUSH2 0xB0E JUMP JUMPDEST JUMPDEST PUSH2 0x1015 DUP7 DUP3 DUP8 ADD PUSH2 0xF7E JUMP JUMPDEST SWAP4 POP POP PUSH1 0x20 PUSH2 0x1026 DUP7 DUP3 DUP8 ADD PUSH2 0xB31 JUMP JUMPDEST SWAP3 POP POP PUSH1 0x40 PUSH2 0x1037 DUP7 DUP3 DUP8 ADD PUSH2 0xFC1 JUMP JUMPDEST SWAP2 POP POP SWAP3 POP SWAP3 POP SWAP3 JUMP JUMPDEST PUSH32 0x4F6E6C79206D616E616765722063616E20646F2074686973206F706572617469 PUSH0 DUP3 ADD MSTORE PUSH32 0x6F6E2E0000000000000000000000000000000000000000000000000000000000 PUSH1 0x20 DUP3 ADD MSTORE POP JUMP JUMPDEST PUSH0 PUSH2 0x109B PUSH1 0x23 DUP4 PUSH2 0xD87 JUMP JUMPDEST SWAP2 POP PUSH2 0x10A6 DUP3 PUSH2 0x1041 JUMP JUMPDEST PUSH1 0x40 DUP3 ADD SWAP1 POP SWAP2 SWAP1 POP JUMP JUMPDEST PUSH0 PUSH1 0x20 DUP3 ADD SWAP1 POP DUP2 DUP2 SUB PUSH0 DUP4 ADD MSTORE PUSH2 0x10C8 DUP2 PUSH2 0x108F JUMP JUMPDEST SWAP1 POP SWAP2 SWAP1 POP JUMP JUMPDEST PUSH32 0x4E487B7100000000000000000000000000000000000000000000000000000000 PUSH0 MSTORE PUSH1 0x32 PUSH1 0x4 MSTORE PUSH1 0x24 PUSH0 REVERT JUMPDEST PUSH32 0x4E487B7100000000000000000000000000000000000000000000000000000000 PUSH0 MSTORE PUSH1 0x12 PUSH1 0x4 MSTORE PUSH1 0x24 PUSH0 REVERT JUMPDEST PUSH32 0x4E487B7100000000000000000000000000000000000000000000000000000000 PUSH0 MSTORE PUSH1 0x11 PUSH1 0x4 MSTORE PUSH1 0x24 PUSH0 REVERT JUMPDEST PUSH0 PUSH2 0x1160 DUP3 PUSH2 0xB12 JUMP JUMPDEST SWAP2 POP PUSH2 0x116B DUP4 PUSH2 0xB12 JUMP JUMPDEST SWAP3 POP DUP3 PUSH2 0x117B JUMPI PUSH2 0x117A PUSH2 0x10FC JUMP JUMPDEST JUMPDEST DUP3 DUP3 DIV SWAP1 POP SWAP3 SWAP2 POP POP JUMP JUMPDEST PUSH32 0x596F7520646F6E2774206861766520746865207065726D697373696F6E20746F PUSH0 DUP3 ADD MSTORE PUSH32 0x2066696E616C697A652074686520726571756573742073696E63652074686572 PUSH1 0x20 DUP3 ADD MSTORE PUSH32 0x6520617265206E6F7420656E6F75676820617070726F76657273206861766520 PUSH1 0x40 DUP3 ADD MSTORE PUSH32 0x616772656564207468697320726571756573742E000000000000000000000000 PUSH1 0x60 DUP3 ADD MSTORE POP JUMP JUMPDEST PUSH0 PUSH2 0x122C PUSH1 0x74 DUP4 PUSH2 0xD87 JUMP JUMPDEST SWAP2 POP PUSH2 0x1237 DUP3 PUSH2 0x1186 JUMP JUMPDEST PUSH1 0x80 DUP3 ADD SWAP1 POP SWAP2 SWAP1 POP JUMP JUMPDEST PUSH0 PUSH1 0x20 DUP3 ADD SWAP1 POP DUP2 DUP2 SUB PUSH0 DUP4 ADD MSTORE PUSH2 0x1259 DUP2 PUSH2 0x1220 JUMP JUMPDEST SWAP1 POP SWAP2 SWAP1 POP JUMP JUMPDEST PUSH32 0x596F75206861766520616C72656164792066696E616C697A6564207468697320 PUSH0 DUP3 ADD MSTORE PUSH32 0x72657175657374206265666F72652E20506C6561736520637265617465206120 PUSH1 0x20 DUP3 ADD MSTORE PUSH32 0x6E657720726571756573742E0000000000000000000000000000000000000000 PUSH1 0x40 DUP3 ADD MSTORE POP JUMP JUMPDEST PUSH0 PUSH2 0x12E0 PUSH1 0x4C DUP4 PUSH2 0xD87 JUMP JUMPDEST SWAP2 POP PUSH2 0x12EB DUP3 PUSH2 0x1260 JUMP JUMPDEST PUSH1 0x60 DUP3 ADD SWAP1 POP SWAP2 SWAP1 POP JUMP JUMPDEST PUSH0 PUSH1 0x20 DUP3 ADD SWAP1 POP DUP2 DUP2 SUB PUSH0 DUP4 ADD MSTORE PUSH2 0x130D DUP2 PUSH2 0x12D4 JUMP JUMPDEST SWAP1 POP SWAP2 SWAP1 POP JUMP JUMPDEST PUSH32 0x4F6E6C7920636F6E7472696275746572732063616E20766F7465000000000000 PUSH0 DUP3 ADD MSTORE POP JUMP JUMPDEST PUSH0 PUSH2 0x1348 PUSH1 0x1A DUP4 PUSH2 0xD87 JUMP JUMPDEST SWAP2 POP PUSH2 0x1353 DUP3 PUSH2 0x1314 JUMP JUMPDEST PUSH1 0x20 DUP3 ADD SWAP1 POP SWAP2 SWAP1 POP JUMP JUMPDEST PUSH0 PUSH1 0x20 DUP3 ADD SWAP1 POP DUP2 DUP2 SUB PUSH0 DUP4 ADD MSTORE PUSH2 0x1375 DUP2 PUSH2 0x133C JUMP JUMPDEST SWAP1 POP SWAP2 SWAP1 POP JUMP JUMPDEST PUSH32 0x596F75206861766520616C726561647920766F74656400000000000000000000 PUSH0 DUP3 ADD MSTORE POP JUMP JUMPDEST PUSH0 PUSH2 0x13B0 PUSH1 0x16 DUP4 PUSH2 0xD87 JUMP JUMPDEST SWAP2 POP PUSH2 0x13BB DUP3 PUSH2 0x137C JUMP JUMPDEST PUSH1 0x20 DUP3 ADD SWAP1 POP SWAP2 SWAP1 POP JUMP JUMPDEST PUSH0 PUSH1 0x20 DUP3 ADD SWAP1 POP DUP2 DUP2 SUB PUSH0 DUP4 ADD MSTORE PUSH2 0x13DD DUP2 PUSH2 0x13A4 JUMP JUMPDEST SWAP1 POP SWAP2 SWAP1 POP JUMP JUMPDEST PUSH0 PUSH2 0x13EE DUP3 PUSH2 0xB12 JUMP JUMPDEST SWAP2 POP PUSH32 0xFFFFFFFFFFFFFFFFFFFFFFFFFFFFFFFFFFFFFFFFFFFFFFFFFFFFFFFFFFFFFFFF DUP3 SUB PUSH2 0x1420 JUMPI PUSH2 0x141F PUSH2 0x1129 JUMP JUMPDEST JUMPDEST PUSH1 0x1 DUP3 ADD SWAP1 POP SWAP2 SWAP1 POP JUMP JUMPDEST PUSH32 0x4E487B7100000000000000000000000000000000000000000000000000000000 PUSH0 MSTORE PUSH1 0x22 PUSH1 0x4 MSTORE PUSH1 0x24 PUSH0 REVERT JUMPDEST PUSH0 PUSH1 0x2 DUP3 DIV SWAP1 POP PUSH1 0x1 DUP3 AND DUP1 PUSH2 0x146F JUMPI PUSH1 0x7F DUP3 AND SWAP2 POP JUMPDEST PUSH1 0x20 DUP3 LT DUP2 SUB PUSH2 0x1482 JUMPI PUSH2 0x1481 PUSH2 0x142B JUMP JUMPDEST JUMPDEST POP SWAP2 SWAP1 POP JUMP JUMPDEST PUSH32 0x5468652072657374206D6F6E6579206973206C657373207468616E2074686520 PUSH0 DUP3 ADD MSTORE PUSH32 0x726571756573742076616C75652E000000000000000000000000000000000000 PUSH1 0x20 DUP3 ADD MSTORE POP JUMP JUMPDEST PUSH0 PUSH2 0x14E2 PUSH1 0x2E DUP4 PUSH2 0xD87 JUMP JUMPDEST SWAP2 POP PUSH2 0x14ED DUP3 PUSH2 0x1488 JUMP JUMPDEST PUSH1 0x40 DUP3 ADD SWAP1 POP SWAP2 SWAP1 POP JUMP JUMPDEST PUSH0 PUSH1 0x20 DUP3 ADD SWAP1 POP DUP2 DUP2 SUB PUSH0 DUP4 ADD MSTORE PUSH2 0x150F DUP2 PUSH2 0x14D6 JUMP JUMPDEST SWAP1 POP SWAP2 SWAP1 POP JUMP JUMPDEST PUSH0 DUP2 SWAP1 POP DUP2 PUSH0 MSTORE PUSH1 0x20 PUSH0 KECCAK256 SWAP1 POP SWAP2 SWAP1 POP JUMP JUMPDEST PUSH0 PUSH1 0x20 PUSH1 0x1F DUP4 ADD DIV SWAP1 POP SWAP2 SWAP1 POP JUMP JUMPDEST PUSH0 DUP3 DUP3 SHL SWAP1 POP SWAP3 SWAP2 POP POP JUMP JUMPDEST PUSH0 PUSH1 0x8 DUP4 MUL PUSH2 0x1572 PUSH32 0xFFFFFFFFFFFFFFFFFFFFFFFFFFFFFFFFFFFFFFFFFFFFFFFFFFFFFFFFFFFFFFFF DUP3 PUSH2 0x1537 JUMP JUMPDEST PUSH2 0x157C DUP7 DUP4 PUSH2 0x1537 JUMP JUMPDEST SWAP6 POP DUP1 NOT DUP5 AND SWAP4 POP DUP1 DUP7 AND DUP5 OR SWAP3 POP POP POP SWAP4 SWAP3 POP POP POP JUMP JUMPDEST PUSH0 DUP2 SWAP1 POP SWAP2 SWAP1 POP JUMP JUMPDEST PUSH0 PUSH2 0x15B7 PUSH2 0x15B2 PUSH2 0x15AD DUP5 PUSH2 0xB12 JUMP JUMPDEST PUSH2 0x1594 JUMP JUMPDEST PUSH2 0xB12 JUMP JUMPDEST SWAP1 POP SWAP2 SWAP1 POP JUMP JUMPDEST PUSH0 DUP2 SWAP1 POP SWAP2 SWAP1 POP JUMP JUMPDEST PUSH2 0x15D0 DUP4 PUSH2 0x159D JUMP JUMPDEST PUSH2 0x15E4 PUSH2 0x15DC DUP3 PUSH2 0x15BE JUMP JUMPDEST DUP5 DUP5 SLOAD PUSH2 0x1543 JUMP JUMPDEST DUP3 SSTORE POP POP POP POP JUMP JUMPDEST PUSH0 SWAP1 JUMP JUMPDEST PUSH2 0x15F8 PUSH2 0x15EC JUMP JUMPDEST PUSH2 0x1603 DUP2 DUP5 DUP5 PUSH2 0x15C7 JUMP JUMPDEST POP POP POP JUMP JUMPDEST JUMPDEST DUP2 DUP2 LT ISZERO PUSH2 0x1626 JUMPI PUSH2 0x161B PUSH0 DUP3 PUSH2 0x15F0 JUMP JUMPDEST PUSH1 0x1 DUP2 ADD SWAP1 POP PUSH2 0x1609 JUMP JUMPDEST POP POP JUMP JUMPDEST PUSH1 0x1F DUP3 GT ISZERO PUSH2 0x166B JUMPI PUSH2 0x163C DUP2 PUSH2 0x1516 JUMP JUMPDEST PUSH2 0x1645 DUP5 PUSH2 0x1528 JUMP JUMPDEST DUP2 ADD PUSH1 0x20 DUP6 LT ISZERO PUSH2 0x1654 JUMPI DUP2 SWAP1 POP JUMPDEST PUSH2 0x1668 PUSH2 0x1660 DUP6 PUSH2 0x1528 JUMP JUMPDEST DUP4 ADD DUP3 PUSH2 0x1608 JUMP JUMPDEST POP POP JUMPDEST POP POP POP JUMP JUMPDEST PUSH0 DUP3 DUP3 SHR SWAP1 POP SWAP3 SWAP2 POP POP JUMP JUMPDEST PUSH0 PUSH2 0x168B PUSH0 NOT DUP5 PUSH1 0x8 MUL PUSH2 0x1670 JUMP JUMPDEST NOT DUP1 DUP4 AND SWAP2 POP POP SWAP3 SWAP2 POP POP JUMP JUMPDEST PUSH0 PUSH2 0x16A3 DUP4 DUP4 PUSH2 0x167C JUMP JUMPDEST SWAP2 POP DUP3 PUSH1 0x2 MUL DUP3 OR SWAP1 POP SWAP3 SWAP2 POP POP JUMP JUMPDEST PUSH2 0x16BC DUP3 PUSH2 0xD7D JUMP JUMPDEST PUSH8 0xFFFFFFFFFFFFFFFF DUP2 GT ISZERO PUSH2 0x16D5 JUMPI PUSH2 0x16D4 PUSH2 0xE87 JUMP JUMPDEST JUMPDEST PUSH2 0x16DF DUP3 SLOAD PUSH2 0x1458 JUMP JUMPDEST PUSH2 0x16EA DUP3 DUP3 DUP6 PUSH2 0x162A JUMP JUMPDEST PUSH0 PUSH1 0x20 SWAP1 POP PUSH1 0x1F DUP4 GT PUSH1 0x1 DUP2 EQ PUSH2 0x171B JUMPI PUSH0 DUP5 ISZERO PUSH2 0x1709 JUMPI DUP3 DUP8 ADD MLOAD SWAP1 POP JUMPDEST PUSH2 0x1713 DUP6 DUP3 PUSH2 0x1698 JUMP JUMPDEST DUP7 SSTORE POP PUSH2 0x177A JUMP JUMPDEST PUSH1 0x1F NOT DUP5 AND PUSH2 0x1729 DUP7 PUSH2 0x1516 JUMP JUMPDEST PUSH0 JUMPDEST DUP3 DUP2 LT ISZERO PUSH2 0x1750 JUMPI DUP5 DUP10 ADD MLOAD DUP3 SSTORE PUSH1 0x1 DUP3 ADD SWAP2 POP PUSH1 0x20 DUP6 ADD SWAP5 POP PUSH1 0x20 DUP2 ADD SWAP1 POP PUSH2 0x172B JUMP JUMPDEST DUP7 DUP4 LT ISZERO PUSH2 0x176D JUMPI DUP5 DUP10 ADD MLOAD PUSH2 0x1769 PUSH1 0x1F DUP10 AND DUP3 PUSH2 0x167C JUMP JUMPDEST DUP4 SSTORE POP JUMPDEST PUSH1 0x1 PUSH1 0x2 DUP9 MUL ADD DUP9 SSTORE POP POP POP JUMPDEST POP POP POP POP POP POP JUMP JUMPDEST PUSH32 0x596F75206469646E2774206D6174636820746865206D696E696D756D20636F6E PUSH0 DUP3 ADD MSTORE PUSH32 0x747269627574696F6E2E00000000000000000000000000000000000000000000 PUSH1 0x20 DUP3 ADD MSTORE POP JUMP JUMPDEST PUSH0 PUSH2 0x17DC PUSH1 0x2A DUP4 PUSH2 0xD87 JUMP JUMPDEST SWAP2 POP PUSH2 0x17E7 DUP3 PUSH2 0x1782 JUMP JUMPDEST PUSH1 0x40 DUP3 ADD SWAP1 POP SWAP2 SWAP1 POP JUMP JUMPDEST PUSH0 PUSH1 0x20 DUP3 ADD SWAP1 POP DUP2 DUP2 SUB PUSH0 DUP4 ADD MSTORE PUSH2 0x1809 DUP2 PUSH2 0x17D0 JUMP JUMPDEST SWAP1 POP SWAP2 SWAP1 POP JUMP JUMPDEST PUSH32 0x596F75206861766520616C726561647920636F6E747269627574656420746869 PUSH0 DUP3 ADD MSTORE PUSH32 0x732063616D706169676E2E000000000000000000000000000000000000000000 PUSH1 0x20 DUP3 ADD MSTORE POP JUMP JUMPDEST PUSH0 PUSH2 0x186A PUSH1 0x2B DUP4 PUSH2 0xD87 JUMP JUMPDEST SWAP2 POP PUSH2 0x1875 DUP3 PUSH2 0x1810 JUMP JUMPDEST PUSH1 0x40 DUP3 ADD SWAP1 POP SWAP2 SWAP1 POP JUMP JUMPDEST PUSH0 PUSH1 0x20 DUP3 ADD SWAP1 POP DUP2 DUP2 SUB PUSH0 DUP4 ADD MSTORE PUSH2 0x1897 DUP2 PUSH2 0x185E JUMP JUMPDEST SWAP1 POP SWAP2 SWAP1 POP JUMP INVALID LOG2 PUSH5 0x6970667358 0x22 SLT KECCAK256 PUSH20 0x99A5E55CEAE01A76A2F1D964CA7EE1563C019AA8 PUSH9 0xE8D1D69B1FD0421508 SELFDESTRUCT PUSH5 0x736F6C6343 STOP ADDMOD XOR STOP CALLER "},"gasEstimates":{"creation":{"codeDepositCost":"1271200","executionCost":"infinite","totalCost":"infinite"},"external":{"approveRequest(uint256,bool)":"infinite","approvers(address)":"2856","approversCount()":"2469","contribute()":"53303","createRequest(string,uint256,address)":"infinite","finalizeRequest(uint256)":"infinite","getBalance()":"379","getRequestCount()":"2507","getSummary()":"infinite","manager()":"2619","minimumContribution()":"2513","requests(uint256)":"infinite"}},"methodIdentifiers":{"approveRequest(uint256,bool)":"767e0b9c","approvers(address)":"0a144391","approversCount()":"82fde093","contribute()":"d7bb99ba","createRequest(string,uint256,address)":"8a9cfd55","finalizeRequest(uint256)":"03441006","getBalance()":"12065fe0","getRequestCount()":"3fad1834","getSummary()":"4051ddac","manager()":"481c6a75","minimumContribution()":"937e09b1","requests(uint256)":"81d12c58"}},"storageLayout":{"storage":[{"astId":73,"contract":"Campaign.sol:Campaign","label":"requests","offset":0,"slot":"0","type":"t_array(t_struct(Request)58_storage)dyn_storage"},{"astId":75,"contract":"Campaign.sol:Campaign","label":"manager","offset":0,"slot":"1","type":"t_address"},{"astId":77,"contract":"Campaign.sol:Campaign","label":"minimumContribution","offset":0,"slot":"2","type":"t_uint256"},{"astId":81,"contract":"Campaign.sol:Campaign","label":"approvers","offset":0,"slot":"3","type":"t_mapping(t_address,t_bool)"},{"astId":83,"contract":"Campaign.sol:Campaign","label":"approversCount","offset":0,"slot":"4","type":"t_uint256"}],"types":{"t_address":{"encoding":"inplace","label":"address","numberOfBytes":"20"},"t_address_payable":{"encoding":"inplace","label":"address payable","numberOfBytes":"20"},"t_array(t_struct(Request)58_storage)dyn_storage":{"base":"t_struct(Request)58_storage","encoding":"dynamic_array","label":"struct Campaign.Request[]","numberOfBytes":"32"},"t_bool":{"encoding":"inplace","label":"bool","numberOfBytes":"1"},"t_mapping(t_address,t_bool)":{"encoding":"mapping","key":"t_address","label":"mapping(address => bool)","numberOfBytes":"32","value":"t_bool"},"t_string_storage":{"encoding":"bytes","label":"string","numberOfBytes":"32"},"t_struct(Request)58_storage":{"encoding":"inplace","label":"struct Campaign.Request","members":[{"astId":45,"contract":"Campaign.sol:Campaign","label":"description","offset":0,"slot":"0","type":"t_string_storage"},{"astId":47,"contract":"Campaign.sol:Campaign","label":"value","offset":0,"slot":"1","type":"t_uint256"},{"astId":49,"contract":"Campaign.sol:Campaign","label":"recipient","offset":0,"slot":"2","type":"t_address_payable"},{"astId":51,"contract":"Campaign.sol:Campaign","label":"isCompleted","offset":20,"slot":"2","type":"t_bool"},{"astId":55,"contract":"Campaign.sol:Campaign","label":"hasVoted","offset":0,"slot":"3","type":"t_mapping(t_address,t_bool)"},{"astId":57,"contract":"Campaign.sol:Campaign","label":"approvals","offset":0,"slot":"4","type":"t_uint256"}],"numberOfBytes":"160"},"t_uint256":{"encoding":"inplace","label":"uint256","numberOfBytes":"32"}}},"userdoc":{"kind":"user","methods":{},"version":1}}